:100000000EC013C012C011C010C00FC00EC00DC072
:100010000CC00BC00AC009C008C007C006C011242C
:100020001FBECFEDCDBF02D052C0EACF87B38F60E5
:1000300087BBC09A2FE38DE093E021508040904031
:10004000E1F700C00000C098EFE3FDE023E0E150DD
:10005000F0402040E1F700C0000044E036E022E03C
:10006000942F58E0842F38BBE9EFF0E03197F1F797
:1000700000C0000028BBE9EFF0E03197F1F700C0C5
:10008000000098BBE9EFF0E03197F1F700C0000005
:1000900018BAE9EFF0E03197F1F700C000008150A5
:1000A00011F758BBE9EFF0E03197F1F700C000001D
:1000B00098BBE9EFF0E03197F1F700C0000018BA03
:1000C000E7EAF1E63197F1F700C00000CBCFF894F2
:0200D000FFCF60
:00000001FF
