:100000000C9408010C9430010C9430010C943001D4
:100010000C9430010C9430010C9430010C9430019C
:100020000C9430010C9430010C9430010C9430018C
:100030000C9430010C9430010C9430010C9430017C
:100040000C9432080C9430010C949F070C9479079F
:100050000C9430010C9430010C9430010C9430015C
:100060000C9430010C9430014E65787446696C65CF
:100070002829006E65787446696C65282900436FED
:10008000756C64206E6F742066696E642066697298
:1000900073742066696C6520696E206E657874469D
:1000A000696C65282900556E6B6E6F776E204572FE
:1000B000726F723A2000534443617264206E6F7411
:1000C00020776F726B696E670053444361726420DE
:1000D0006E6F742072656164790046696C65206E8C
:1000E0006F74206F70656E00556E61626C65207470
:1000F0006F2066696E642066696C657379737465D8
:100100006D00556E61626C6520746F2066696E6467
:100110002066696C650000000000240027002A00AA
:100120005364204D6F756E74656421004865726577
:1001300000556E6B6E6F776E204572726F723A204B
:1001400000534443617264206E6F7420776F726B4A
:10015000696E6700534443617264206E6F7420724D
:10016000656164790046696C65206E6F74206F70FC
:10017000656E00556E61626C6520746F2066696EF5
:10018000642066696C6573797374656D00556E6182
:10019000626C6520746F2066696E642066696C65A8
:1001A0000052656164696E6720726F773A206F75DF
:1001B00074206F662066696C650052656164696EC3
:1001C0006720726F77000000000800020100000342
:1001D00004070000000000000000010204081020D5
:1001E00040800102040810200102040810200000D1
:1001F0000000250028002B00040404040404040467
:10020000020202020202030303030303BE0EAE0E48
:1002100011241FBECFEFD8E0DEBFCDBF11E0A0E0BC
:10022000B1E0E0E0F8E202C005900D92A233B10720
:10023000D9F722E0A2E3B1E001C01D92A833B207D2
:10024000E1F711E0C7E0D1E004C02197FE010E9470
:10025000D40FC630D107C9F70E94340A0C94F313A7
:100260000C940000FC01918D828D981761F0828DB5
:10027000DF01A80FB11D5D968C91928D9F5F9F73DA
:10028000928F90E008958FEF9FEF0895FC01918D7C
:10029000828D981731F0828DE80FF11D858D90E0E9
:1002A00008958FEF9FEF0895FC01918D228D892F86
:1002B00090E0805C9F4F821B91098F73992708956E
:1002C00082E891E00E94540121E0892B09F420E0AA
:1002D000822F0895FC01848DDF01A80FB11DA35A60
:1002E000BF4F2C91848D90E001968F739927848F56
:1002F000A689B7892C93A089B1898C9180648C934D
:10030000938D848D981306C00288F389E02D808137
:100310008F7D80830895EF92FF920F931F93CF9369
:10032000DF93EC0181E0888F9B8D8C8D981305C045
:10033000E889F989808185FD24C0F62E0B8D10E0B7
:100340000F5F1F4F0F731127E02E8C8DE8120CC02A
:100350000FB607FCFACFE889F989808185FFF5CFD0
:10036000CE010E946A01F1CF8B8DFE01E80FF11DD5
:10037000E35AFF4FF0820B8FEA89FB89808180620C
:1003800007C0EE89FF896083E889F98980818064EC
:10039000808381E090E0DF91CF911F910F91FF90DA
:1003A000EF900895CF93DF93EC01888D8823C9F0F7
:1003B000EA89FB89808185FD05C0A889B9898C916E
:1003C00086FD0FC00FB607FCF5CF808185FFF2CF09
:1003D000A889B9898C9185FFEDCFCE010E946A0171
:1003E000E7CFDF91CF91089580E090E0892B29F04D
:1003F0000E94600181110C94000008950F931F93D7
:10040000E0914F01F09150012081233049F4FC012B
:100410004489558960E070E0BA015527442703C03C
:1004200040E050E0BA01FC01828D938DA0E0B0E085
:100430008A019B01082B192B2A2B3B2BC901B801E0
:100440001F910F9108950F931F93E0914F01F09129
:1004500050019B01AC0122503109410951098681AB
:100460009781A085B1850297A109B109281739079D
:100470004A075B0768F4A281B0E00E94C90F0289B5
:10048000138924893589600F711F821F931F03C050
:1004900060E070E0CB011F910F9108950F931F93BF
:1004A000CF93DF93DC01E0914F01F0915001119661
:1004B0001C921E9214966D917D918D919C9117972F
:1004C000613071058105910569F1068117812085EB
:1004D0003185601771078207930720F56115710553
:1004E0008105910539F42081233021F466857785D3
:1004F00080899189ED01688779878A879B87611553
:1005000071058105910519F00E94230204C06685DA
:100510007785808991896C877D878E879F8780E02A
:1005200090E002C081E090E0DF91CF911F910F91A8
:100530000895EC01CB0178940E9423092881398128
:100540002330310599F048F421303105B9F02230DB
:100550003105B9F489EC90E00EC02430310549F042
:100560002630310571F488EE90E005C082E091E01C
:1005700002C08AED90E00E9423090BC086EB90E058
:10058000FACF86EA90E00E940209888199810E9450
:10059000630F82E891E00E94D20198E088E10FB6F3
:1005A000F894A895809360000FBE90936000FFCFF1
:1005B000FF920F931F93CF93DF93C82FD42F152F44
:1005C000062FF72E87FF09C040E050E0BA0187E709
:1005D0000E94D802823020F5CF770E94F6098C2F36
:1005E0000E94FB098F2D0E94FB09802F0E94FB09AE
:1005F000812F0E94FB098D2F0E94FB09C03421F03E
:10060000C83421F487E803C085E901C081E00E9475
:10061000FB09CAE00E94FA0987FF02C0C150D1F766
:10062000DF91CF911F910F91FF900895CF92DF92AC
:10063000EF92FF920F931F93CF93DF93D82EC92E83
:10064000790180914E0183FD07C089E0440F551F59
:10065000661F771F8A95D1F781E50E94D80288230B
:1006600019F0C1E0D0E02BC0C0E4DCE90E94FA0937
:100670008F3F19F42197D1F7F4CF8E3F91F7C2E065
:10068000D2E0C01BD10BCE19DF09E114F10419F43B
:10069000ED2CFC2C06C00E94FA0981E0E81AF10852
:1006A000F4CF0E94FA09F70181937F0101501109EB
:1006B000C1F70E94FA092197E1F7C0E0D0E00E945B
:1006C000F909CE01DF91CF911F910F91FF90EF902B
:1006D000DF90CF900895CF92DF92EF92FF920F9329
:1006E0001F93CF93DF93EC016A017B0102E010E0DE
:1006F0002EEF31E00E941603892B31F58881998114
:1007000085359A4A19F526E330E0B701A601CE01F6
:100710000E941603892B39F488819981863491448B
:1007200011F480E016C002E010E022E530E0B701ED
:10073000A601CE010E941603892B51F4888199816C
:100740008634914429F4EDCF83E003C082E001C0F8
:1007500081E0DF91CF911F910F91FF90EF90DF909B
:10076000CF900895CF92DF92EF92FF920F931F9355
:10077000CF93DF9300D000D0CDB7DEB7E0914F012B
:10078000F0915001623071058105910508F459C05E
:10079000C680D780E084F1846C157D058E059F05A9
:1007A00008F04FC02081223019F0233001F149C0F8
:1007B0009B013327220F331FBB27A92F982F872F89
:1007C000C284D384E484F584AC01BD014C0D5D1D6D
:1007D0006E1D7F1D02E010E0CE0101960E941603FF
:1007E000892B79F569817A8180E090E02EC09B01A8
:1007F0002F773327220F331F220F331FDC01CB014A
:1008000057E0B695A795979587955A95D1F7C284E5
:10081000D384E484F584AC01BD014C0D5D1D6E1DD7
:100820007F1D04E010E0CE0101960E941603892B83
:1008300041F489819A81AB81BC81BC01CD019F705B
:1008400004C061E070E080E090E00F900F900F90A6
:100850000F90DF91CF911F910F91FF90EF90DF905C
:10086000CF9008954F925F926F927F928F929F9256
:10087000AF92BF92CF92DF92EF92FF920F931F93AE
:10088000CF93DF934C016B015A01C0914F01D0917E
:100890005001FA0111821082209709F4A1C08981C8
:1008A00080FFA1C08A8D9B8DAC8DBD8D4E895F89E7
:1008B000688D798D841B950BA60BB70BA60160E0A4
:1008C00070E084179507A607B70708F46C01340198
:1008D000412C32E0532EC114D10409F47EC08E891C
:1008E0009F89A88DB98DAC01BD015170662777270E
:1008F000452B462B472BD1F5FA80FA94AC01BD016C
:1009000029E076956795579547952A95D1F7F42272
:10091000C1F4892B8A2B8B2B29F46E8D7F8D88A1B6
:1009200099A106C06AA17BA18CA19DA10E94B203DE
:100930006230710581059105A0F16AA37BA38CA3A8
:100940009DA36AA17BA18CA19DA10E942302611598
:1009500071058105910529F1DC01CB018F0D911DF8
:10096000A11DB11D8EA39FA3A8A7B9A72E893F895A
:100970003170C201821B930B76018C159D0508F422
:100980007C014EA15FA168A579A58114910411F0A5
:10099000C30102C080E090E087010E941603892B0A
:1009A00021F0198281E090E020C08E899F89A88D76
:1009B000B98D8E0D9F1DA11DB11D8E8B9F8BA88F94
:1009C000B98F6E0C7F1CCE18DF08F50180819181F4
:1009D000E80EF91EF182E0827ECF80E090E005C053
:1009E00085E090E002C084E090E0DF91CF911F911C
:1009F0000F91FF90EF90DF90CF90BF90AF909F90BE
:100A00008F907F906F905F904F9008955F926F925C
:100A10007F928F929F92AF92BF92CF92DF92EF928E
:100A2000FF920F931F93CF93DF93EC015B01242F71
:100A3000952FDA018D91AD018032C9F3C22ED92EE6
:100A40008F3219F4BFEFCB1ADB0A1C821D821E8283
:100A50001F82F6018081803238F0A0E25A2E4501D3
:100A6000FBE08F0E911C52C0CE010E944E027C0111
:100A7000D5011C92E2C080E090E028E031E0390F1F
:100A8000D601A90FB11D9C91913208F04AC0C30E46
:100A9000D11C81E0913208F080E08387CE010E9472
:100AA0004E027C01892B09F0C8C0288139812F7042
:100AB0003327F5E0220F331FFA95E1F74C855D856A
:100AC0006E857F8500E210E0C5010E941603892B28
:100AD00009F0A5C0F5018081882309F4A4C04385ED
:100AE00043FD3CC06A817B819B01E815F90549F50E
:100AF000DB011B968C918111A0C044FF94C0C501FD
:100B00000E94FE016C837D838E839F83EA81FB813B
:100B1000DF01CF010B96A817B90709F4ACCF5D929E
:100B2000FACF9F3209F4B3CF9E3209F480C0821706
:100B300008F0ADCFDF01A80FB11D9C938F5F932FFD
:100B40009DCF8191D9015D919D01082E000C990BDB
:100B5000851B910957FD9395892B39F260904F01C0
:100B600070905001088119810F5F1F4F09F45BC01D
:100B70004C855D856E857F85411551056105710543
:100B800009F451C0C8018F709927892B09F044C01E
:100B90004F5F5F4F6F4F7F4F4C875D876E877F87BB
:100BA000688579858A859B85611571058105910523
:100BB00039F4F3018481958108171907A0F52CC039
:100BC000D30112962C9130E0A901415051099801AE
:100BD000E4E036952795EA95E1F724233523232B86
:100BE000D9F40E94B2036230710581059105B8F015
:100BF000F301268137814085518562177307840789
:100C0000950788F4688779878A879B870E942302E3
:100C10006C877D878E879F871983088346CFEE2454
:100C2000E394F12C0AC083E0E82EF12C06C02830B2
:100C300009F02DCF88E02BE082CFC701DF91CF9163
:100C40001F910F91FF90EF90DF90CF90BF90AF90EA
:100C50009F908F907F906F905F9008956F927F929A
:100C60008F929F92AF92BF92CF92DF92EF92FF92BC
:100C70000F931F93CF93DF93CDB7DEB7C055D10944
:100C80000FB6F894DEBF0FBECDBF809144018F5FD9
:100C9000809344016E0181E3C80ED11C7E0191E472
:100CA000E90EF11C5E01E1E2AE0EB11C62E2862E9D
:100CB00061E0962E809144011F928F9380910001F4
:100CC0001F928F9387E191E09F938F93DF92CF9252
:100CD0000E941B1160904F01709050010FB6F89464
:100CE000DEBF0FBECDBF6114710469F1F301118243
:100CF000FCA2EBA2A601BE016F5F7F4FC5010E945F
:100D00000605009719F58981882311F18C8584FDEA
:100D10001FC0CE0101960E94FE01F301668F778FFE
:100D200080A391A38D8D9E8DAF8DB8A1828F938F5F
:100D3000A48FB58F168A178A108E118E81E0818359
:100D400000E010E007C005E010E004C08C0102C024
:100D500003E010E061961FAF0EAF619703301105FD
:100D600009F065C080914401813019F46EE770E0AC
:100D700063C0809100018F5F80930001772473949A
:100D8000809100011F928F939F928F92FF92EF921A
:100D90000E941B110F900F900F900F900F900F90CB
:100DA00080914F0190915001892B29F1B09235012A
:100DB000A0923401A701BE016F5F7F4F82E391E0F3
:100DC0000E9406050097C9F48981882309F48CC024
:100DD0008C8584FF0DC0CE0101960E94FE016093B8
:100DE00036017093370180933801909339017CC0AC
:100DF00083E090E002C085E090E02F969FAF8EAF39
:100E00002F978330910519F47092000109C0009763
:100E100039F068E670E0CE01835B9F4F0E94990233
:100E2000892B09F4ADCF81E08093440109C00115FD
:100E3000110531F063E770E0CE01815B9F4FEECF8B
:100E4000012B09F037CFAE014F5D5F4F6AE170E0D3
:100E5000CE0101960E9432048C8590E0982F88275D
:100E60002B85820F911D90937E0180937D018C894B
:100E700090E0982F88272B89820F911D90938101F4
:100E800080938001288D30E0322F22279F89290FFF
:100E9000311D30934301209342012C8130E0322FE9
:100EA00022279B81290F311D30935201209351013C
:100EB000982F990F890F837080937F01C05BDF4F5C
:100EC0000FB6F894DEBF0FBECDBFDF91CF911F915B
:100ED0000F91FF90EF90DF90CF90BF90AF909F90D9
:100EE0008F907F906F90089582E391E00E944E0270
:100EF00084CF1F920F920FB60F9211242F933F931E
:100F00004F935F936F937F938F939F93AF93BF9311
:100F1000EF93FF9382E891E00E946A01FF91EF91C5
:100F2000BF91AF919F918F917F916F915F914F9101
:100F30003F912F910F900FBE0F901F9018951F9209
:100F40000F920FB60F9211242F938F939F93EF93CD
:100F5000FF93E0919201F09193018081E0919801DB
:100F6000F091990182FD12C0908180919B018F5F69
:100F70008F7320919C01821751F0E0919B01F0E06A
:100F8000EE57FE4F958F80939B0101C08081FF91AA
:100F9000EF919F918F912F910F900FBE0F901F9007
:100FA0001895CF93DF9390E0FC01E652FE4F249119
:100FB000FC01E850FE4F8491882361F190E0880F96
:100FC000991FFC01EA5EFE4FC591D491FC01E251EC
:100FD000FE4FA591B491611109C09FB7F894888123
:100FE000209582238883EC912E230BC0623061F41C
:100FF0009FB7F8943881822F809583238883EC9162
:101000002E2B2C939FBF06C08FB7F894E8812E2B10
:1010100028838FBFDF91CF9108953FB7F8948091D7
:101020004A0190914B01A0914C01B0914D0126B520
:10103000A89B05C02F3F19F00196A11DB11D3FBF10
:10104000BA2FA92F982F8827820F911DA11DB11D9E
:10105000BC01CD0142E0660F771F881F991F4A959A
:10106000D1F708951F920F920FB60F9211242F936C
:101070003F938F939F93AF93BF938091460190913D
:101080004701A0914801B09149013091450123E009
:10109000230F2D3720F40196A11DB11D05C026E8B0
:1010A000230F0296A11DB11D209345018093460197
:1010B00090934701A0934801B093490180914A0160
:1010C00090914B01A0914C01B0914D010196A11D51
:1010D000B11D80934A0190934B01A0934C01B093B2
:1010E0004D01BF91AF919F918F913F912F910F90A3
:1010F0000FBE0F901F901895CF92DF92EF92FF9244
:101100000F931F93CF93DF936C017A018B01C0E0A3
:10111000D0E0CE15DF0589F0D8016D918D01D601A3
:10112000ED91FC910190F081E02DC6010995892B8C
:1011300011F47E0102C02196ECCFC701DF91CF915F
:101140001F910F91FF90EF90DF90CF9008950E9434
:10115000161190E0FC01EA53FE4F2491FC01E65287
:10116000FE4F3491FC01E850FE4FE491EE23B9F1BB
:10117000222339F1233091F038F42130A9F02230C4
:1011800001F584B58F7D12C0273091F02830A1F091
:101190002430B9F4809180008F7D03C0809180005D
:1011A0008F77809380000DC084B58F7784BD09C090
:1011B0008091B0008F7703C08091B0008F7D8093C5
:1011C000B000F0E0EE0FFF1FE251FE4FA591B49189
:1011D0008FB7F894EC9130953E233C938FBF0895E0
:1011E000009769F0FC0101900020E9F73197AF0109
:1011F000481B590BBC0182E891E00C947C0880E00C
:1012000090E008950F931F93CF93DF938C01C0E07C
:10121000D0E0F801EC0FFD1F6491662371F0E091BE
:101220008201F09183010190F081E02D82E891E04C
:101230000995892B11F02196ECCFCE01DF91CF914A
:101240001F910F910895CF93DF930E940209EC0143
:101250008EE291E00E94F0088C0F9D1FDF91CF91EC
:1012600008950F931F93CF93DF93CDB7DEB72997E0
:101270000FB6F894DEBF0FBECDBF0E940D080091DF
:101280002D0210912E0220912F0230913002DC01AC
:10129000CB01801B910BA20BB30BC297A105B1052B
:1012A00060F3F89480912302909124029A838983B9
:1012B000E0912702F0912802DF0111968081898751
:1012C00090911F02E0913102F0913202809133023D
:1012D000992309F42EC09081982B9887908180954E
:1012E00089238F838F818C8388E08B8358856F81DE
:1012F00049853B812C8189819A81508347FD252F27
:101300003A952083262F39F0441F00C000006083E7
:10131000000000C0F2CF38E04D91608300000197DB
:1013200061F7F0933202E093310249873B832C83CB
:1013300038C09081982B98879081809589238F83DE
:101340008F818E8388E08D8358856F8149853D81AB
:101350002E8189819A81508347FD252F00C000C0CE
:10136000208300C000C000C000C000C06083000037
:10137000262F3A9541F0441F000000C000C000C075
:1013800000C000C0E8CF38E04D9100C0608300C0CD
:10139000019709F7F0933202E093310249873D83C8
:1013A0002E839A83898378940E940D0860932D027E
:1013B00070932E0280932F029093300229960FB6DD
:1013C000F894DEBF0FBECDBFDF91CF911F910F917B
:1013D000089580EA31973197319700008A95D1F7C7
:1013E0000895229A239A259A2C9A089502D02A9831
:1013F00001C02A9A8FEF98E087FD2B9A87FF2B98E0
:10140000880F1C9983952D9A2D989A95A9F7089580
:10141000FB0183E080935700E8958091570080FDA1
:10142000FCCF81E180935700E89508950F921F92B9
:10143000FB01DA0190E40D901D9081E0809357004C
:10144000E89532969A95B9F7FB0185E080935700AD
:10145000E8958091570080FDFCCF81E18093570093
:10146000E8951F900F900895CF93DF93CDB7DEB727
:10147000E0970FB6F894DEBF0FBECDBF789484B569
:10148000826084BD84B5816084BD85B5826085BD80
:1014900085B5816085BD80916E00816080936E000E
:1014A0001092810080918100826080938100809100
:1014B00081008160809381008091800081608093B1
:1014C00080008091B10084608093B1008091B00071
:1014D00081608093B00080917A00846080937A006C
:1014E00080917A00826080937A0080917A00816096
:1014F00080937A0080917A00806880937A001092BD
:10150000C10014BE0FB6F894A89580916000886160
:1015100080936000109260000FBE8091250287FDCD
:1015200007C061E00E94D107809125020E94A908AE
:1015300081E0809320028091270290912802892BDC
:1015400011F00E943109E0919201F091930182E043
:101550008083E0918E01F0918F011082E0919001E3
:10156000F09191018FEC808310929A01E0919601A5
:10157000F091970186E08083E0919401F0919501CC
:10158000808180618083E0919401F0919501808158
:1015900088608083E0919401F0919501808180685A
:1015A0008083E0919401F091950180818F7D80830B
:1015B0008CE291E00E94230982E891E00E94D2012E
:1015C000CE01019698A78FA3382E94E0390E109281
:1015D000500110924F010E94F10914E60E94E9099E
:1015E0001150E1F71AE00E94F9091150E1F740E0CB
:1015F00050E0BA0180E40E94D802813009F09DC316
:101600004AEA51E060E070E088E40E94D80281304C
:1016100039F58E010F5F1F4F78010E94FA09F7011B
:1016200081937F013E12F9CF8B81813009F085C310
:101630008C818A3A09F081C3A0E1EA2EA7E2FA2E52
:1016400040E050E060E070E489EE0E94D802882318
:1016500041F10E94E909F1E0EF1AF10889F76DC341
:1016600040E050E0BA0189EE0E94D802823018F0C2
:1016700011E001E402C012E009EEF0E1EF2EF7E222
:10168000FF2E40E050E0BA01802F0E94D80288234C
:1016900009F449C30E94E909B1E0EB1AF10889F79E
:1016A0004CC340E050E0BA018AE70E94D8028111A1
:1016B00044C30E94FA09D8018D938D013A12F9CFE3
:1016C000898186FD02C014E001C01CE010934E0128
:1016D0000E94F909112309F47ACF40E050E0BA01E1
:1016E000CE0101960E946B03813009F500E110E004
:1016F0002EEB31E040E050E0BA01CE0101960E94AD
:101700001603892B19F001E010E0C1C08D81811111
:1017100003C006E010E0BBC089849A84AB84BC841B
:10172000B501A401CE0101960E946B0303C0812C78
:10173000912C5401833039F38111EBCF04E210E096
:101740002DE030E0B501A401CE0101960E94160300
:101750008C01892BC1F62A853B8540E050E021159C
:1017600031054105510521F4288D398D4A8D5B8D58
:10177000AC81B0E00E94C90F2B013C012A813B8162
:10178000A90160E070E0840E951EA61EB71E80922F
:101790005D0190925E01A0925F01B092600129818B
:1017A00020935501CD80DE80D0925801C092570120
:1017B0008F819885A0E0B0E00097A105B10521F4E4
:1017C0008C899D89AE89BF89E4E0D694C794EA9557
:1017D000E1F7E12CF12C841B950BA60BB70B8419B8
:1017E0009509A609B709BC01CD016C197D098E09BF
:1017F0009F0930E040E050E00E94A70FDA01C901E4
:101800000296A11DB11D8093590190935A01A09396
:101810005B01B0935C01BA01A901465F5F406109B9
:1018200071094F3F5F4E6105710508F088C2873F1F
:101830009F4FA105B10508F088C282E08093530153
:10184000833009F084C288A199A1AAA1BBA1809389
:10185000610190936201A0936301B0936401C80C8D
:10186000D91CEA1CFB1C4C0C5D1C6E1C7F1C40929E
:101870006501509266016092670170926801109252
:10188000540183E591E09093500180934F01012B27
:1018900009F09DCE80E291E00E94230982E891E068
:1018A0000E94D2010E942E068DB79EB79CA78BA7DF
:1018B00080917F0120908001309081019101220F61
:1018C000331F220E331E280E311CADB7BEB7A2192E
:1018D000B3090FB6F894BEBF0FBEADBFEDB7FEB7EC
:1018E0003196FAA7E9A7C0907D01D0907E010091C2
:1018F0004F01109150010115110509F4E6C0D801FE
:1019000011968C91119780FFE3C05A968D919D910D
:101910000D90BC91A02DE12CF12C8C159D05AE05F0
:10192000BF0510F46C017D01F80146885788608C72
:10193000718C168A178A108E118EC114D104E1049D
:10194000F10409F4C8C08280912CA12CB12C39E09B
:10195000880C991CAA1CBB1C3A95D1F74114510460
:101960006104710409F43FC0B1E04B1A51086108E9
:101970007108C701B6016150710981099109A5017A
:1019800094010E94A70F2DA73EA74FA758ABC301F4
:10199000B201A50194010E94A70F8DA59EA5AFA538
:1019A000B8A982179307A407B507E8F088279927F5
:1019B000DC0188199909AA09BB09482259226A221F
:1019C0007B22D80156964D925D926D927C925997EA
:1019D000C418D508E608F70892966D917D918D910F
:1019E0009C91959730C0F801668D778D80A191A16B
:1019F00062A373A384A395A326C00E94B20362309E
:101A000071058105910528F1F801468057806084B1
:101A100071846415750586059705D8F4F80162A3ED
:101A200073A384A395A346885788608C718C480C57
:101A3000591C6A1C7B1C468A578A608E718EC81896
:101A4000D908EA08FB088C149D04AE04BF04A8F270
:101A500004C0D80111961C9216C0F8018688978898
:101A6000A08CB18CC80CD91CEA1CFB1CC68AD78A76
:101A7000E08EF18E0E9423026115710581059105AA
:101A800029F4F801118281E090E027C029E0F69462
:101A9000E794D794C7942A95D1F7D80112962C9140
:101AA00030E0215031094901330FAA08BB08C82092
:101AB000D920EA20FB20C60ED71EE81EF91EF80129
:101AC000C6A2D7A2E0A6F1A606C085E090E005C0B8
:101AD00084E090E002C080E090E09EA38DA3892B7B
:101AE00009F442C0789486E291E00E94F0088EE208
:101AF00091E00E94F0080DA11EA10330110599F09C
:101B000048F401301105B9F002301105B9F484E54B
:101B100091E00EC00430110549F00630110571F452
:101B200083E791E005C08DE891E002C085E691E091
:101B30000E9423090AC081E491E0FACF81E391E099
:101B40000E940209C8010E94630F82E891E00E948E
:101B5000D20198E088E10FB6F894A89580936000D0
:101B60000FBE90936000FFCF00E010E0AE014F5F2A
:101B70005F4FB10189A59AA50E9432049EA38DA34F
:101B8000892B29F06AEB71E0CE01859614C089811A
:101B90009A818215930559F4E0918001F0918101B9
:101BA00020E0712F717087E2F82EF00E22C061EAFA
:101BB00071E0CE0101960E949902822F880F820F58
:101BC000A9A5BAA5A80FB11D12966C9112971196EE
:101BD0003C9111974C91772391F0E22EE00EAE2DBF
:101BE000B0E08091210290912202A817B90750F02D
:101BF0002F5F822F90E08E179F07F8F240C0EF2CE6
:101C0000E21AEDCF50912602552361F0659FC00185
:101C10001124692F359FC0011124392F459FA00140
:101C20001124452F50912C02D09029028091270237
:101C3000909128025D1106C053E0E59E800D911D34
:101C400011240AC0AA0FBB1FAA0FBB1F8A0F9B1F1C
:101C5000DC01A50FB11D1C9250912902DC01A50FDA
:101C6000B11D6C9350912A02DC01A50FB11D3C936C
:101C700030912B02DC01A30FB11D4C93B9CF1F5F34
:101C8000085D153009F072CF8091270290912802EB
:101C9000892B11F00E9431090E940D084B015C0153
:101CA00088ECC82ED12CE12CF12C0E940D08DC010F
:101CB000CB0188199909AA09BB09883E9340A1055F
:101CC000B10558F081E0C81AD108E108F10898EE92
:101CD000890E93E0991EA11CB11CC114D104E1042A
:101CE000F10419F780915101909152010197A0E000
:101CF000B0E04091690150916A0160916B0170916F
:101D00006C01481759076A077B0708F42DCF0E941A
:101D10002E068BA59CA50FB6F8949EBF0FBE8DBF57
:101D20000E94F401C1CD40E052E060E070E080E547
:101D30000E94D802882309F4C9CC10E0C7CC873FA1
:101D40009F4FA105B10508F4E4CC83E077CDD30122
:101D5000C201880D991DAA1DBB1D79CD8091270256
:101D600090912802009711F00E947E108091250228
:101D700087FD03C060E00C94D1070895CF93DF93F3
:101D8000109285011092840188EE93E0A0E0B0E00B
:101D90008093860190938701A0938801B093890175
:101DA0008BE091E0909383018093820185EC90E039
:101DB00090938F0180938E0184EC90E09093910139
:101DC0008093900180EC90E0909393018093920136
:101DD00081EC90E0909395018093940182EC90E0E7
:101DE000909397018093960186EC90E090939901EF
:101DF0008093980110929B0110929C0110929D017A
:101E000010929E01109220021092260210922D0232
:101E100010922E0210922F021092300281E08093D5
:101E20002C028093290210922A0292E090932B02B6
:101E300080931F02C8E5D2E0D0932402C09323020E
:101E400088E592E00E94E90F909328028093270290
:101E5000009769F0FC019E01119221503040E1F79A
:101E600088EC90E0909322028093210208C01092A7
:101E7000240210922302109222021092210283E186
:101E80008093250280912002882339F061E083E16C
:101E90000E94D10783E10E94A908EBE0F2E0E491FF
:101EA000F0E0EE0FFF1FE251FE4F85919491909369
:101EB000320280933102EDEEF1E0E491E0933302DF
:101EC000DF91CF910895CF92DF92EF92FF920F931F
:101ED0001F93CF93DF93CDB7DEB7A1970FB6F894DA
:101EE000DEBF0FBECDBF9C0140E050E019A28E01C5
:101EF0000F5D1F4F8AE0C82ED12CE12CF12CCA01B6
:101F0000B901A70196010E94A70F605DF8016293D5
:101F10008F01211531054105510589F7CF010E9437
:101F2000F0088C018EE291E00E94F008800F911F72
:101F3000A1960FB6F894DEBF0FBECDBFDF91CF9153
:101F40001F910F91FF90EF90DF90CF900895A1E245
:101F50001A2EAA1BBB1BFD010DC0AA1FBB1FEE1F23
:101F6000FF1FA217B307E407F50720F0A21BB30B6E
:101F7000E40BF50B661F771F881F991F1A9469F7EA
:101F800060957095809590959B01AC01BD01CF0146
:101F900008950E94DA0FA59F900DB49F900DA49F05
:101FA000800D911D11240895EE0FFF1F0590F491EF
:101FB000E02D0994A29FB001B39FC001A39F700DB3
:101FC000811D1124911DB29F700D811D1124911D41
:101FD0000895CF93DF938230910510F482E090E072
:101FE000E0913602F091370220E030E0C0E0D0E02E
:101FF000309711F14081518148175907C0F04817B7
:10200000590761F482819381209719F09B838A8319
:102010002BC0909337028093360226C021153105DC
:1020200019F04217530718F49A01BE01DF01EF01BE
:102030000280F381E02DDCCF2115310509F1281B49
:10204000390B2430310590F412968D919C911397A1
:102050006115710521F0FB019383828304C0909385
:10206000370280933602FD01329644C0FD01E20F33
:10207000F31F81939193225031092D933C933AC0E1
:102080002091340230913502232B41F42091030139
:1020900030910401309335022093340220910101E4
:1020A000309102012115310541F42DB73EB7409121
:1020B000050150910601241B350BE0913402F0918B
:1020C0003502E217F307A0F42E1B3F0B2817390740
:1020D00078F0AC014E5F5F4F2417350748F04E0F84
:1020E0005F1F50933502409334028193919302C055
:1020F000E0E0F0E0CF01DF91CF9108950F931F93BF
:10210000CF93DF93009709F48CC0FC0132971382C0
:10211000128200913602109137020115110581F4E7
:1021200020813181820F931F20913402309135023A
:102130002817390779F5F0933502E093340271C01E
:10214000D80140E050E0AE17BF0750F412962D9131
:102150003C911397AD012115310509F1D901F3CF58
:102160009D01DA013383228360817181860F971F7D
:102170008217930769F4EC0128813981260F371FF4
:102180002E5F3F4F318320838A819B81938382839B
:10219000452B29F4F0933702E093360242C01396A0
:1021A000FC93EE931297ED01499159919E01240FF2
:1021B000351FE217F30771F480819181840F951F19
:1021C000029611969C938E938281938113969C9391
:1021D0008E931297E0E0F0E0D80112968D919C91D9
:1021E0001397009719F0F8018C01F6CF8D919C910F
:1021F00098012E5F3F4F820F931F20913402309140
:1022000035022817390769F4309729F410923702FC
:102210001092360202C0138212821093350200938C
:102220003402DF91CF911F910F91089581E090E0EA
:10223000F8940C94F313AEE0B0E0E1E2F1E10C9419
:10224000CA130D891E8986E08C831A8309838FEF58
:102250009FE79E838D83AE01475E5F4F6F89788DC8
:10226000CE0101960E943E112F813885F801E20FC0
:10227000F31F10822E96E4E00C94E613ACE0B0E07D
:10228000E4E4F1E10C94BC137C016B018A01FC01D4
:1022900017821682838181FFBDC1CE0101964C0158
:1022A000F7019381F60193FD859193FF81916F0171
:1022B000882309F4ABC1853239F493FD859193FFEE
:1022C00081916F01853229F4B70190E00E942613B5
:1022D000E7CF512C312C20E02032A0F48B3269F072
:1022E00030F4803259F0833269F420612CC08D3291
:1022F00039F0803339F4216026C02260246023C085
:10230000286021C027FD27C030ED380F3A3078F41F
:1023100026FF06C0FAE05F9E300D1124532E13C035
:102320008AE0389E300D1124332E20620CC08E328C
:1023300021F426FD6BC1206406C08C3611F42068A0
:1023400002C0883641F4F60193FD859193FF819197
:102350006F018111C1CF982F9F7D9554933028F440
:102360000C5F1F4FFFE3F9830DC0833631F08337D5
:1023700071F0833509F05BC022C0F8018081898348
:102380000E5F1F4F44244394512C540115C0380153
:10239000F2E06F0E711CF801A080B18026FF03C02F
:1023A000652D70E002C06FEF7FEFC5012C870E94A2
:1023B0001B132C0183012C852F77222E17C0380187
:1023C000F2E06F0E711CF801A080B18026FF03C0FF
:1023D000652D70E002C06FEF7FEFC5012C870E9472
:1023E00010132C012C852068222E830123FC1BC096
:1023F000832D90E048165906B0F4B70180E290E0D2
:102400000E9426133A94F4CFF50127FC859127FE0C
:1024100081915F01B70190E00E94261331103A9438
:10242000F1E04F1A51084114510471F7E5C08436A8
:1024300011F0893639F5F80127FF07C060817181F5
:10244000828193810C5F1F4F08C060817181072ECC
:10245000000C880B990B0E5F1F4F2F76722E97FF83
:1024600009C090958095709561957F4F8F4F9F4FD4
:102470002068722E2AE030E0A4010E945E13A82E8C
:10248000A81844C0853729F42F7EB22E2AE030E008
:1024900025C0F22FF97FBF2E8F36C1F018F4883592
:1024A00079F0B4C0803719F0883721F0AFC02F2FF2
:1024B0002061B22EB4FE0DC08B2D8460B82E09C0F1
:1024C00024FF0AC09F2F9660B92E06C028E030E096
:1024D00005C020E130E002C020E132E0F801B7FEA3
:1024E00007C060817181828193810C5F1F4F06C09C
:1024F0006081718180E090E00E5F1F4FA4010E9417
:102500005E13A82EA818FB2DFF777F2E76FE0BC03A
:10251000372D3E7FA51450F474FE0AC072FC08C02B
:10252000372D3E7E05C0BA2C372D03C0BA2C01C012
:10253000B52C34FF0DC0FE01EA0DF11D8081803302
:1025400011F4397E09C032FF06C0B394B39404C0BD
:10255000832F867809F0B39433FD13C030FF06C093
:102560005A2CB31418F4530C5B18B32CB31468F43E
:10257000B70180E290E03C870E942613B3943C852B
:10258000F5CFB31410F43B1801C0312C34FF12C046
:10259000B70180E390E03C870E9426133C8532FF20
:1025A00017C031FD03C088E790E002C088E590E0E5
:1025B000B7010CC0832F867859F031FF02C08BE23F
:1025C00001C080E237FD8DE2B70190E00E94261342
:1025D000A51438F4B70180E390E00E9426135A94C2
:1025E000F7CFAA94F401EA0DF11D8081B70190E0C4
:1025F0000E942613A110F5CF332009F451CEB70164
:1026000080E290E00E9426133A94F6CFF70186818B
:10261000978102C08FEF9FEF2C96E2E10C94D813C4
:10262000FC010590615070400110D8F7809590959D
:102630008E0F9F1F0895FC016150704001900110A2
:10264000D8F7809590958E0F9F1F08950F931F9335
:10265000CF93DF93FB01238121FD03C08FEF9FEF19
:1026600028C022FF16C04681578124813581421738
:10267000530744F4A081B1819D012F5F3F4F318307
:1026800020838C93268137812F5F3F4F37832683AA
:1026900010C0EB01092F182F0084F185E02D09955A
:1026A000892BE1F68E819F8101969F838E83812FF6
:1026B000902FDF91CF911F910F910895FA01AA27D2
:1026C000283051F1203181F1E8946F936E7F6E5F75
:1026D0007F4F8F4F9F4FAF4FB1E03ED0B4E03CD023
:1026E000670F781F891F9A1FA11D680F791F8A1F06
:1026F000911DA11D6A0F711D811D911DA11D20D06D
:1027000009F468943F912AE0269F11243019305D26
:102710003193DEF6CF010895462F4770405D419317
:10272000B3E00FD0C9F7F6CF462F4F70405D4A3364
:1027300018F0495D31FD4052419302D0A9F7EACF2C
:10274000B4E0A6959795879577956795BA95C9F75B
:1027500000976105710508959B01AC010A2E06944E
:102760005795479537952795BA95C9F7620F731F07
:10277000841F951FA01D08952F923F924F925F9244
:102780006F927F928F929F92AF92BF92CF92DF9281
:10279000EF92FF920F931F93CF93DF93CDB7DEB7E6
:1027A000CA1BDB0B0FB6F894DEBF0FBECDBF09947A
:1027B0002A88398848885F846E847D848C849B84D1
:1027C000AA84B984C884DF80EE80FD800C811B81DF
:1027D000AA81B981CE0FD11D0FB6F894DEBF0FBE0E
:1027E000CDBFED01089511E0C7E0D1E004C0FE01C6
:1027F0000E94D40F2196C830D107C9F7F894FFCFB3
:1028000001000038028000000000008B017C0854A9
:102810000132014601D2012F25752F25752E424D1B
:1028200050002F2575005365656B696E67000D0AB2
:022830000000A6
:00000001FF
