:100000000C9453030C947B030C947B030C947B03A0
:100010000C947B030C947B030C947B030C947B0368
:100020000C947B030C947B030C947B030C947B0358
:100030000C947B030C947B030C947B030C947B0348
:100040000C94780B0C947B030C9400100C94DA0F36
:100050000C947B030C947B030C947B030C947B0328
:100060000C947B030C947B03556E6B6E6F776E2044
:100070004572726F7200534443617264206E6F74F4
:1000800020776F726B696E6700534443617264201E
:100090006E6F742072656164790046696C65206ECC
:1000A0006F74206F70656E00556E61626C652074B0
:1000B0006F2066696E642066696C65737973746518
:1000C0006D00556E61626C6520746F2066696E64A8
:1000D0002066696C650000000000003E5B4F5B3EDF
:1000E0003E6B4F6B3E1C3E7C3E1C183C7E3C181CFD
:1000F000577D571C1C5E7F5E1C00183C1800FFE7F4
:10010000C3E7FF0018241800FFE7DBE7FF30483A99
:10011000060E2629792926407F050507407F0525FB
:100120003F5A3CE73C5A7F3E1C1C08081C1C3E7F83
:1001300014227F22145F5F005F5F06097F017F004A
:100140006689956A606060606094A2FFA29408046A
:100150007E040810207E201008082A1C08081C2A8B
:1001600008081E101010100C1E0C1E0C30383E38E3
:1001700030060E3E0E06000000000000005F00008A
:100180000007000700147F147F14242A7F2A1223FB
:100190001308646236495620500008070300001C0B
:1001A0002241000041221C002A1C7F1C2A08083E14
:1001B0000808008070300008080808080000606027
:1001C0000020100804023E5149453E00427F400095
:1001D00072494949462141494D331814127F10276D
:1001E000454545393C4A49493141211109073649BC
:1001F000494936464949291E000014000000403490
:100200000000000814224114141414140041221494
:100210000802015909063E415D594E7C1211127CBB
:100220007F494949363E414141227F4141413E7F1C
:10023000494949417F090909013E414151737F08FC
:1002400008087F00417F41002040413F017F0814A2
:1002500022417F404040407F021C027F7F04081003
:100260007F3E4141413E7F090909063E4151215EE1
:100270007F09192946264949493203017F01033F75
:100280004040403F1F2040201F3F4038403F631404
:1002900008146303047804036159494D43007F4106
:1002A00041410204081020004141417F0402010243
:1002B0000440404040400003070800205454784068
:1002C0007F284444383844444428384444287F38FC
:1002D0005454541800087E090218A4A49C787F087E
:1002E00004047800447D40002040403D007F1028F9
:1002F000440000417F40007C047804787C080404BA
:10030000783844444438FC1824241818242418FC51
:100310007C08040408485454542404043F44243CF6
:100320004040207C1C2040201C3C4030403C442865
:100330001028444C9090907C4464544C44000836FF
:10034000410000007700000041360800020102046D
:10035000023C2623263C1EA1A161123A4040207A8D
:1003600038545455592155557941225454784221D5
:100370005554784020545579400C1E52721239550C
:100380005555593954545459395554545800004509
:100390007C410002457D420001457C407D121112E6
:1003A0007DF0282528F07C545545002054547C5479
:1003B0007C0A097F4932494949323A4444443A3235
:1003C0004A4848303A4141217A3A42402078009DDB
:1003D000A0A07D3D4242423D3D4040403D3C24FF87
:1003E0002424487E4943662B2FFC2F2BFF0929F636
:1003F00020C0887E090320545479410000447D4187
:100400003048484A32384040227A007A0A0A727DDF
:100410000D19317D2629292F2826292929263048FA
:100420004D4020380808080808080808382F10C868
:10043000ACBA2F102834FA00007B000008142A14EC
:100440002222142A14085500550055AA55AA55AA67
:10045000FF55FF55FF000000FF00101010FF0014B3
:100460001414FF001010FF00FF1010F010F014140F
:1004700014FC001414F700FF0000FF00FF1414F434
:1004800004FC141417101F10101F101F1414141F35
:1004900000101010F0000000001F101010101F10AE
:1004A000101010F010000000FF10101010101010AD
:1004B0001010FF10000000FF140000FF00FF0000FC
:1004C0001F10170000FC04F414141710171414F470
:1004D00004F40000FF00F714141414141414F700AB
:1004E000F7141414171410101F101F141414F414FC
:1004F0001010F010F000001F101F0000001F14006B
:100500000000FC140000F010F01010FF10FF141495
:1005100014FF141010101F00000000F010FFFFFF68
:10052000FFFFF0F0F0F0F0FFFFFF0000000000FF21
:10053000FF0F0F0F0F0F3844443844FC4A4A4A3427
:100540007E02020606027E027E026355494163383E
:1005500044443C04407E201E2006027E020299A5EF
:10056000E7A5991C2A492A1C4C7201724C304A4D4D
:100570004D303048784830BC625A463D3E49494982
:10058000007E0101017E2A2A2A2A2A44445F44442B
:1005900040514A444040444A51400000FF0103E0BA
:1005A00080FF000008086B6B083612362436060FF1
:1005B000090F06000018180000001010003040FF5E
:1005C0000101001F01011E00191D1712003C3C3CD7
:1005D0003C00000000000001020304050608090AAF
:1005E0000B0D0E1012131517191B1D202225272A7B
:1005F0002D3033373A3E4145494D52565B5F646971
:100600006E74797F858B91979DA4ABB2B9C0C7CF2B
:10061000D6DEE6EEF7FF000102030507090B0E1117
:1006200014181D22282E363D464F59646F7C899739
:10063000A6B6C7D9EBFF00000000240027002A005F
:100640004E65787446696C652829006E6578744635
:10065000696C652829004865726500000000080083
:100660000201000003040700000000000000000178
:100670000204081020408001020408102001020436
:1006800008102000000000250028002B00040404AE
:10069000040404040402020202020203030303032B
:1006A0000300B916681111241FBECFEFD8E0DEBFDA
:1006B000CDBF11E0A0E0B1E0E8E6F8E302C00590AC
:1006C0000D92AC3AB107D9F722E0ACEAB1E001C033
:1006D0001D92AF3CB207E1F713E0C2E5D3E004C0DE
:1006E0002197FE010E940818C135D107C9F70E9461
:1006F0007E110C94271C0C9400008F929F92AF9255
:10070000BF92CF92DF92EF92FF920F931F93CF93FE
:10071000DF93FC014A01AA24BB24B82DC32ED42E9A
:10072000E52EFF24AC2D922F8781882361F0889ECF
:1007300040011124B92DC89E60011124AD2D289FC0
:10074000E00111249D2FD584C285E084F184DC1260
:1007500008C09B01220F331F620F731F6E0D7F1D98
:1007600016C0660F771F660F771F6E0D7F1D052F52
:10077000112722273327EB01CD0DD11D882329F026
:10078000089F90011124232F01C0202F28838285E8
:10079000EB01C80FD11DB8838385EB01C80FD11DB4
:1007A000A8838485FB01E80FF11D9083DF91CF9131
:1007B0001F910F91FF90EF90DF90CF90BF90AF907F
:1007C0009F908F900895FC01EF2FFF27E695E69507
:1007D000E695EA5EF94F2491FC0135E0F695E79540
:1007E0003A95E1F7EF73FF27EA52FA4F64918F7160
:1007F0009927FC01EA5EF94FE491862F90E0A0E092
:10080000B0E0BA2FA92F982F8827A22BBC01CD01C9
:100810006E2B08958F929F92AF92BF92CF92DF92EC
:10082000EF92FF920F931F93CF93DF938C01CB0135
:10083000F80122AD222329F086A897A8A0ACB1AC7C
:1008400004C00E94E3034B015C016801FAE1CF0E92
:10085000D11CF801E48CF58CC0E0D0E0CE15DF05AA
:1008600071F0F801848D958DC817D90730F4A50172
:100870009401BE01C6010E947D032196EFCFDF9156
:10088000CF911F910F91FF90EF90DF90CF90BF908D
:10089000AF909F908F9008954F925F926F927F924A
:1008A0008F929F92AF92BF92CF92DF92EF92FF9280
:1008B0000F931F93CF93DF938C01EB017A015901C2
:1008C00077FD2CC157FD2AC1DC0118968D919C91B2
:1008D0001997681779070CF021C11A968D919C9190
:1008E0001B97481759070CF019C155968C915597CD
:1008F000823071F08330E1F0813011F514968D91E2
:100900009C9115970197841B950B7B01EC0118C0F6
:10091000F8018481958101979C01261B370BE90121
:10092000868197810197DC01A41BB50B7D0108C06E
:10093000F801868197810197861B970BEA017C015C
:10094000D801D496ED91FC91D597309739F0B70145
:10095000CE010995EC01C12CD12CB2C0F80147A5FC
:10096000F42FF3707F2ED801D2966C90D297662028
:1009700009F464C0D0964C90842C912CCE01B40123
:100980000E94B3176B01F80151A8252D30E0C70173
:10099000B9010E94B317FB01C89CC001C99C900D0E
:1009A000D89C900D1124C81BD90B629FC001639F76
:1009B000900D729F900D1124E81AF90A45FF07C0A7
:1009C000862D90E001979C012C193D09690144FF97
:1009D00007C0D801D396EC91F0E03197E61BF70BF6
:1009E00046FD08C0262D30E09E2F8F2FF601C92E20
:1009F000D82E05C0D801D3966C90262D30E047FF45
:100A000009C0C0FE07C083E07826E095F095BFEFEF
:100A1000CB1ADB0A2C9DC0012D9D900D3C9D900DA5
:100A20001124E80FF91F549C200111244E9E6001EF
:100A30004F9ED00C5E9ED00C112402C0C12CD12C34
:100A40009E01C70171FE09C0F80160A970E0615004
:100A50007109DB01AC1BBD0B9D0170FE06C0F801E6
:100A600081A990E001978E199F09D80142FD09C024
:100A7000D096EC91F0E0682F592FC901262F352F21
:100A800003C0D196EC91F0E043FF11C020FF0FC0EE
:100A900080959095E9012196CE9F9001CF9F300DD2
:100AA000DE9F300D1124EC01C20FD31F09C0E29F5D
:100AB000E001E39FD00DF29FD00D1124C80FD91F84
:100AC000F80182AD882329F026A937A940AD51ADA0
:100AD00005C0C5010E94E3039B01AC01C6018C0F58
:100AE0009D1FD8015C966D917C915D978617970745
:100AF000A8F4BC01C8014A96DF91CF911F910F91D4
:100B0000FF90EF90DF90CF90BF90AF909F908F902D
:100B10007F906F905F904F900C947D03DF91CF9109
:100B20001F910F91FF90EF90DF90CF90BF90AF900B
:100B30009F908F907F906F905F904F900895089551
:100B4000FC016370658B84819581268137816130DA
:100B500039F0633029F091878087338722870895A1
:100B6000318720879387828708952F923F924F92F3
:100B70005F926F927F928F929F92AF92BF92CF922D
:100B8000DF92EF92FF920F931F93CF93DF93CDB736
:100B9000DEB76C970FB6F894DEBF0FBECDBF9C8F4B
:100BA0008B8F1B012A0118870F83FE82ED82CA8278
:100BB000DC0158964D915C9159974115510509F00A
:100BC000B2C018968D919C911997681779070CF00F
:100BD00096C11A968D919C911B97481659060CF058
:100BE0008EC1AC2CB12CCB01B6E0CB9E800D911DFB
:100BF0001124181619060CF082C1C50133E0880FC4
:100C0000991F3A95E1F7840D951D181619060CF0F9
:100C100076C1AB8DBC8D57968C91811103C0203B62
:100C200008F02F5FAB8DBC8DED91FC911197068084
:100C3000F781E02DCD012A8F09952A8DB5E02B9FF4
:100C400090011124610141011B82F901E219F309AC
:100C5000FA87E9879201285F3F4F3C872B873B81CA
:100C6000353049F0E985FA85E80DF91DEA52FF4F64
:100C70004491498301C0198232011201598150FF08
:100C800013C0AB8DBC8DED91FC91BA81B13031F4C4
:100C90000084F185E02D2F81388519C00284F38509
:100CA000E02DEF80F8841EC0ED81FE812F81388514
:100CB000E217F307F1F0AB8DBC8DED91FC91BA8199
:100CC000B13059F40084F185E02D2D813E81A301DE
:100CD000B4018B8D9C8D09950CC00284F385E02DA9
:100CE000ED80FE8085019501A101B6018B8D9C8D63
:100CF0000995E981E695E983FFEF6F1A7F0A2A0CCF
:100D00003B1C2B853C856216730609F0B7CF3B81EF
:100D10003F5F3B834FEF841A940ACA0CDB1C3630CA
:100D200009F09DCFCAC0FA0134969491329765912B
:100D30007491291BCB01B7E02B9F800D911D1124CD
:100D4000FA01259134913A8B298BFC0165907490BE
:100D5000FC01329634913D83319644914B87329613
:100D6000C490319614915A81523058F08C2C0C2C2E
:100D7000000C9908812F012E000C990B9C838B830A
:100D800004C01C821B82812C912CAB8DBC8DED91FB
:100D9000FC9111970680F781E02DCD010995BA816C
:100DA000AB2EB12C8A9CC0018B9C900D9A9C900D0F
:100DB0001124FC01E20DF31DF88BEF871982912CB1
:100DC000812CEC2DCC0CFF0B91012E0F3F1F3A878D
:100DD000298761013D81C30ED11CA6014E0F5F1F03
:100DE0005F8B4E8BC201810F911D17FD9A95998FD4
:100DF000888F5B85851608F060C0882D90E04B8158
:100E00005C81480F591F4A9D90014B9D300D5A9DA2
:100E1000300D1124D901A40DB51DBE87AD87C9843D
:100E2000DA842F843888B981E985BE1BBB8B288D75
:100E3000398D280F391F3D8B2C8B8B898C0D2E897A
:100E40003F89C216D30699F1877041F4C301019618
:100E5000E989FA89E60DF71D94903C0197FE20C0C0
:100E6000AB8DBC8DED91FC91BA81B13061F4008401
:100E7000F185E02D2F8138854C895D89B6018B8DF8
:100E80009C8D09950DC00284F385E02DEF80F884D8
:100E9000850195014D855E85B1018B8D9C8D0995F0
:100EA000990CEFEFCE1ADE0A2A0C3B1CC6CF398113
:100EB0004D81340F398383949CCFAB8DBC8DED91E4
:100EC000FC9111970288F389E02DCD016C960FB645
:100ED000F894DEBF0FBECDBFDF91CF911F910F9170
:100EE000FF90EF90DF90CF90BF90AF909F908F904A
:100EF0007F906F905F904F903F902F9009946C96E9
:100F00000FB6F894DEBF0FBECDBFDF91CF911F911A
:100F10000F91FF90EF90DF90CF90BF90AF909F9098
:100F20008F907F906F905F904F903F902F9008959B
:100F3000AF92BF92CF92EF92FF920F931F93CF93F6
:100F4000DF93EC01262F888D998D009709F042C020
:100F50006A3069F42C898E859F8538E0239F800D47
:100F6000911D11249F878E871D861C86ACC06D3015
:100F700009F4A9C08E898823C1F03C898C859D85A0
:100F800046E0349F800D911D1124488559858417B2
:100F900095075CF01D861C868E859F85E8E03E9F48
:100FA000800D911D11249F878E87EA88FB88088910
:100FB00019894E855F856C857D85CC88CE010E9420
:100FC000B5052C898C859D85F6E02F9F800D911DA0
:100FD000112441C06A3079F41D861C862C89FC01DD
:100FE0003696E4918E859F852E9F800D911D11244C
:100FF0009F878E8768C06D3009F465C0AC014C5F77
:101000005F4FFA013491631708F45DC03196E491A3
:10101000E61708F458C0FA014491362F341BFC013E
:101020003296A590B490F7E03F9FA00CB11C11241C
:10103000F501329634913196E491332311F0E111A8
:101040000DC0F5013496E4912C898C859D85E29F35
:10105000800D911D11249D878C8735C0F501359633
:1010600044915E89552311F16C89E32FF0E0E40F80
:10107000F11D47FDFA956E9FD0016F9FB00D1124B1
:101080004C855D854A0F5B1FE885F9854E175F0724
:101090006CF01D861C86FC013696E4918E859F853A
:1010A0006E9F800D911D11249F878E87EA88FB8893
:1010B000088919894E855F856C857D85CC88CE0130
:1010C0000E94B505BECF81E090E0DF91CF911F91E6
:1010D0000F91FF90EF90CF90BF90AF9008956F92D7
:1010E0007F928F929F92AF92BF92CF92DF92EF92B8
:1010F000FF920F931F93CF93DF93EC014B015A01A3
:1011000069013801E881F9810680F781E02D0995B0
:10111000E881F9810684F785E02D87019601A50114
:10112000B401CE010995E881F981A501460D571D4D
:10113000415051090684F785E02D9601B401CE0196
:101140000995E881F9810484F585E02D9301A501D5
:10115000B401CE010995E881F981C80CD91CB6010A
:10116000615071090484F585E02D9301A501CE013C
:101170000995E881F9810288F389E02DCE01DF919C
:10118000CF911F910F91FF90EF90DF90CF90BF9084
:10119000AF909F908F907F906F900994AF92BF9285
:1011A000CF92DF92EF92FF920F931F93CF93DF9333
:1011B00000D000D0CDB7DEB75C016901DC01ED9154
:1011C000FC916217730781F4008CF18DE02D0417F8
:1011D00015071CF0CA01980102C09A01C801281B1A
:1011E000390B2F5F3F4F14C04017510719F59B0172
:1011F0006C157D050CF49601CB01C616D7060CF4D0
:10120000C601281B390B2F5F3F4F028CF38DE02D59
:101210008701C50109950F900F900F900F90DF91F6
:10122000CF911F910F91FF90EF90DF90CF90BF90E3
:10123000AF9008950680F781E02D4B835C8369832E
:101240007A830995D501ED91FC910088F189E02D13
:1012500096014B815C8169817A81C5010995D5012F
:10126000ED91FC910288F389E02DC5010F900F905C
:101270000F900F90DF91CF911F910F91FF90EF9002
:10128000DF90CF90BF90AF900994EF92FF920F93B1
:101290001F93DC01ED91FC9111971A960D911C9111
:1012A0001B9718962D913C911997048CF58DE02D84
:1012B0007B0140E050E060E070E009951F910F91E4
:1012C000FF90EF9008954F925F926F927F928F926E
:1012D0009F92AF92BF92CF92DF92EF92FF920F93C5
:1012E0001F93CF93DF9300D0CDB7DEB76C015A01C7
:1012F00039014801DC01ED91FC910680F781E02D78
:1013000069837A8309956981462E7A81572E640C08
:10131000751CD601ED91FC91461457046CF40484BD
:10132000F585E02D87019401A501B201C60109955B
:10133000BFEF4B1A5B0AEDCF0288F389E02DC6019F
:101340000F900F90DF91CF911F910F91FF90EF9031
:10135000DF90CF90BF90AF909F908F907F906F90D5
:101360005F904F900994AF92BF92CF92DF92EF922D
:10137000FF920F931F93CF93DF9300D000D0CDB790
:10138000DEB75C016901DC01ED91FC910680F7811B
:10139000E02D4B835C8369837A830995D501ED91B8
:1013A000FC9169817A819B012C0D3D1D21503109F1
:1013B0000088F189E02D78014B815C818A01C501AB
:1013C0000995D501ED91FC910288F389E02DC501C5
:1013D0000F900F900F900F90DF91CF911F910F9171
:1013E000FF90EF90DF90CF90BF90AF900994AF92B5
:1013F000BF92CF92DF92EF92FF920F931F93CF9302
:10140000DF9300D000D0CDB7DEB75C016901DC010D
:10141000ED91FC910680F781E02D4B835C8369831D
:101420007A830995D501ED91FC914B815C81C40EC5
:10143000D51EB1E0CB1AD1080088F189E02D7801E2
:10144000860169817A819B01C5010995D501ED91DC
:10145000FC910288F389E02DC5010F900F900F9049
:101460000F90DF91CF911F910F91FF90EF90DF9040
:10147000CF90BF90AF9009940895EF92FF920F9391
:101480001F93DC01ED91FC91048CF58DE02D099505
:101490001F910F91FF90EF9008950F931F93DC0120
:1014A000ED91FC91028CF38DE02D09951F910F9128
:1014B00008950F931F93DC01ED91FC91008CF18D49
:1014C000E02D09951F910F910895DC01ED91FC919C
:1014D0000480F581E02D099408952F923F924F9258
:1014E0005F926F927F928F929F92AF92BF92CF92B4
:1014F000DF92EF92FF920F931F93CF93DF9300D071
:101500001F92CDB7DEB74C017B836A836A01590114
:1015100017019801241B350B37FF03C03195219526
:101520003109C5014A815B81841B950B97FF03C07C
:1015300091958195910951E059838217930714F091
:1015400019820BC09A2D8B2D5801092F182F9A81C3
:101550008B81DB82CA82C92ED82E8A819B81A816F4
:10156000B9065CF49C2D8D2D6801092F182F9A81E6
:101570008B81BB82AA82A92EB82E2501AA81BB81AC
:101580004A1A5B0A38016C187D0877FE03C0719413
:1015900061947108720157FE03C0BFEFEB1AFB0A9A
:1015A000F594E794C016D1061CF00FEF1FEF1FC093
:1015B00001E010E01CC0D401ED91FC91B9810084E0
:1015C000F185E02D9101BB23C1F04A815B81B60119
:1015D000C4010995E618F708F7FE04C0C00ED11E35
:1015E000E40CF51CEA81FB813196FB83EA834A8196
:1015F0005B81A416B506FCF604C0A6016A817B8156
:10160000E7CF0F900F900F90DF91CF911F910F9127
:10161000FF90EF90DF90CF90BF90AF909F908F9012
:101620007F906F905F904F903F902F900895CF9351
:10163000DF9390E0FC01E159F94F2491FC01E3575D
:10164000F94F8491882361F190E0880F991FFC0184
:10165000EA5CF94FC591D491FC01ED57F94FA59182
:10166000B491611109C09FB7F894888120958223B5
:101670008883EC912E230BC0623061F49FB7F894FD
:101680003881822F809583238883EC912E2B2C9395
:101690009FBF06C08FB7F894E8812E2B28838FBF99
:1016A000DF91CF9108953FB7F8948091B101909167
:1016B000B201A091B301B091B40126B5A89B05C0B9
:1016C0002F3F19F00196A11DB11D3FBFBA2FA92FC1
:1016D000982F8827820F911DA11DB11DBC01CD013E
:1016E00042E0660F771F881F991F4A95D1F708952A
:1016F0001F920F920FB60F9211242F933F938F9347
:101700009F93AF93BF938091AD019091AE01A09153
:10171000AF01B091B0013091AC0123E0230F2D3720
:1017200020F40196A11DB11D05C026E8230F0296E5
:10173000A11DB11D2093AC018093AD019093AE012A
:10174000A093AF01B093B0018091B1019091B2012B
:10175000A091B301B091B4010196A11DB11D809378
:10176000B1019093B201A093B301B093B401BF91C2
:10177000AF919F918F913F912F910F900FBE0F903E
:101780001F9018950F931F93E091B601F091B70148
:101790002081233049F4FC014489558960E070E0E0
:1017A000BA015527442703C040E050E0BA01FC01CC
:1017B000828D938DA0E0B0E08A019B01082B192B4C
:1017C0002A2B3B2BC901B8011F910F9108950F934C
:1017D0001F93E091B601F091B7019B01AC0122503B
:1017E00031094109510986819781A085B185029708
:1017F000A109B109281739074A075B0768F4A281D4
:10180000B0E00E94E9170289138924893589600FA5
:10181000711F821F931F03C060E070E0CB011F9116
:101820000F9108950F931F93CF93DF93DC01E09105
:10183000B601F091B70111961C921E9214966D910B
:101840007D918D919C91179761307105810591056E
:1018500069F106811781208531856017710782073C
:10186000930720F5611571058105910539F42081F3
:10187000233021F46685778580899189ED01688719
:1018800079878A879B87611571058105910519F014
:101890000E94E70B04C066857785808991896C87F3
:1018A0007D878E879F8780E090E002C081E090E096
:1018B000DF91CF911F910F910895FF920F931F9386
:1018C000CF93DF93C82FD42F152F062FF72E87FF26
:1018D00009C040E050E0BA0187E70E945D0C823009
:1018E00020F5CF770E942A118C2F0E942F118F2D67
:1018F0000E942F11802F0E942F11812F0E942F11E3
:101900008D2F0E942F11C03421F0C83421F487E8B4
:1019100003C085E901C081E00E942F11CAE00E9446
:101920002E1187FF02C0C150D1F7DF91CF911F91D7
:101930000F91FF900895CF92DF92EF92FF920F9355
:101940001F93CF93DF93D82EC92E79018091B501D3
:1019500083FD07C089E0440F551F661F771F8A95D6
:10196000D1F781E50E945D0C882319F0C1E0D0E039
:101970002BC0C0E4DCE90E942E118F3F19F421979F
:10198000D1F7F4CF8E3F91F7C2E0D2E0C01BD10B6C
:10199000CE19DF09E114F10419F4ED2CFC2C06C07A
:1019A0000E942E1181E0E81AF108F4CF0E942E1156
:1019B000F70181937F0101501109C1F70E942E1197
:1019C0002197E1F7C0E0D0E00E942D11CE01DF9118
:1019D000CF911F910F91FF90EF90DF90CF900895DE
:1019E000CF92DF92EF92FF920F931F93CF93DF93EB
:1019F000EC016A017B0102E010E02EEF31E00E9471
:101A00009B0C892B31F58881998185359A4A19F586
:101A100026E330E0B701A601CE010E949B0C892B82
:101A200039F4888199818634914411F480E016C09C
:101A300002E010E022E530E0B701A601CE010E94ED
:101A40009B0C892B51F4888199818634914429F427
:101A5000EDCF83E003C082E001C081E0DF91CF9150
:101A60001F910F91FF90EF90DF90CF900895CF924C
:101A7000DF92EF92FF920F931F93CF93DF9300D0EB
:101A800000D0CDB7DEB7E091B601F091B70162307A
:101A900071058105910508F459C0C680D780E0849E
:101AA000F1846C157D058E059F0508F04FC02081DF
:101AB000223019F0233001F149C09B013327220F56
:101AC000331FBB27A92F982F872FC284D384E48488
:101AD000F584AC01BD014C0D5D1D6E1D7F1D02E046
:101AE00010E0CE0101960E949B0C892B79F569814B
:101AF0007A8180E090E02EC09B012F773327220F60
:101B0000331F220F331FDC01CB0157E0B695A79599
:101B1000979587955A95D1F7C284D384E484F58448
:101B2000AC01BD014C0D5D1D6E1D7F1D04E010E07C
:101B3000CE0101960E949B0C892B41F489819A81E8
:101B4000AB81BC81BC01CD019F7004C061E070E03D
:101B500080E090E00F900F900F900F90DF91CF9169
:101B60001F910F91FF90EF90DF90CF9008955F92BB
:101B70006F927F928F929F92AF92BF92CF92DF929D
:101B8000EF92FF920F931F93CF93DF93EC015B01D2
:101B9000242F952FDA018D91AD018032C9F3C22E29
:101BA000D92E8F3219F4BFEFCB1ADB0A1C821D82AB
:101BB0001E821F82F6018081803238F0A0E25A2E08
:101BC0004501FBE08F0E911C52C0CE010E94120C09
:101BD0007C01D5011C92E2C080E090E028E031E079
:101BE000390FD601A90FB11D9C91913208F04AC05E
:101BF000C30ED11C81E0913208F080E08387CE01D2
:101C00000E94120C7C01892B09F0C8C028813981FF
:101C10002F703327F5E0220F331FFA95E1F74C853B
:101C20005D856E857F8500E210E0C5010E949B0CFA
:101C3000892B09F0A5C0F5018081882309F4A4C08F
:101C4000438543FD3CC06A817B819B01E815F90512
:101C500049F5DB011B968C918111A0C044FF94C013
:101C6000C5010E94C20B6C837D838E839F83EA81B2
:101C7000FB81DF01CF010B96A817B90709F4ACCFA0
:101C80005D92FACF9F3209F4B3CF9E3209F480C03F
:101C9000821708F0ADCFDF01A80FB11D9C938F5FB5
:101CA000932F9DCF8191D9015D919D01082E000C4C
:101CB000990B851B910957FD9395892B39F26090FB
:101CC000B6017090B701088119810F5F1F4F09F4A9
:101CD0005BC04C855D856E857F854115510561052D
:101CE000710509F451C0C8018F709927892B09F03B
:101CF00044C04F5F5F4F6F4F7F4F4C875D876E874C
:101D00007F87688579858A859B8561157105810541
:101D1000910539F4F3018481958108171907A0F51D
:101D20002CC0D30112962C9130E0A90141505109E9
:101D30009801E4E036952795EA95E1F724233523C9
:101D4000232BD9F40E94370D62307105810591056E
:101D5000B8F0F301268137814085518562177307FA
:101D60008407950788F4688779878A879B870E940C
:101D7000E70B6C877D878E879F871983088346CF03
:101D8000EE24E394F12C0AC083E0E82EF12C06C087
:101D9000283009F02DCF88E02BE082CFC701DF91FA
:101DA000CF911F910F91FF90EF90DF90CF90BF9058
:101DB000AF909F908F907F906F905F900895EC010F
:101DC000CB0178940E94B610888199818330910567
:101DD00089F040F48130910599F00297A1F489E8E7
:101DE00090E013C08430910541F0069761F488EAD1
:101DF00090E00BC082EC90E008C08AE990E005C05A
:101E000086E790E002C088E690E00E94B61083EF7B
:101E100091E00E94AC0FFFCFFC01918D828D98174D
:101E200061F0828DDF01A80FB11D5D968C91928DBE
:101E30009F5F9F73928F90E008958FEF9FEF0895BB
:101E4000FC01918D828D981731F0828DE80FF11D84
:101E5000858D90E008958FEF9FEF0895FC01918D9F
:101E6000228D892F90E0805C9F4F821B91098F7398
:101E70009927089583EF91E00E942E0F21E0892B8E
:101E800009F420E0822F0895FC01848DDF01A80F62
:101E9000B11DA35ABF4F2C91848D90E001968F7392
:101EA0009927848FA689B7892C93A089B1898C91B1
:101EB00080648C93938D848D981306C00288F38977
:101EC000E02D80818F7D80830895EF92FF920F93A4
:101ED0001F93CF93DF93EC0181E0888F9B8D8C8DD6
:101EE000981305C0E889F989808185FD24C0F62E04
:101EF0000B8D10E00F5F1F4F0F731127E02E8C8D9D
:101F0000E8120CC00FB607FCFACFE889F989808186
:101F100085FFF5CFCE010E94440FF1CF8B8DFE01DE
:101F2000E80FF11DE35AFF4FF0820B8FEA89FB891E
:101F30008081806207C0EE89FF896083E889F98922
:101F400080818064808381E090E0DF91CF911F9158
:101F50000F91FF90EF900895CF93DF93EC01888D60
:101F60008823C9F0EA89FB89808185FD05C0A8899D
:101F7000B9898C9186FD0FC00FB607FCF5CF808123
:101F800085FFF2CFA889B9898C9185FFEDCFCE016D
:101F90000E94440FE7CFDF91CF91089580E090E059
:101FA000892B29F00E943A0F81110C9400000895AA
:101FB0000E944A191F920F920FB60F9211242F936D
:101FC0003F934F935F936F937F938F939F93AF93C1
:101FD000BF93EF93FF9383EF91E00E94440FFF9133
:101FE000EF91BF91AF919F918F917F916F915F9191
:101FF0004F913F912F910F900FBE0F901F9018950A
:102000001F920F920FB60F9211242F938F939F93CD
:10201000EF93FF93E0910302F09104028081E0913D
:102020000902F0910A0282FD12C0908180910C0297
:102030008F5F8F7320910D02821751F0E0910C0297
:10204000F0E0ED50FE4F958F80930C0201C080812F
:10205000FF91EF919F918F912F910F900FBE0F9055
:102060001F901895CF92DF92EF92FF920F931F93DC
:10207000CF93DF936C017A018B01C0E0D0E0CE15E5
:10208000DF0589F0D8016D918D01D601ED91FC91AC
:102090000190F081E02DC6010995892B11F47E0194
:1020A00002C02196ECCFC701DF91CF911F910F9114
:1020B000FF90EF90DF90CF90089590E0FC01E55AFB
:1020C000F94F2491FC01E159F94F3491FC01E35798
:1020D000F94FE491EE23B9F1222339F1233091F045
:1020E00038F42130A9F0223001F584B58F7D12C07B
:1020F000273091F02830A1F02430B9F4809180008D
:102100008F7D03C0809180008F77809380000DC009
:1021100084B58F7784BD09C08091B0008F7703C0EC
:102120008091B0008F7D8093B000F0E0EE0FFF1F34
:10213000ED57F94FA591B4918FB7F894EC91309584
:102140003E233C938FBF0895009769F0FC010190F6
:102150000020E9F73197AF01481B590BBC0183EF11
:1021600091E00C94321080E090E008950F931F935B
:10217000CF93DF938C01C0E0D0E0F801EC0FFD1F9E
:102180006491662371F0E091F301F091F401019004
:10219000F081E02D83EF91E00995892B11F02196D4
:1021A000ECCF89E791E00E94A4108C0F9D1FDF9176
:1021B000CF911F910F9108958F929F92AF92BF92EE
:1021C0000F931F93CF93DF93CDB7DEB7A1970FB6D1
:1021D000F894DEBF0FBECDBF19A2423008F44AE02A
:1021E0008E010F5D1F4F842E912CA12CB12CA501C7
:1021F00094010E94C717E62FB901CA0101501109C5
:10220000EA3014F4E05D01C0E95CD801EC93232BC3
:10221000242B252B61F7C8010E94A410A1960FB6AC
:10222000F894DEBF0FBECDBFDF91CF911F910F910C
:10223000BF90AF909F908F90089580EA319731972B
:10224000319700008A95D1F70895559A539A549A78
:102250005A9A089502D05D9801C05D9A8FEF98E078
:1022600087FD5B9A87FF5B98880F4A9983955C9AF4
:102270005C989A95A9F70895FB0183E08093570035
:10228000E8958091570080FDFCCF81E18093570055
:10229000E89508950F921F92FB01DA0190E40D90EA
:1022A0001D9081E080935700E89532969A95B9F792
:1022B000FB0185E080935700E8958091570080FDF1
:1022C000FCCF81E180935700E8951F900F9008950F
:1022D00083E491E090939102809390028091B20206
:1022E0009091B302009711F00E94B2188091B00251
:1022F00087FD03C060E00C94170B0895CF93DF9324
:10230000CDB7DEB7C956D1090FB6F894DEBF0FBE00
:10231000CDBF789484B5826084BD84B5816084BD6E
:1023200085B5826085BD85B5816085BD80916E0073
:10233000816080936E0010928100809181008260A4
:1023400080938100809181008160809381008091E1
:1023500080008160809380008091B10084608093D0
:10236000B1008091B00081608093B00080917A00CC
:10237000846080937A0080917A00826080937A00F2
:1023800080917A00816080937A0080917A008068E1
:1023900080937A001092C1008091B00287FD07C03F
:1023A00061E00E94170B8091B0020E945D1081E0F5
:1023B0008093AB028091B2029091B302892B09F411
:1023C000DFC00E94530B0091B8021091B902209116
:1023D000BA023091BB02DC01CB01801B910BA20B36
:1023E000B30BC297A105B10560F3F8948091AE02DA
:1023F0009091AF0267969FAF8EAF6797E091B20260
:10240000F091B302DF01119680816E968FAF6E97C7
:102410009091AA02E091BC02F091BD028091BE02AF
:10242000992309F44AC09081982B6D969FAF6D97C0
:102430009081809589236C968FAF6C976C968FAD49
:102440006C9769968FAF699788E068968FAF6897A9
:102450006D965FAD6D976C966FAD6C976E964FAD48
:102460006E9768963FAD689769962FAD69976796A6
:102470008EAD9FAD6797508347FD252F3A952083FA
:10248000262F39F0441F00C000006083000000C008
:10249000F2CF38E04D9160830000019761F7F0932F
:1024A000BD02E093BC026E964FAF6E9768963FAF49
:1024B000689769962FAF699754C09081982B6D9655
:1024C0009FAF6D979081809589236C968FAF6C97A5
:1024D0006C968FAD6C976B968FAF6B9788E06A9612
:1024E0008FAF6A976D965FAD6D976C966FAD6C9779
:1024F0006E964FAD6E976A963FAD6A976B962FAD0D
:102500006B9767968EAD9FAD6797508347FD252FDC
:1025100000C000C0208300C000C000C000C000C0D8
:1025200060830000262F3A9541F0441F000000C050
:1025300000C000C000C000C0E8CF38E04D9100C02E
:10254000608300C0019709F7F093BD02E093BC02DD
:102550006E964FAF6E976A963FAF6A976B962FAFA6
:102560006B9767969FAF8EAF679778940E94530BD7
:102570006093B8027093B9028093BA029093BB0241
:10258000E0910302F091040282E08083E091FF0178
:10259000F09100021082E0910102F09102028FECB2
:1025A000808310920B02E0910702F091080286E00E
:1025B0008083E0910502F091060280818061808332
:1025C000E0910502F0910602808188608083E091AD
:1025D0000502F0910602808180688083E091050207
:1025E000F091060280818F7D808386E596E00E94CF
:1025F000B61083EF91E00E94AC0F9E012F5F3F4F1A
:102600007901B4E0DB2ED20E1092B7011092B60120
:102610000E94251114E60E941D111150E1F71AE0E5
:102620000E942D111150E1F740E050E0BA0180E422
:102630000E945D0C813009F081C34AEA51E060E0FC
:1026400070E088E40E945D0C813029F58701570114
:102650000E942E11D5018D935D01DA12F9CF8B8185
:10266000813009F06BC38C818A3A09F067C3A0E11D
:10267000AA2EA7E2BA2E40E050E060E070E489EEB6
:102680000E945D0C882341F10E941D11B1E0AB1A3C
:10269000B10889F753C340E050E0BA0189EE0E94C7
:1026A0005D0C823018F011E001E402C012E009EE86
:1026B000F0E1AF2EF7E2BF2E40E050E0BA01802FEC
:1026C0000E945D0C882309F42FC30E941D11F1E0C4
:1026D000AF1AB10889F732C340E050E0BA018AE787
:1026E0000E945D0C81112AC30E942E11F801819372
:1026F0008F01DE12F9CF898186FD02C014E001C08E
:102700001CE01093B5010E942D11112309F47CCF18
:1027100040E050E0BA01C7010E94F00C8130F9F4AA
:1027200000E110E02EEB31E040E050E0BA01C701DB
:102730000E949B0C892B19F001E010E0F4C08D8100
:10274000811103C006E010E0EEC049845A846B8416
:102750007C84B301A201C7010E94F00C03C0412C8C
:10276000512C3201833041F38111ECCF04E210E0AF
:102770002DE030E0B301A201C7010E949B0C8C0147
:10278000892BD1F62A853B8540E050E021153105A3
:102790004105510521F4288D398D4A8D5B8DAC8121
:1027A000B0E00E94E917A2966CAF7DAF8EAF9FAFED
:1027B000A2978A819B814C01A12CB12CA6968CAE4C
:1027C0009DAEAEAEBFAEA697480C591C6A1C7B1CD2
:1027D0004092D3015092D4016092D5017092D601FB
:1027E00029812093CB018D809E809092CE01809292
:1027F000CD016F817885AB0160E070E04115510536
:102800006105710521F44C895D896E897F89E4E059
:1028100096948794EA95E1F7C401A0E0B0E0AA9607
:102820008CAF9DAFAEAFBFAFAA974A015B01A69632
:102830008CAD9DADAEADBFADA697881A990AAA0A18
:10284000BB0AD501C401A2968CAC9DACAEACBFACAA
:10285000A29788199909AA09BB09BC01CD01AA96BA
:102860008CAC9DACAEACBFACAA97681979098A094B
:102870009B0930E040E050E00E94C717DA01C9012F
:102880000296A11DB11D8093CF019093D001A0931A
:10289000D101B093D201BA01A901465F5F4061093D
:1028A00071094F3F5F4E6105710508F049C2873FCE
:1028B0009F4FA105B10508F049C282E08093C9018C
:1028C000833009F045C288A199A1AAA1BBA1809338
:1028D000D7019093D801A093D901B093DA01AA96B9
:1028E0008CAC9DACAEACBFACAA97840C951CA61C5E
:1028F000B71CA2964CAD5DAD6EAD7FADA297840EB8
:10290000951EA61EB71E8092DB019092DC01A0925C
:10291000DD01B092DE011092CA0189EC91E0909342
:10292000B7018093B601012B09F06ECE8091C801EA
:102930008F5F8093C8016E0155E3C50ED11C5E0107
:1029400065E4A60EB11C4E0175E2870E911C4CE7A2
:10295000442E41E0542E8091C8011F928F938091A4
:1029600000011F928F9387E691E09F938F93DF92F0
:10297000CF920E944F196090B6017090B7010FB6C8
:10298000F894DEBF0FBECDBF6114710459F1D301BD
:1029900011961C92B8A6AFA2A601B701C4010E946D
:1029A000B70D009711F58981882309F18C8584FD85
:1029B0001EC0C7010E94C20BF301668F778F80A3F0
:1029C00091A38D8D9E8DAF8DB8A1828F938FA48F93
:1029D000B58F168A178A108E118E81E0818300E0F0
:1029E00010E007C005E010E004C08C0102C003E065
:1029F00010E065961FAF0EAF659782E791E00E94E9
:102A0000A410C6010E94A41089E791E00E94A410BE
:102A10000330110509F071C0809100018F5F809330
:102A2000000133243394809100011F928F935F92B1
:102A30004F92BF92AF920E944F19409100010F90A8
:102A40000F900F900F900F900F908091B601909182
:102A5000B701892B21F19092BB018092BA0150E01D
:102A6000B70188EB91E00E94B70D3C01892BD1F4AE
:102A70008981882309F477C18C8584FF0CC0C70144
:102A80000E94C20B6093BC017093BD018093BE0194
:102A90009093BF0168C133E0632E712C03C025E021
:102AA000622E712C63967FAE6EAE639780E891E0E4
:102AB0000E94A4106091000170E080E090E04AE084
:102AC0000E94DC1089E791E00E94A410B3E06B162D
:102AD000710419F43092000109C06114710431F0DD
:102AE00060E476E0CE018F5A9F4F0FC0672809F44B
:102AF0009ACF81E08093C8010AC00115110539F011
:102B00006BE476E0CE018D5A9F4F0E94DF0E012BC1
:102B100009F421CFC090B601D090B7011092010006
:102B200010920000C114D10409F4A9C0F6018181FA
:102B300080FFA5C0828D938DA48DB58D4689578960
:102B4000608D718D841B950BA60BB70B8A31910597
:102B5000A105B10510F45C0103C09AE1A92EB12CC6
:102B6000812C82E0982EA114B10409F488C0F601EA
:102B700086899789A08DB18DAC01BD015170662702
:102B80007727452B462B472B09F042C01281115065
:102B9000AC01BD0109E076956795579547950A9573
:102BA000D1F71423F1F4892B8A2B8B2B29F4668D12
:102BB000778D80A191A106C062A173A184A195A186
:102BC0000E94370D623071058105910518F4F601F8
:102BD000118255C0D60192966D937D938D939C93EF
:102BE0009597F60162A173A184A195A10E94E70BBC
:102BF000611571058105910521F1DC01CB01810F82
:102C0000911DA11DB11DF60186A397A3A0A7B1A791
:102C1000D60156962D913C9157973170C401821B75
:102C2000930B35018A159B0508F43C01F60146A17A
:102C300057A160A571A58301C7010E949B0C892B38
:102C400021F0D60111961C921AC0F6018689978947
:102C5000A08DB18D860D971DA11DB11D868B978B03
:102C6000A08FB18FE60CF71CA618B708E0E0F0E0E3
:102C700000811181060D171D1183008374CF0C850F
:102C800010E0102F00278B85082BEC88F12CFE2CF0
:102C9000EE248B89E82A888D90E0982F88272F8949
:102CA0006C01C22A86E891E00E94A410B80180E07D
:102CB00090E04AE00E94DC108FE891E00E94A410AE
:102CC000B70180E090E04AE00E94DC1088E991E0E2
:102CD0000E94A410B60180E090E04AE00E94DC105F
:102CE00089E791E00E94A41082EA91E00E94A4107A
:102CF00088E18E9DB0018F9D700D1124615E7F4F24
:102D000035E0769567953A95E1F7660F660F70E0C6
:102D100080E090E04AE00E94DC1083EF91E00E94A6
:102D2000AC0F0E94CE0FFDCF40E052E060E070E0BB
:102D300080E50E945D0C882309F4E3CC10E0E1CC2F
:102D4000873F9F4FA105B10508F4FCCC83E0B6CDC9
:102D5000A2968CAD9DADAEADBFADA297840D951D75
:102D6000A61DB71DB4CD88EB91E00E94120C3C016A
:102D700099CECF93DF931092F6011092F50188EE71
:102D800093E0A0E0B0E08093F7019093F801A09366
:102D9000F901B093FA018BE091E09093F4018093F4
:102DA000F30185EC90E0909300028093FF0184ECA6
:102DB00090E0909302028093010280EC90E0909367
:102DC00004028093030281EC90E0909306028093CA
:102DD000050282EC90E0909308028093070286EC53
:102DE00090E090930A028093090210920C021092D4
:102DF0000D0210920E0210920F0210929302109286
:102E000092028BE191E090939102809390022EE1E7
:102E100030E030939502209394028AE090E0909302
:102E20009702809396023093990220939802909390
:102E30009B0280939A021092A50210929D0210921A
:102E40009C0210929F0210929E0281E08093A40245
:102E50002FEF3FEF3093A3022093A2023093A10201
:102E60002093A0028093A6021092A7021092A902BA
:102E70001092A8021092AB021092B1021092B80206
:102E80001092B9021092BA021092BB028093B7025C
:102E90008093B4021092B50292E09093B6028093B0
:102EA000AA02C4E8D3E0D093AF02C093AE0284E894
:102EB00093E00E941D189093B3028093B202009792
:102EC00069F0FC019E01119221503040E1F78CE243
:102ED00091E09093AD028093AC0208C01092AF02D3
:102EE0001092AE021092AD021092AC028AE0809372
:102EF000B0028091AB02882339F061E08AE00E9441
:102F0000170B8AE00E945D10E7E9F6E0E491F0E03B
:102F1000EE0FFF1FED57F94F859194919093BD02ED
:102F20008093BC02E9E7F6E0E491E093BE0283E41B
:102F300091E0909391028093900289E08093BF0288
:102F40008EE18093C0028AE08093C1021092C20297
:102F50001092C3021092C5021092C4021092CA02CB
:102F6000DF91CF91089597FB072E16F4009407D0B8
:102F700077FD09D00E94F41707FC05D03EF4909528
:102F800081959F4F0895709561957F4F0895A1E2B7
:102F90001A2EAA1BBB1BFD010DC0AA1FBB1FEE1FD3
:102FA000FF1FA217B307E407F50720F0A21BB30B1E
:102FB000E40BF50B661F771F881F991F1A9469F79A
:102FC00060957095809590959B01AC01BD01CF01F6
:102FD00008950E940E18A59F900DB49F900DA49F78
:102FE000800D911D11240895AA1BBB1B51E107C040
:102FF000AA1FBB1FA617B70710F0A61BB70B881F89
:10300000991F5A95A9F780959095BC01CD01089517
:10301000EE0FFF1F0590F491E02D0994A29FB001DF
:10302000B39FC001A39F700D811D1124911DB29FFC
:10303000700D811D1124911D0895CF93DF9382306F
:10304000910510F482E090E0E091CD02F091CE0283
:1030500020E030E0C0E0D0E0309711F140815181B4
:1030600048175907C0F04817590761F482819381C6
:10307000209719F09B838A832BC09093CE02809374
:10308000CD0226C02115310519F04217530718F457
:103090009A01BE01DF01EF010280F381E02DDCCF58
:1030A0002115310509F1281B390B2430310590F425
:1030B00012968D919C9113976115710521F0FB017A
:1030C0009383828304C09093CE028093CD02FD014E
:1030D000329644C0FD01E20FF31F81939193225079
:1030E00031092D933C933AC02091CB023091CC0210
:1030F000232B41F420910301309104013093CC0241
:103100002093CB022091010130910201211531055C
:1031100041F42DB73EB74091050150910601241BA3
:10312000350BE091CB02F091CC02E217F307A0F44B
:103130002E1B3F0B2817390778F0AC014E5F5F4F0D
:103140002417350748F04E0F5F1F5093CC02409371
:10315000CB028193919302C0E0E0F0E0CF01DF91D8
:10316000CF9108950F931F93CF93DF93009709F4A6
:103170008CC0FC013297138212820091CD02109113
:10318000CE020115110581F420813181820F931F38
:103190002091CB023091CC022817390779F5F093B2
:1031A000CC02E093CB0271C0D80140E050E0AE17F2
:1031B000BF0750F412962D913C911397AD01211544
:1031C000310509F1D901F3CF9D01DA01338322835F
:1031D00060817181860F971F8217930769F4EC0154
:1031E00028813981260F371F2E5F3F4F318320837F
:1031F0008A819B8193838283452B29F4F093CE02AD
:10320000E093CD0242C01396FC93EE931297ED012A
:10321000499159919E01240F351FE217F30771F46C
:1032200080819181840F951F029611969C938E93B5
:103230008281938113969C938E931297E0E0F0E045
:10324000D80112968D919C911397009719F0F8016F
:103250008C01F6CF8D919C9198012E5F3F4F820F8C
:10326000931F2091CB023091CC022817390769F4C3
:10327000309729F41092CE021092CD0202C0138230
:1032800012821093CC020093CB02DF91CF911F9159
:103290000F91089581E090E0F8940C94271CAEE023
:1032A000B0E0E5E5F9E10C94FE1B0D891E8986E08E
:1032B0008C831A8309838FEF9FE79E838D83AE01F2
:1032C000475E5F4F6F89788DCE0101960E9472191B
:1032D0002F813885F801E20FF31F10822E96E4E06B
:1032E0000C941A1CACE0B0E0E8E7F9E10C94F01B98
:1032F0007C016B018A01FC0117821682838181FFA8
:10330000BDC1CE0101964C01F7019381F60193FDF9
:10331000859193FF81916F01882309F4ABC18532B8
:1033200039F493FD859193FF81916F01853229F4E2
:10333000B70190E00E945A1BE7CF512C312C20E0BE
:103340002032A0F48B3269F030F4803259F08332AD
:1033500069F420612CC08D3239F0803339F421605A
:1033600026C02260246023C0286021C027FD27C01A
:1033700030ED380F3A3078F426FF06C0FAE05F9E51
:10338000300D1124532E13C08AE0389E300D1124C5
:10339000332E20620CC08E3221F426FD6BC12064D6
:1033A00006C08C3611F4206802C0883641F4F6015C
:1033B00093FD859193FF81916F018111C1CF982F6A
:1033C0009F7D9554933028F40C5F1F4FFFE3F983E2
:1033D0000DC0833631F0833771F0833509F05BC05F
:1033E00022C0F801808189830E5F1F4F44244394DB
:1033F000512C540115C03801F2E06F0E711CF80118
:10340000A080B18026FF03C0652D70E002C06FEF81
:103410007FEFC5012C870E944F1B2C0183012C8557
:103420002F77222E17C03801F2E06F0E711CF801C1
:10343000A080B18026FF03C0652D70E002C06FEF51
:103440007FEFC5012C870E94441B2C012C8520682E
:10345000222E830123FC1BC0832D90E048165906C1
:10346000B0F4B70180E290E00E945A1B3A94F4CF86
:10347000F50127FC859127FE81915F01B70190E05E
:103480000E945A1B31103A94F1E04F1A510841142E
:10349000510471F7E5C0843611F0893639F5F80129
:1034A00027FF07C060817181828193810C5F1F4F6C
:1034B00008C060817181072E000C880B990B0E5F8C
:1034C0001F4F2F76722E97FF09C0909580957095AB
:1034D00061957F4F8F4F9F4F2068722E2AE030E01A
:1034E000A4010E94921BA82EA81844C0853729F475
:1034F0002F7EB22E2AE030E025C0F22FF97FBF2EBA
:103500008F36C1F018F4883579F0B4C0803719F0DF
:10351000883721F0AFC02F2F2061B22EB4FE0DC02E
:103520008B2D8460B82E09C024FF0AC09F2F96609F
:10353000B92E06C028E030E005C020E130E002C02E
:1035400020E132E0F801B7FE07C06081718182811D
:1035500093810C5F1F4F06C06081718180E090E015
:103560000E5F1F4FA4010E94921BA82EA818FB2DCE
:10357000FF777F2E76FE0BC0372D3E7FA51450F4CB
:1035800074FE0AC072FC08C0372D3E7E05C0BA2CFE
:10359000372D03C0BA2C01C0B52C34FF0DC0FE017D
:1035A000EA0DF11D8081803311F4397E09C032FFAC
:1035B00006C0B394B39404C0832F867809F0B39403
:1035C00033FD13C030FF06C05A2CB31418F4530C4B
:1035D0005B18B32CB31468F4B70180E290E03C8729
:1035E0000E945A1BB3943C85F5CFB31410F43B18DA
:1035F00001C0312C34FF12C0B70180E390E03C875A
:103600000E945A1B3C8532FF17C031FD03C088E77A
:1036100090E002C088E590E0B7010CC0832F867867
:1036200059F031FF02C08BE201C080E237FD8DE22C
:10363000B70190E00E945A1BA51438F4B70180E34B
:1036400090E00E945A1B5A94F7CFAA94F401EA0D15
:10365000F11D8081B70190E00E945A1BA110F5CFA7
:10366000332009F451CEB70180E290E00E945A1B4A
:103670003A94F6CFF7018681978102C08FEF9FEFD2
:103680002C96E2E10C940C1CFC01059061507040FA
:103690000110D8F7809590958E0F9F1F0895FC011B
:1036A0006150704001900110D8F7809590958E0F71
:1036B0009F1F08950F931F93CF93DF93FB012381E7
:1036C00021FD03C08FEF9FEF28C022FF16C0468167
:1036D0005781248135814217530744F4A081B18179
:1036E0009D012F5F3F4F318320838C93268137814B
:1036F0002F5F3F4F3783268310C0EB01092F182F10
:103700000084F185E02D0995892BE1F68E819F815A
:1037100001969F838E83812F902FDF91CF911F91F0
:103720000F910895FA01AA27283051F1203181F133
:10373000E8946F936E7F6E5F7F4F8F4F9F4FAF4FB9
:10374000B1E03ED0B4E03CD0670F781F891F9A1FCC
:10375000A11D680F791F8A1F911DA11D6A0F711D80
:10376000811D911DA11D20D009F468943F912AE08C
:10377000269F11243019305D3193DEF6CF01089574
:10378000462F4770405D4193B3E00FD0C9F7F6CFA5
:10379000462F4F70405D4A3318F0495D31FD40526D
:1037A000419302D0A9F7EACFB4E0A6959795879503
:1037B00077956795BA95C9F70097610571050895E2
:1037C0009B01AC010A2E069457954795379527958E
:1037D000BA95C9F7620F731F841F951FA01D089526
:1037E0002F923F924F925F926F927F928F929F9211
:1037F000AF92BF92CF92DF92EF92FF920F931F93FF
:10380000CF93DF93CDB7DEB7CA1BDB0B0FB6F894AF
:10381000DEBF0FBECDBF09942A88398848885F84EF
:103820006E847D848C849B84AA84B984C884DF8060
:10383000EE80FD800C811B81AA81B981CE0FD11D44
:103840000FB6F894DEBF0FBECDBFED01089513E0B3
:10385000C2E5D3E004C0FE010E9408182196C335DA
:08386000D107C9F7F894FFCF6E
:10386800010000CF02800000000000650F32102E1A
:103878000F0C0F200FAC0F0000000098073210D873
:103888000F6C0A650A3D0A590A4D0A6D0A3C0AA0DE
:10389800059F05F709B30963094509CE086F0800B4
:1038A800000000980732104C046C0A650A3D0A595A
:1038B8000A4D0A6D0A3C0AA0059F05F709B309637A
:1038C800090A04CE086F082F25752F25752E424D3D
:1038D800500046696C653A20000D0A002F257500D6
:1038E8004469723A20004F66667365743A20002076
:1038F80057696474683A2000204865696768743AB3
:0C390800200050616464696E673A200082
:00000001FF
