:100000000C9408010C9430010C9430010C943001D4
:100010000C9430010C9430010C9430010C9430019C
:100020000C9430010C9430010C9430010C9430018C
:100030000C9430010C9430010C9430010C9430017C
:100040000C9449040C9430010C9416030C94F002A7
:100050000C9430010C9430010C9430010C9430015C
:100060000C9430010C9430015364204D6F756E7404
:10007000656421004865726500556E6B6E6F776E22
:10008000204572726F723A200053444361726420BB
:100090006E6F7420776F726B696E670053444361B3
:1000A0007264206E6F742072656164790046696CB9
:1000B00065206E6F74206F70656E00556E61626CA6
:1000C0006520746F2066696E642066696C6573795B
:1000D0007374656D00556E61626C6520746F206687
:1000E000696E642066696C650052656164696E675B
:1000F00020726F773A206F7574206F662066696C86
:10010000650052656164696E6720726F7700000058
:1001100000080002010000030407000000000000C6
:100120000000010204081020408001020408102091
:1001300001020408102000000000250028002B0008
:10014000040404040404040402020202020203037D
:10015000030303034E65787446696C652829006EB5
:1001600065787446696C65282900436F756C642056
:100170006E6F742066696E6420666972737420669F
:10018000696C6520696E206E65787446696C6528B7
:100190002900556E6B6E6F776E204572726F723AE2
:1001A0002000534443617264206E6F7420776F7235
:1001B0006B696E6700534443617264206E6F7420F4
:1001C00072656164790046696C65206E6F74206F9A
:1001D00070656E00556E61626C6520746F20666993
:1001E0006E642066696C6573797374656D00556E15
:1001F00061626C6520746F2066696E642066696C4C
:10020000650000000000240027002A00290A4B0F87
:1002100011241FBECFEFD8E0DEBFCDBF11E0A0E0BC
:10022000B1E0E8E6F7E202C005900D92A233B10713
:10023000D9F722E0A2E3B1E001C01D92A633B207D4
:10024000E1F711E0C7E0D1E004C02197FE010E9470
:10025000880FC630D107C9F70E94CE0A0C94A713A5
:100260000C94000090E0FC01E25FFE4F2491FC0141
:10027000EE5DFE4F3491FC01E05CFE4FE491EE2315
:10028000B9F1222339F1233091F038F42130A9F06B
:10029000223001F584B58F7D12C0273091F02830CF
:1002A000A1F02430B9F4809180008F7D03C080914B
:1002B00080008F77809380000DC084B58F7784BDD8
:1002C00009C08091B0008F7703C08091B0008F7D0E
:1002D0008093B000F0E0EE0FFF1FEA5CFE4FA591A7
:1002E000B4918FB7F894EC9130953E233C938FBF37
:1002F0000895CF92DF92EF92FF920F931F93CF93C7
:10030000DF936C017A018B01C0E0D0E0CE15DF05F0
:1003100089F0D8016D918D01D601ED91FC9101908C
:10032000F081E02DC6010995892B11F47E0102C0F0
:100330002196ECCFC701DF91CF911F910F91FF90D4
:10034000EF90DF90CF9008958AE391E00E946A03D6
:1003500021E0892B09F420E0822F0895009769F0AD
:10036000FC0101900020E9F73197AF01481B590BC0
:10037000BC018AE391E00C94790180E090E008955B
:100380000F931F93CF93DF93CDB7DEB729970FB6A7
:10039000F894DEBF0FBECDBF0E9424040091E5019A
:1003A0001091E6012091E7013091E801DC01CB01D9
:1003B000801B910BA20BB30BC297A105B10560F393
:1003C000F8948091DB019091DC019A838983E0911C
:1003D000DF01F091E001DF01119680818987909122
:1003E000D701E091E901F091EA018091EB019923B5
:1003F00009F42EC09081982B98879081809589234D
:100400008F838F818C8388E08B8358856F814985AA
:100410003B812C8189819A81508347FD252F3A9514
:100420002083262F39F0441F00C0000060830000A5
:1004300000C0F2CF38E04D9160830000019761F772
:10044000F093EA01E093E90149873B832C8338C0AC
:100450009081982B98879081809589238F838F81B5
:100460008E8388E08D8358856F8149853D812E81FB
:1004700089819A81508347FD252F00C000C02083C9
:1004800000C000C000C000C000C060830000262F74
:100490003A9541F0441F000000C000C000C000C0F9
:1004A00000C0E8CF38E04D9100C0608300C00197E4
:1004B00009F7F093EA01E093E90149873D832E8330
:1004C0009A83898378940E9424046093E501709351
:1004D000E6018093E7019093E80129960FB6F8941E
:1004E000DEBF0FBECDBFDF91CF911F910F91089559
:1004F0000E94CA10EF92FF920F931F93CF93DF9346
:10050000EC0181E0888F9B8D8C8D981305C0E88964
:10051000F989808185FD24C0F62E0B8D10E00F5FD8
:100520001F4F0F731127E02E8C8DE8120CC00FB6F1
:1005300007FCFACFE889F989808185FFF5CFCE01E4
:100540000E94A503F1CF8B8DFE01E80FF11DE35A48
:10055000FF4FF0820B8FEA89FB898081806207C0A0
:10056000EE89FF896083E889F989808180648083CE
:1005700081E090E0DF91CF911F910F91FF90EF907C
:1005800008950F931F93CF93DF938C01C0E0D0E0C9
:10059000F801EC0FFD1F6491662371F0E0913A01C0
:1005A000F0913B010190F081E02D8AE391E0099503
:1005B000892B11F02196ECCFCE01DF91CF911F91C5
:1005C0000F910895CF93DF930E94C102EC0187E160
:1005D00091E00E94AE018C0F9D1FDF91CF91089595
:1005E0001F920F920FB60F9211242F933F934F93A8
:1005F0005F936F937F938F939F93AF93BF93EF938B
:10060000FF938AE391E00E94A503FF91EF91BF91D0
:10061000AF919F918F917F916F915F914F913F919A
:100620002F910F900FBE0F901F9018951F920F9251
:100630000FB60F9211242F938F939F93EF93FF93F5
:10064000E0914A01F0914B018081E0915001F091DD
:10065000510182FD12C09081809153018F5F8F7391
:1006600020915401821751F0E0915301F0E0E65CD3
:10067000FE4F958F8093530101C08081FF91EF91D0
:100680009F918F912F910F900FBE0F901F901895F3
:10069000FC01918D828D981761F0828DDF01A80F8A
:1006A000B11D5D968C91928D9F5F9F73928F90E0AC
:1006B00008958FEF9FEF0895FC01918D828D98171B
:1006C00031F0828DE80FF11D858D90E008958FEF58
:1006D0009FEF0895FC01918D228D892F90E0805C21
:1006E0009F4F821B91098F739927089580E090E0B6
:1006F000892B29F00E94A40181110C940000089517
:100700000F931F93E0913301F09134012081233046
:1007100049F4FC014489558960E070E0BA0155272D
:10072000442703C040E050E0BA01FC01828D938D64
:10073000A0E0B0E08A019B01082B192B2A2B3B2B50
:10074000C901B8011F910F910895FC01848DDF014B
:10075000A80FB11DA35ABF4F2C91848D90E0019634
:100760008F739927848FA689B7892C93A089B18923
:100770008C9180648C93938D848D981306C002882D
:10078000F389E02D80818F7D80830895CF93DF935F
:10079000EC01888D8823C9F0EA89FB89808185FD79
:1007A00005C0A889B9898C9186FD0FC00FB607FCDA
:1007B000F5CF808185FFF2CFA889B9898C9185FF1B
:1007C000EDCFCE010E94A503E7CFDF91CF91089531
:1007D000CF93DF9390E0FC01EE5DFE4F2491FC018E
:1007E000E05CFE4F8491882361F190E0880F991FAF
:1007F000FC01EE5FFD4FC591D491FC01EA5CFE4F18
:10080000A591B491611109C09FB7F8948881209592
:1008100082238883EC912E230BC0623061F49FB752
:10082000F8943881822F809583238883EC912E2B36
:100830002C939FBF06C08FB7F894E8812E2B288396
:100840008FBFDF91CF9108953FB7F89480912E022A
:1008500090912F02A0913002B091310226B5A89B51
:1008600005C02F3F19F00196A11DB11D3FBFBA2F42
:10087000A92F982F8827820F911DA11DB11DBC01A2
:10088000CD0142E0660F771F881F991F4A95D1F767
:1008900008951F920F920FB60F9211242F933F933A
:1008A0008F939F93AF93BF9380912A0290912B02D5
:1008B000A0912C02B0912D023091290223E0230F48
:1008C0002D3720F40196A11DB11D05C026E8230F88
:1008D0000296A11DB11D2093290280932A029093B4
:1008E0002B02A0932C02B0932D0280912E029091A6
:1008F0002F02A0913002B09131020196A11DB11DCD
:1009000080932E0290932F02A0933002B093310275
:10091000BF91AF919F918F913F912F910F900FBEFB
:100920000F901F9018950F931F93E0913301F09152
:1009300034019B01AC0122503109410951098681E2
:100940009781A085B1850297A109B10928173907B8
:100950004A075B0768F4A281B0E00E947D0F02891C
:10096000138924893589600F711F821F931F03C06B
:1009700060E070E0CB011F910F9108950F931F93DA
:10098000CF93DF93DC01E0913301F09134011196B4
:100990001C921E9214966D917D918D919C9117974A
:1009A000613071058105910569F106811781208506
:1009B0003185601771078207930720F5611571056E
:1009C0008105910539F42081233021F466857785EE
:1009D00080899189ED01688779878A879B8761156E
:1009E00071058105910519F00E94930404C0668584
:1009F0007785808991896C877D878E879F8780E046
:100A000090E002C081E090E0DF91CF911F910F91C3
:100A10000895FF920F931F93CF93DF93C82FD42F86
:100A2000152F062FF72E87FF09C040E050E0BA01CE
:100A300087E70E940905823020F5CF770E94EB09F5
:100A40008C2F0E94F0098F2D0E94F009802F0E94A8
:100A5000F009812F0E94F0098D2F0E94F009C03407
:100A600021F0C83421F487E803C085E901C081E0A2
:100A70000E94F009CAE00E94EF0987FF02C0C1503E
:100A8000D1F7DF91CF911F910F91FF900895CF92F1
:100A9000DF92EF92FF920F931F93CF93DF93D82EA5
:100AA000C92E79018091320183FD07C089E0440F8E
:100AB000551F661F771F8A95D1F781E50E940905AA
:100AC000882319F0C1E0D0E02BC0C0E4DCE90E942B
:100AD000EF098F3F19F42197D1F7F4CF8E3F91F7AB
:100AE000C2E0D2E0C01BD10BCE19DF09E114F10442
:100AF00019F4ED2CFC2C06C00E94EF0981E0E81AE5
:100B0000F108F4CF0E94EF09F70181937F010150B2
:100B10001109C1F70E94EF092197E1F7C0E0D0E089
:100B20000E94EE09CE01DF91CF911F910F91FF90AE
:100B3000EF90DF90CF900895CF92DF92EF92FF92E7
:100B40000F931F93CF93DF93EC016A017B0102E0C7
:100B500010E02EEF31E00E944705892B31F58881A6
:100B6000998185359A4A19F526E330E0B701A60147
:100B7000CE010E944705892B39F4888199818634FA
:100B8000914411F480E016C002E010E022E530E06C
:100B9000B701A601CE010E944705892B51F4888137
:100BA00099818634914429F4EDCF83E003C082E03B
:100BB00001C081E0DF91CF911F910F91FF90EF90E5
:100BC000DF90CF900895CF92DF92EF92FF920F9334
:100BD0001F93CF93DF9300D000D0CDB7DEB7E09165
:100BE0003301F0913401623071058105910508F4FB
:100BF00059C0C680D780E084F1846C157D058E05D0
:100C00009F0508F04FC02081223019F0233001F1F8
:100C100049C09B013327220F331FBB27A92F982FD1
:100C2000872FC284D384E484F584AC01BD014C0DCC
:100C30005D1D6E1D7F1D02E010E0CE0101960E9439
:100C40004705892B79F569817A8180E090E02EC093
:100C50009B012F773327220F331F220F331FDC0115
:100C6000CB0157E0B695A795979587955A95D1F7FB
:100C7000C284D384E484F584AC01BD014C0D5D1DB8
:100C80006E1D7F1D04E010E0CE0101960E94470515
:100C9000892B41F489819A81AB81BC81BC01CD0152
:100CA0009F7004C061E070E080E090E00F900F90D2
:100CB0000F900F90DF91CF911F910F91FF90EF90C8
:100CC000DF90CF9008954F925F926F927F928F92B4
:100CD0009F92AF92BF92CF92DF92EF92FF920F93CB
:100CE0001F93CF93DF934C016B015A01C0913301E5
:100CF000D0913401FA0111821082209709F4A1C029
:100D0000898180FFA1C08A8D9B8DAC8DBD8D4E8960
:100D10005F89688D798D841B950BA60BB70BA60197
:100D200060E070E084179507A607B70708F46C0128
:100D30003401412C32E0532EC114D10409F47EC099
:100D40008E899F89A88DB98DAC01BD015170662730
:100D50007727452B462B472BD1F5FA80FA94AC0127
:100D6000BD0129E076956795579547952A95D1F766
:100D7000F422C1F4892B8A2B8B2B29F46E8D7F8D65
:100D800088A199A106C06AA17BA18CA19DA10E9406
:100D9000E3056230710581059105A0F16AA37BA38B
:100DA0008CA39DA36AA17BA18CA19DA10E94930409
:100DB000611571058105910529F1DC01CB018F0DCC
:100DC000911DA11DB11D8EA39FA3A8A7B9A72E8910
:100DD0003F893170C201821B930B76018C159D05F2
:100DE00008F47C014EA15FA168A579A58114910446
:100DF00011F0C30102C080E090E087010E94470526
:100E0000892B21F0198281E090E020C08E899F8992
:100E1000A88DB98D8E0D9F1DA11DB11D8E8B9F8B31
:100E2000A88FB98F6E0C7F1CCE18DF08F50180816A
:100E30009181E80EF91EF182E0827ECF80E090E0A1
:100E400005C085E090E002C084E090E0DF91CF91A2
:100E50001F910F91FF90EF90DF90CF90BF90AF90D8
:100E60009F908F907F906F905F904F9008955F92CA
:100E70006F927F928F929F92AF92BF92CF92DF92AA
:100E8000EF92FF920F931F93CF93DF93EC015B01DF
:100E9000242F952FDA018D91AD018032C9F3C22E36
:100EA000D92E8F3219F4BFEFCB1ADB0A1C821D82B8
:100EB0001E821F82F6018081803238F0A0E25A2E15
:100EC0004501FBE08F0E911C52C0CE010E94BE0472
:100ED0007C01D5011C92E2C080E090E028E031E086
:100EE000390FD601A90FB11D9C91913208F04AC06B
:100EF000C30ED11C81E0913208F080E08387CE01DF
:100F00000E94BE047C01892B09F0C8C02881398168
:100F10002F703327F5E0220F331FFA95E1F74C8548
:100F20005D856E857F8500E210E0C5010E94470562
:100F3000892B09F0A5C0F5018081882309F4A4C09C
:100F4000438543FD3CC06A817B819B01E815F9051F
:100F500049F5DB011B968C918111A0C044FF94C020
:100F6000C5010E9480036C837D838E839F83EA8109
:100F7000FB81DF01CF010B96A817B90709F4ACCFAD
:100F80005D92FACF9F3209F4B3CF9E3209F480C04C
:100F9000821708F0ADCFDF01A80FB11D9C938F5FC2
:100FA000932F9DCF8191D9015D919D01082E000C59
:100FB000990B851B910957FD9395892B39F2609008
:100FC000330170903401088119810F5F1F4F09F4BC
:100FD0005BC04C855D856E857F854115510561053A
:100FE000710509F451C0C8018F709927892B09F048
:100FF00044C04F5F5F4F6F4F7F4F4C875D876E8759
:101000007F87688579858A859B856115710581054E
:10101000910539F4F3018481958108171907A0F52A
:101020002CC0D30112962C9130E0A90141505109F6
:101030009801E4E036952795EA95E1F724233523D6
:10104000232BD9F40E94E3056230710581059105D7
:10105000B8F0F30126813781408551856217730707
:101060008407950788F4688779878A879B870E9419
:1010700093046C877D878E879F871983088346CF6B
:10108000EE24E394F12C0AC083E0E82EF12C06C094
:10109000283009F02DCF88E02BE082CFC701DF9107
:1010A000CF911F910F91FF90EF90DF90CF90BF9065
:1010B000AF909F908F907F906F905F900895EC011C
:1010C000CB0178940E94E2022881398123303105D6
:1010D00099F048F421303105B9F022303105B9F4E6
:1010E00085EB91E00EC02430310549F02630310502
:1010F00071F484ED91E005C08EEE91E002C086ECC3
:1011000091E00E94E2020BC082EA91E0FACF82E90C
:1011100091E00E94C102888199810E94070F8AE3B1
:1011200091E00E94C60398E088E10FB6F894A89574
:10113000809360000FBE90936000FFCF6F927F920C
:101140008F929F92AF92BF92CF92DF92EF92FF92D7
:101150000F931F93CF93DF93CDB7DEB7C055D1095F
:101160000FB6F894DEBF0FBECDBF809128028F5F0F
:10117000809328026E0181E3C80ED11C7E0191E4A8
:10118000E90EF11C5E01E1E2AE0EB11C5DE2852EBE
:1011900051E0952E809128021F928F93809100013B
:1011A0001F928F9382E291E09F938F93DF92CF9271
:1011B0000E94CF1060903301709034010FB6F89404
:1011C000DEBF0FBECDBF6114710469F1F30111825E
:1011D000FCA2EBA2A601BE016F5F7F4FC5010E947A
:1011E0003707009719F58981882311F18C8584FDD3
:1011F0001FC0CE0101960E948003F301668F778F96
:1012000080A391A38D8D9E8DAF8DB8A1828F938F7A
:10121000A48FB58F168A178A108E118E81E0818374
:1012200000E010E007C005E010E004C08C0102C03F
:1012300003E010E061961FAF0EAF61970330110518
:1012400009F065C080912802813019F46AE671E0E6
:1012500063C0809100018F5F8093000177247394B5
:10126000809100011F928F939F928F92FF92EF9235
:101270000E94CF100F900F900F900F900F900F9033
:101280008091330190913401892B29F1B092190298
:10129000A0921802A701BE016F5F7F4F86E192E026
:1012A0000E9437070097C9F48981882309F481C017
:1012B0008C8584FF0DC0CE0101960E94800360934F
:1012C0001A0270931B0280931C0290931D0271C03E
:1012D00083E090E002C085E090E02F969FAF8EAF54
:1012E0002F978330910519F47092000109C000977F
:1012F00039F064E571E0CE01835B9F4F0E945F0887
:10130000892B09F4ADCF81E08093280209C0011533
:10131000110531F06FE571E0CE01815B9F4FEECF9B
:10132000012B09F037CFAE014F5D5F4F6AE170E0EE
:10133000CE0101960E9463068C8590E0982F882745
:101340002B85820F911D90933601809335018C89F6
:1013500090E0982F88272B89820F911D9093390157
:1013600080933801288D30E0322F22279F89290F62
:10137000311D3093270220932602982F990F890F51
:10138000837080933701C05BDF4F0FB6F894DEBFE8
:101390000FBECDBFDF91CF911F910F91FF90EF90C6
:1013A000DF90CF90BF90AF909F908F907F906F9085
:1013B000089586E192E00E94BE048FCF80EA3197C3
:1013C0003197319700008A95D1F70895229A239A90
:1013D000259A2C9A089502D02A9801C02A9A8FEF54
:1013E00098E087FD2B9A87FF2B98880F1C9983958F
:1013F0002D9A2D989A95A9F70895FB0183E0809383
:101400005700E8958091570080FDFCCF81E18093E3
:101410005700E89508950F921F92FB01DA0190E4BE
:101420000D901D9081E080935700E89532969A9533
:10143000B9F7FB0185E080935700E895809157004C
:1014400080FDFCCF81E180935700E8951F900F90BD
:101450000895CF93DF9310923D0110923C0188EEE6
:1014600093E0A0E0B0E080933E0190933F01A09311
:101470004001B09341018BE091E090933B01809358
:101480003A0185EC90E0909347018093460184EC0B
:1014900090E0909349018093480180EC90E0909314
:1014A0004B0180934A0181EC90E090934D01809331
:1014B0004C0182EC90E090934F0180934E0186ECBA
:1014C00090E090935101809350011092530110923B
:1014D000540110925501109256011092D8011092A9
:1014E000DE011092E5011092E6011092E7011092E0
:1014F000E80181E08093E4018093E1011092E20130
:1015000092E09093E3018093D701C8E5D2E0D093B5
:10151000DC01C093DB0188E592E00E949D0F90936F
:10152000E0018093DF01009769F0FC019E011192B8
:1015300021503040E1F788EC90E09093DA018093FD
:10154000D90108C01092DC011092DB011092DA017F
:101550001092D90183E18093DD018091D801882325
:1015600039F061E083E10E94E80383E10E943201E7
:10157000E3E5F1E0E491F0E0EE0FFF1FEA5CFE4FDF
:10158000859194919093EA018093E901E5E3F1E07C
:10159000E491E093EB01DF91CF910895CF93DF9336
:1015A000CDB7DEB7E0970FB6F894DEBF0FBECDBF64
:1015B000789484B5826084BD84B5816084BD85B52E
:1015C000826085BD85B5816085BD80916E0081603A
:1015D00080936E00109281008091810082608093E0
:1015E00081008091810081608093810080918000E2
:1015F0008160809380008091B10084608093B1000D
:101600008091B00081608093B00080917A00846006
:1016100080937A0080917A00826080937A00809132
:101620007A00816080937A0080917A00806880934C
:101630007A001092C10014BE0FB6F894A89580915C
:101640006000886180936000109260000FBE8091FE
:10165000DD0187FD07C061E00E94E8038091DD01A4
:101660000E94320181E08093D8018091DF01909146
:10167000E001892B11F00E94C001E0914A01F09134
:101680004B0182E08083E0914601F0914701108296
:10169000E0914801F09149018FEC80831092520152
:1016A000E0914E01F0914F0186E08083E0914C0182
:1016B000F0914D01808180618083E0914C01F09137
:1016C0004D01808188608083E0914C01F0914D0153
:1016D000808180688083E0914C01F0914D01808190
:1016E0008F7D808384E790E00E94E2028AE391E0AC
:1016F0000E94C603CE01019698A78FA3382E94E0CE
:10170000390E10923401109233010E94E60914E65A
:101710000E94DE091150E1F71AE00E94EE09115013
:10172000E1F740E050E0BA0180E40E940905813011
:1017300009F05CC34AEA51E060E070E088E40E948E
:101740000905813039F58E010F5F1F4F78010E9426
:10175000EF09F70181937F013E12F9CF8B81813030
:1017600009F044C38C818A3A09F040C3A0E1EA2E13
:10177000A7E2FA2E40E050E060E070E489EE0E94BB
:101780000905882341F10E94DE09F1E0EF1AF10812
:1017900089F72CC340E050E0BA0189EE0E940905A8
:1017A000823018F011E001E402C012E009EEF0E12D
:1017B000EF2EF7E2FF2E40E050E0BA01802F0E94AA
:1017C0000905882309F408C30E94DE09B1E0EB1A79
:1017D000F10889F70BC340E050E0BA018AE70E94A4
:1017E0000905811103C30E94EF09D8018D938D0172
:1017F0003A12F9CF898186FD02C014E001C01CE0D5
:10180000109332010E94EE09112309F47ACF40E0CF
:1018100050E0BA01CE0101960E949C05813009F585
:1018200000E110E02EEB31E040E050E0BA01CE01E3
:1018300001960E944705892B19F001E010E0C1C014
:101840008D81811103C006E010E0BBC089849A84B9
:10185000AB84BC84B501A401CE0101960E949C0515
:1018600003C0812C912C5401833039F38111EBCFCB
:1018700004E210E02DE030E0B501A401CE010196B4
:101880000E9447058C01892BC1F62A853B8540E0E3
:1018900050E0211531054105510521F4288D398D80
:1018A0004A8D5B8DAC81B0E00E947D0F2B013C0125
:1018B0002A813B81A90160E070E0840E951EA61E7E
:1018C000B71E8092F6019092F701A092F801B092B3
:1018D000F90129812093EE01CD80DE80D092F101C3
:1018E000C092F0018F819885A0E0B0E00097A1053B
:1018F000B10521F48C899D89AE89BF89E4E0D69435
:10190000C794EA95E1F7E12CF12C841B950BA60B0B
:10191000B70B84199509A609B709BC01CD016C194B
:101920007D098E099F0930E040E050E00E945B0F86
:10193000DA01C9010296A11DB11D8093F2019093B5
:10194000F301A093F401B093F501BA01A901465F38
:101950005F40610971094F3F5F4E6105710508F0F5
:1019600047C2873F9F4FA105B10508F047C282E0FB
:101970008093EC01833009F043C288A199A1AAA108
:10198000BBA18093FA019093FB01A093FC01B0935B
:10199000FD01C80CD91CEA1CFB1C4C0C5D1C6E1C08
:1019A0007F1C4092FE015092FF01609200027092F3
:1019B00001021092ED018CEE91E09093340180933E
:1019C0003301012B09F09DCE88E690E00E94E202EF
:1019D0008AE391E00E94C6030E949E088DB79EB7DD
:1019E0009CA78BA780913701209038013090390156
:1019F0009101220F331F220E331E280E311CADB76A
:101A0000BEB7A219B3090FB6F894BEBF0FBEADBFE3
:101A1000EDB7FEB73196FAA7E9A7C0903501D0908F
:101A2000360100913301109134010115110509F4BB
:101A3000E6C0D80111968C91119780FFE3C05A96A9
:101A40008D919D910D90BC91A02DE12CF12C8C15C8
:101A50009D05AE05BF0510F46C017D01F8014688B7
:101A60005788608C718C168A178A108E118EC1145B
:101A7000D104E104F10409F4C8C08280912CA12CA6
:101A8000B12C39E0880C991CAA1CBB1C3A95D1F7E3
:101A9000411451046104710409F43FC0B1E04B1AD0
:101AA000510861087108C701B601615071098109C7
:101AB0009109A50194010E945B0F2DA73EA74FA796
:101AC00058ABC301B201A50194010E945B0F8DA523
:101AD0009EA5AFA5B8A982179307A407B507E8F09C
:101AE00088279927DC0188199909AA09BB09482286
:101AF00059226A227B22D80156964D925D926D92B0
:101B00007C925997C418D508E608F70892966D910B
:101B10007D918D919C91959730C0F801668D778D60
:101B200080A191A162A373A384A395A326C00E9460
:101B3000E305623071058105910528F1F8014680C1
:101B40005780608471846415750586059705D8F4FF
:101B5000F80162A373A384A395A346885788608C79
:101B6000718C480C591C6A1C7B1C468A578A608EF3
:101B7000718EC818D908EA08FB088C149D04AE04BD
:101B8000BF04A8F204C0D80111961C9216C0F80137
:101B900086889788A08CB18CC80CD91CEA1CFB1CC9
:101BA000C68AD78AE08EF18E0E9493046115710572
:101BB0008105910529F4F801118281E090E027C0A8
:101BC00029E0F694E794D794C7942A95D1F7D801E1
:101BD00012962C9130E0215031094901330FAA08A7
:101BE000BB08C820D920EA20FB20C60ED71EE81E5D
:101BF000F91EF801C6A2D7A2E0A6F1A606C085E0AC
:101C000090E005C084E090E002C080E090E09EA3F8
:101C10008DA3892B09F442C078948AE191E00E9457
:101C2000AE0187E191E00E94AE010DA11EA103303B
:101C3000110599F048F401301105B9F00230110591
:101C4000B9F48CE990E00EC00430110549F006307B
:101C5000110571F48BEB90E005C085ED90E002C0BA
:101C60008DEA90E00E94E2020AC089E890E0FACF93
:101C700089E790E00E94C102C8010E94070F8AE331
:101C800091E00E94C60398E088E10FB6F894A89509
:101C9000809360000FBE90936000FFCF00E010E0E3
:101CA000AE014F5F5F4FB10189A59AA50E946306FF
:101CB0009EA38DA3892B29F062E071E0CE01859669
:101CC00009C089819A818215930531F069EE70E02F
:101CD000CE0101960E945F0820E0712F7170A7E28B
:101CE000A00F822F90E04091380150913901841764
:101CF000950708F058C0822F880F820FE9A5FAA532
:101D0000E80FF11D628131814081772319F0B22FF4
:101D1000B00F02C0BA2FB21BEB2FF0E08091D901B7
:101D20009091DA01E817F907E0F55091DE015523AB
:101D300061F0659FC0011124692F359FC0011124F6
:101D4000392F459FA0011124452F5091E401F090B7
:101D5000E1018091DF019091E0015F1106C0F3E0A5
:101D6000BF9F800D911D11240AC0EE0FFF1FEE0FC3
:101D7000FF1F8E0F9F1FFC01E50FF11D1082509178
:101D8000E101FC01E50FF11D60835091E201FC01CE
:101D9000E50FF11D30833091E301FC01E30FF11DEC
:101DA00040832F5F9ECF1F5F085D153009F078CF0D
:101DB0008091DF019091E001892B11F00E94C00118
:101DC0000E949E088BA59CA50FB6F8949EBF0FBEDF
:101DD0008DBF0E94760302CE40E052E060E070E0EA
:101DE00080E50E940905882309F40ACD10E008CD9A
:101DF000873F9F4FA105B10508F425CD83E0B8CDFD
:101E0000D301C201880D991DAA1DBB1DBACDCF9269
:101E1000DF92EF92FF920F931F93CF93DF93CDB793
:101E2000DEB7A1970FB6F894DEBF0FBECDBF9C0101
:101E300040E050E019A28E010F5D1F4F8AE0C82ECE
:101E4000D12CE12CF12CCA01B901A70196010E9405
:101E50005B0F605DF80162938F012115310541052B
:101E6000510589F7CF010E94AE018C0187E191E015
:101E70000E94AE01800F911FA1960FB6F894DEBFAD
:101E80000FBECDBFDF91CF911F910F91FF90EF90CB
:101E9000DF90CF9008958091DF019091E00100974D
:101EA00011F00E9432108091DD0187FD03C060E0D7
:101EB0000C94E8030895A1E21A2EAA1BBB1BFD0196
:101EC0000DC0AA1FBB1FEE1FFF1FA217B307E40719
:101ED000F50720F0A21BB30BE40BF50B661F771F71
:101EE000881F991F1A9469F7609570958095909551
:101EF0009B01AC01BD01CF0108950E948E0FA59FEB
:101F0000900DB49F900DA49F800D911D11240895F4
:101F1000EE0FFF1F0590F491E02D0994A29FB001F0
:101F2000B39FC001A39F700D811D1124911DB29F0D
:101F3000700D811D1124911D0895CF93DF93823080
:101F4000910510F482E090E0E0913402F0913502C6
:101F500020E030E0C0E0D0E0309711F140815181C5
:101F600048175907C0F04817590761F482819381D7
:101F7000209719F09B838A832BC09093350280931E
:101F8000340226C02115310519F04217530718F401
:101F90009A01BE01DF01EF010280F381E02DDCCF69
:101FA0002115310509F1281B390B2430310590F436
:101FB00012968D919C9113976115710521F0FB018B
:101FC0009383828304C09093350280933402FD0191
:101FD000329644C0FD01E20FF31F8193919322508A
:101FE00031092D933C933AC0209132023091330253
:101FF000232B41F4209103013091040130933302EB
:102000002093320220910101309102012115310506
:1020100041F42DB73EB74091050150910601241BB4
:10202000350BE0913202F0913302E217F307A0F48E
:102030002E1B3F0B2817390778F0AC014E5F5F4F1E
:102040002417350748F04E0F5F1F5093330240931B
:1020500032028193919302C0E0E0F0E0CF01DF9182
:10206000CF9108950F931F93CF93DF93009709F4B7
:102070008CC0FC01329713821282009134021091BD
:1020800035020115110581F420813181820F931FE2
:1020900020913202309133022817390779F5F093F5
:1020A0003302E093320271C0D80140E050E0AE1735
:1020B000BF0750F412962D913C911397AD01211555
:1020C000310509F1D901F3CF9D01DA013383228370
:1020D00060817181860F971F8217930769F4EC0165
:1020E00028813981260F371F2E5F3F4F3183208390
:1020F0008A819B8193838283452B29F4F093350257
:10210000E093340242C01396FC93EE931297ED01D4
:10211000499159919E01240F351FE217F30771F47D
:1021200080819181840F951F029611969C938E93C6
:102130008281938113969C938E931297E0E0F0E056
:10214000D80112968D919C911397009719F0F80180
:102150008C01F6CF8D919C9198012E5F3F4F820F9D
:10216000931F20913202309133022817390769F406
:10217000309729F4109235021092340202C0138273
:1021800012821093330200933202DF91CF911F919C
:102190000F91089581E090E0F8940C94A713AEE0BD
:1021A000B0E0E5EDF0E10C947E130D891E8986E028
:1021B0008C831A8309838FEF9FE79E838D83AE0103
:1021C000475E5F4F6F89788DCE0101960E94F210B5
:1021D0002F813885F801E20FF31F10822E96E4E07C
:1021E0000C949A13ACE0B0E0E8EFF0E10C947013BB
:1021F0007C016B018A01FC0117821682838181FFB9
:10220000BDC1CE0101964C01F7019381F60193FD0A
:10221000859193FF81916F01882309F4ABC18532C9
:1022200039F493FD859193FF81916F01853229F4F3
:10223000B70190E00E94DA12E7CF512C312C20E058
:102240002032A0F48B3269F030F4803259F08332BE
:1022500069F420612CC08D3239F0803339F421606B
:1022600026C02260246023C0286021C027FD27C02B
:1022700030ED380F3A3078F426FF06C0FAE05F9E62
:10228000300D1124532E13C08AE0389E300D1124D6
:10229000332E20620CC08E3221F426FD6BC12064E7
:1022A00006C08C3611F4206802C0883641F4F6016D
:1022B00093FD859193FF81916F018111C1CF982F7B
:1022C0009F7D9554933028F40C5F1F4FFFE3F983F3
:1022D0000DC0833631F0833771F0833509F05BC070
:1022E00022C0F801808189830E5F1F4F44244394EC
:1022F000512C540115C03801F2E06F0E711CF80129
:10230000A080B18026FF03C0652D70E002C06FEF92
:102310007FEFC5012C870E94CF122C0183012C85F1
:102320002F77222E17C03801F2E06F0E711CF801D2
:10233000A080B18026FF03C0652D70E002C06FEF62
:102340007FEFC5012C870E94C4122C012C852068C8
:10235000222E830123FC1BC0832D90E048165906D2
:10236000B0F4B70180E290E00E94DA123A94F4CF20
:10237000F50127FC859127FE81915F01B70190E06F
:102380000E94DA1231103A94F1E04F1A51084114C8
:10239000510471F7E5C0843611F0893639F5F8013A
:1023A00027FF07C060817181828193810C5F1F4F7D
:1023B00008C060817181072E000C880B990B0E5F9D
:1023C0001F4F2F76722E97FF09C0909580957095BC
:1023D00061957F4F8F4F9F4F2068722E2AE030E02B
:1023E000A4010E941213A82EA81844C0853729F40E
:1023F0002F7EB22E2AE030E025C0F22FF97FBF2ECB
:102400008F36C1F018F4883579F0B4C0803719F0F0
:10241000883721F0AFC02F2F2061B22EB4FE0DC03F
:102420008B2D8460B82E09C024FF0AC09F2F9660B0
:10243000B92E06C028E030E005C020E130E002C03F
:1024400020E132E0F801B7FE07C06081718182812E
:1024500093810C5F1F4F06C06081718180E090E026
:102460000E5F1F4FA4010E941213A82EA818FB2D67
:10247000FF777F2E76FE0BC0372D3E7FA51450F4DC
:1024800074FE0AC072FC08C0372D3E7E05C0BA2C0F
:10249000372D03C0BA2C01C0B52C34FF0DC0FE018E
:1024A000EA0DF11D8081803311F4397E09C032FFBD
:1024B00006C0B394B39404C0832F867809F0B39414
:1024C00033FD13C030FF06C05A2CB31418F4530C5C
:1024D0005B18B32CB31468F4B70180E290E03C873A
:1024E0000E94DA12B3943C85F5CFB31410F43B1874
:1024F00001C0312C34FF12C0B70180E390E03C876B
:102500000E94DA123C8532FF17C031FD03C088E714
:1025100090E002C088E590E0B7010CC0832F867878
:1025200059F031FF02C08BE201C080E237FD8DE23D
:10253000B70190E00E94DA12A51438F4B70180E3E5
:1025400090E00E94DA125A94F7CFAA94F401EA0DAF
:10255000F11D8081B70190E00E94DA12A110F5CF41
:10256000332009F451CEB70180E290E00E94DA12E4
:102570003A94F6CFF7018681978102C08FEF9FEFE3
:102580002C96E2E10C948C13FC0105906150704094
:102590000110D8F7809590958E0F9F1F0895FC012C
:1025A0006150704001900110D8F7809590958E0F82
:1025B0009F1F08950F931F93CF93DF93FB012381F8
:1025C00021FD03C08FEF9FEF28C022FF16C0468178
:1025D0005781248135814217530744F4A081B1818A
:1025E0009D012F5F3F4F318320838C93268137815C
:1025F0002F5F3F4F3783268310C0EB01092F182F21
:102600000084F185E02D0995892BE1F68E819F816B
:1026100001969F838E83812F902FDF91CF911F9101
:102620000F910895FA01AA27283051F1203181F144
:10263000E8946F936E7F6E5F7F4F8F4F9F4FAF4FCA
:10264000B1E03ED0B4E03CD0670F781F891F9A1FDD
:10265000A11D680F791F8A1F911DA11D6A0F711D91
:10266000811D911DA11D20D009F468943F912AE09D
:10267000269F11243019305D3193DEF6CF01089585
:10268000462F4770405D4193B3E00FD0C9F7F6CFB6
:10269000462F4F70405D4A3318F0495D31FD40527E
:1026A000419302D0A9F7EACFB4E0A6959795879514
:1026B00077956795BA95C9F70097610571050895F3
:1026C0009B01AC010A2E069457954795379527959F
:1026D000BA95C9F7620F731F841F951FA01D089537
:1026E0002F923F924F925F926F927F928F929F9222
:1026F000AF92BF92CF92DF92EF92FF920F931F9310
:10270000CF93DF93CDB7DEB7CA1BDB0B0FB6F894C0
:10271000DEBF0FBECDBF09942A88398848885F8400
:102720006E847D848C849B84AA84B984C884DF8071
:10273000EE80FD800C811B81AA81B981CE0FD11D55
:102740000FB6F894DEBF0FBECDBFED01089511E0C6
:10275000C7E0D1E004C0FE010E94880F2196C83076
:08276000D107C9F7F894FFCF7F
:1027680001000036028000000000007A0279016A48
:102778000348035C03C6030D0A005365656B696E65
:1027880067002F25752F25752E424D50002F257572
:0227980000003F
:00000001FF
