:100000000C9445000C9462000C9462000C94620005
:100010000C9462000C9462000C9462000C946200D8
:100020000C9462000C9462000C9462000C94CE0557
:100030000C9462000C9462000C9462000C946200B8
:100040000C9462000C9462000C9403050C945E0501
:100050000C9462000C9462000C9462000C94620098
:100060000C9462000C946200454647656667002068
:100070002B2D2E3031323334353637383968006322
:1000800064696E6F70737578580011241FBECFEFCE
:10009000D8E0DEBFCDBF11E0A0E0B1E0EEEEF4E1CC
:1000A00002C005900D92AA35B107D9F723E0AAE561
:1000B000B1E001C01D92AB32B207E1F70E943106F8
:1000C0000C94750A0C940000CF93DF938DE192E0BD
:1000D000492FABE3B1E022E631E0F9011296CD9170
:1000E000DC9113976597D183C08316969C911697E0
:1000F0009A8BC081D18117969C911797998BC0815B
:10010000D18118969C911897988BC081D1811996AE
:100110009C9119979F87C081D1814B8BC081D181E0
:100120008C8B38961A9691E0AF34B907B9F63093B4
:100130005D0120935C0130935B0120935A0162E7DB
:1001400071E082E691E00E94EE017894DF91CF9118
:100150000895F894FFCFEF92FF920F931F93CF93E0
:10016000DF93809160019091610160915E017091D7
:100170005F01E4E6F1E040E050E0EE24EA94FE2C7A
:10018000DF01129715962D913C911697232B59F16B
:1001900015962D913C911697260F371F281B390B6A
:1001A00016963C932E93159715962D913C91169784
:1001B000232B69F52081233009F446C0223009F44D
:1001C0004AC0F282E182108216961C921E92159706
:1001D00020915C0130915D01A217B30720F4B09328
:1001E0005D01A0935C013896D1E0E437FD0741F64C
:1001F00090935F0180935E0141155105B9F4DF9141
:10020000CF911F910F91FF90EF900C94E6041596FB
:100210000D911C9116979A01215031092017310731
:1002200010F315964D915C911697DDCF840F951FB5
:100230009093610180936001DF91CF911F910F91A5
:10024000FF90EF900C94E90401811281E80128816C
:100250002F5F2883B6CF21813281E901198218826C
:10026000B0CFFC01748363831282168215822091C1
:100270005C0130915D018217930720F490935D013A
:1002800080935C01089560915A0170915B018091A7
:100290005C0190915D016817790731F090935B01E3
:1002A00080935A010C94EE0108950F931F93CF93FE
:1002B000DF9300915A0110915B01F801828361156F
:1002C000710519F16230710508F446C0809184000F
:1002D00090918500EB01C80FD91F80915E0190912C
:1002E0005F01209160013091610182179307B9F19C
:1002F000281B390BAE01481B590B42175307D8F185
:10030000C81BD90BF801D683C5838091640188236B
:10031000F1F12CE631E0A90142505109285F3F4F2D
:10032000F901389790819111F6CF50935D01409378
:100330005C0150935B0140935A01B801CA010E94CD
:10034000EE01E0915A01F0915B0183819481DF918C
:10035000CF911F910F91089562E070E0B7CFCE0169
:100360000E94DD04D0936101C093600180915E0121
:1003700090915F01C5CFCE010E94E904D093610145
:10038000C093600180915E0190915F01B9CF42E618
:1003900051E0CBCFF894BC0181E00E9455017894E4
:1003A0000895FC01908119162CF49150908380E0FF
:1003B00090E008956F3F8FEF780769F09150908338
:1003C000A0915A01B0915B011496FC93EE931397A0
:1003D00083E00C9455018FEF9FEF08952F923F9289
:1003E0004F925F926F927F928F929F92AF92BF9245
:1003F000CF92DF92EF92FF920F931F93CF93DF93F1
:10040000FB010DB600820EB60182FC0100800DBE1C
:1004100001800EBEDF91CF911F910F91FF90EF9061
:10042000DF90CF90BF90AF909F908F907F906F9014
:100430005F904F903F902F9008957894C201F10102
:10044000099580E090E00C94A900DC012C9127FF35
:1004500008952091650130916601E2E6F1E02817E8
:10046000390731F038962381348128173907D1F7BD
:10047000DC012C912F5F2C93CF010C9431010E9451
:10048000EE0483E191E00E94EF040E9429040E949F
:100490000B060C94DB040F931F93FC011082128255
:1004A0001182748363837287618770876783640FA7
:1004B000751F7683658334872387168705871F9189
:1004C0000F910895FC01A781B08581859285A817B9
:1004D000B907E9F081819281019692838183CD01F0
:1004E0000196908787836C932781308585819681DB
:1004F0002817390720F08381948190878783CF0163
:1005000060E070E00E94250280E090E00895818123
:100510009281892BF9F28CEF9FEF08950F931F932F
:10052000CF93DF93EC018B01F894EB85FC8530973A
:1005300041F0099506C0B801CE010E94D10197FD96
:1005400022C089819A81892BB1F389819A8101978F
:100550009A838983E985FA859F012F5F3F4F3A8708
:10056000298780814D815E812417350738F478947E
:1005700090E0DF91CF911F910F9108952B813C81E5
:100580003A872987F4CF7894DF91CF911F910F910B
:1005900008958F929F92AF92BF92CF92DF92EF9287
:1005A000FF920F931F93CF93DF93EC014A018901D0
:1005B000AB84BC84F8946B01E12CF12CA114B10440
:1005C00051F0CE01F501099506C0B801CE010E9497
:1005D000D101892B39F589819A81892BB1F38981E0
:1005E0009A8101979A838983E985FA85CF010196DB
:1005F0009A8789878081F60181936F0129853A85E1
:100600008D819E812817390720F08B819C819A87E4
:1006100089877894FFEFEF1AFF0A8E149F0419F070
:10062000F894CCCF7894C701DF91CF911F910F91AF
:10063000FF90EF90DF90CF90BF90AF909F908F9002
:1006400008950F931F93FC0110825283418374839A
:1006500063837287618770876783460F571F56834E
:10066000458334872387168705871F910F91089547
:10067000FF920F931F93CF93DF93EC01F62E8A0125
:10068000F89406C0B801CE010E94D10197FD2AC09E
:1006900089819A81892BB1F389819A8101979A8303
:1006A0008983EF81F885CF01019698878F83F08247
:1006B0002F8138858D819E812817390720F08B8105
:1006C0009C8198878F83EB85FC85309711F0CE0154
:1006D0000995789480E090E0DF91CF911F910F9180
:1006E000FF9008957894DF91CF911F910F91FF9023
:1006F0000895CF93FC01A185B285878190858A17E3
:100700009B07E9F081819281019692838183CD01DB
:10071000019692878187CC91258136818217930734
:1007200048F4CF0160E070E00E9425028C2F90E039
:10073000CF9108958381948192878187F2CF8181BF
:100740009281892BF9F28DEF9FEFF2CF6F927F921A
:100750008F929F92AF92BF92CF92DF92EF92FF92D1
:100760000F931F93CF93DF93EC018B014A01590143
:10077000CB84DC84F894E12CF12C89819A81892B3B
:1007800089F1A981BA811197BA83A983EF81F8858C
:10079000CF01019698878F8338018FEF681A780A06
:1007A000D8018C9180832F8138858D819E81281777
:1007B000390720F08B819C8198878F83C114D104E5
:1007C00019F0CE01F60109957894FFEFEF1AFF0AB0
:1007D00081E0881A910869F0F894830189819A81EF
:1007E000892B79F6B501CE010E94D101892B29F21E
:1007F0007894C701DF91CF911F910F91FF90EF90F7
:10080000DF90CF90BF90AF909F908F907F906F9030
:1008100008950B960C94C90220E030E00B960C94DE
:10082000C9024A960C94A60320E030E04A960C9444
:10083000A6030B960C948E0260E070E00B960C946D
:100840008E024A960C94380340E050E04A960C948D
:1008500038030C949005EF92FF920F931F93CF9360
:10086000DF93EC019B017A0180E091E0998388831A
:100870001A821B821C821D821F821E821986188684
:1008800081E08A87BE01675D7F4F8E0140E150E0C5
:10089000CE010B960E944B02BE01675C7F4F970111
:1008A00040E150E0CE014A960E942103DF91CF91B2
:1008B0001F910F91FF90EF900895CF93DF93EC017C
:1008C000F8940E94980582E08A877894DF91CF910E
:1008D00008950F931F93CF93DF931F92CDB7DEB789
:1008E0008C01DC011C968D919C911D97892BB1F494
:1008F00012968D919D910D90BC91A02D8460F80170
:1009000082839383A483B5830680F781E02D30979B
:1009100029F0C8010296698309956981C8010B967F
:100920000E94620297FD06C00F90DF91CF911F9148
:100930000F910895C8010296D80112964D915D91CC
:100940006D917C9115974068F801428353836483CD
:1009500075830680F781E02D309731F30F90DF919A
:10096000CF911F910F9109940F931F93CF93DF9312
:10097000EC014A960E9479038C0197FD06C0C801DC
:10098000DF91CF911F910F910895CE0102964A8178
:100990005B816C817D8148604A835B836C837D834E
:1009A000EE81FF81309759F30995C801DF91CF910E
:1009B0001F910F9108950C94F405909389008093F2
:1009C000880082E086BB80936F00089510926F00CC
:1009D0000895909389008093880008950895FC01FC
:1009E000808185B9818184B9828188B9838187B901
:1009F00084818BB985818AB90895E1ECF0E080812A
:100A00008062808308951F920F920FB60F92112477
:100A10002F933F934F935F936F937F938F939F9306
:100A2000AF93BF93EF93FF938091C000982F9C7179
:100A3000C9F46091C6008AE791E00E9469040E94AF
:100A40004301FF91EF91BF91AF919F918F917F9162
:100A50006F915F914F913F912F910F900FBE0F902B
:100A60001F90189583FD25C040E050E0BA0182FD3B
:100A7000406284FD406480917C0190917D01A09151
:100A80007E01B0917F01842B952BA62BB72B8093F1
:100A90007C0190937D01A0937E01B0937F01E09152
:100AA0008001F0918101309721F28CE791E0099566
:100AB000C0CF40E850E060E070E0D9CF1F920F92C5
:100AC0000FB60F9211242F933F934F935F936F9321
:100AD0007F938F939F93AF93BF93EF93FF938AE797
:100AE00091E00E94B40497FD15C08093C6000E9457
:100AF0004301FF91EF91BF91AF919F918F917F91B2
:100B00006F915F914F913F912F910F900FBE0F907A
:100B10001F9018958091C1008F7D8093C100E7CF11
:100B20004DEF54E060E070E08AE791E00C942B0414
:100B30006115710509F18A57914009F00895FB018B
:100B400080818093C40081818093C5001092C00091
:100B500088E98093C10082818130E1F0C0F0823069
:100B600071F0843081F48091C10084608093C10071
:100B700086E08093C200089560E171E0DCCF84E0FC
:100B80008093C200089586E08093C2000895109279
:100B9000C200089582E08093C20008951F920F92D0
:100BA0000FB60F9211242F933F934F935F936F9340
:100BB0007F938F939F93AF93BF93EF93FF930E9485
:100BC000AB000E944301FF91EF91BF91AF919F91C4
:100BD0008F917F916F915F914F913F912F910F90E6
:100BE0000FBE0F901F90189510928000E1E8F0E082
:100BF00088E0808310928200109289001092880011
:100C0000109285001092840082E086BB10926F00E3
:100C100085E080830895109269001DBA0895C0E2AE
:100C200085B18C2785B984E89EE10E94CA01F8CF7E
:100C300060E070E08AE791E00E945D04E0917A0153
:100C4000F0917B010190F081E02D4EE050E069E1F0
:100C500071E08AE791E0099580E19AE70E94CA0174
:100C6000EDCF0E943F020E946400FFCFACE0B0E0F5
:100C7000ECE3F6E00C943E096C015B017A01FC01A7
:100C800017821682838181FF0EC1CE0101964C012D
:100C9000F6010381F50103FD159103FF11915F0139
:100CA000112309F4FCC0153249F403FD159103FF2B
:100CB00011915F01153211F020E01BC0B601812FA8
:100CC00090E00E94C30937017301E2CF112309F4B8
:100CD000E6C0612F70E08FE690E02C870E947A09D1
:100CE0002C85892B49F0F50103FD159103FF119126
:100CF0005F0127FFEBCF09C0133229F01C3609F042
:100D0000D5C02068F0CF20E1EECF022F112309F4E7
:100D1000C6C0612F70E088E690E02C870E947A09B7
:100D20002C85892B41F03701F4E06F0E711CB60160
:100D30008FE390E011C0133639F0133781F013358B
:100D400019F5022F01600BC0370182E0680E711C9B
:100D5000B601F701808191810E94C309B5CF3701A7
:100D6000F2E06F0E711CF701E080F180F70100FDE9
:100D7000859100FF81917F01882309F4A5CFB601F9
:100D800090E00E94C309F2CF143611F0193629F50C
:100D9000370127FF09C0F4E06F0E711CF701608175
:100DA0007181828193810AC0F2E06F0E711CF7019C
:100DB00060817181072E000C880B990B022F0F7E2A
:100DC00097FF08C090958095709561957F4F8F4FE4
:100DD0009F4F00642AE030E033C0103799F040F4B0
:100DE0001835B1F01F3609F05AC028E030E014C0C1
:100DF000153719F0183741F052C0022F0F7E2AE044
:100E000030E00AC0022F0061046220E130E004C03B
:100E1000022F046020E132E0370107FF09C0F4E04F
:100E20006F0E711CF701608171818281938108C00E
:100E3000F2E06F0E711CF7016081718180E090E03B
:100E4000A4010E94140A182F181906FF05C0B60144
:100E50008DE290E00E94C30904FF15C0FE01E10F7E
:100E6000F11D8081803379F0B60180E390E00E942B
:100E7000C30902FF08C00072802F90E0B601885AB3
:100E80009F4F0E94C3091150F401E10FF11D8081B1
:100E9000B60190E00E94C3091111F5CF15CFF601FC
:100EA0008681978105C08FEF9FEF02C0022F31CF5F
:100EB0002C96EEE00C945A0920FD09C0FC0123FD9C
:100EC00005C022FF02C0738362835183408308956B
:100ED00044FD10C046FD10C0DB01FC01AA0FBB1F82
:100EE000EE1FFF1F1094D1F76A0F7B1F8E1F9F1FED
:100EF00031E003C033E001C034E0660F771F881F84
:100F0000991F3150D1F7620F711D811D911D0895F8
:100F10000F931F93CF93DF938C01C8010E94850923
:100F2000EC0197FD08C00E947109892BB1F7B80147
:100F3000CE010E94FB09CE01DF91CF911F910F914D
:100F40000895A1E0B0E0E7EAF7E00C9440098C01D5
:100F5000C62E7A0129830E948509AC015527298173
:100F60004B32510521F04D32510569F42068CA9485
:100F7000C11002C080E076C0C80129830E948509A3
:100F8000298197FDF7CF322F3D7FD32E322F30733B
:100F900049F5803339F5BB24BA94BC0C09F44EC032
:100FA000C80129830E948509298197FD47C0382FF0
:100FB0003F7D383569F48D2D8264D82ECA94CA9449
:100FC000CC20E1F1C8010E94850997FF0BC036C013
:100FD00026FF04C02D2D2260D22E03C03D2D32618C
:100FE000D32ECB2C812C912C540120ED280F2830AE
:100FF00080F0D4FE04C0B8010E94FB091CC02A3056
:1010000040F0D6FEF8CF2F7D3FEE320F363098F706
:1010100027504D2DC501B4010E9468074B015C01AA
:101020008D2D8260D82ECA94CC2059F0C8010E9420
:10103000850997FFDACFD1FC04C09CCF812C912C7D
:101040005401D7FE08C0B094A09490948094811C61
:10105000911CA11CB11C2D2DB501A401C7010E943A
:101060005C0781E02196ECE00C945C09A1E0B0E023
:10107000ECE3F8E00C943C097C012B015A01FC01E3
:1010800017821682812CF7017380F20173FC85911F
:1010900073FE8191382F2F01882309F4E2C090E07C
:1010A00039830E9471093981892B21F0C7010E947F
:1010B0008807E9CF353241F4F20173FC359173FEB4
:1010C00031912F01353269F4C70139830E948509B6
:1010D000398197FDC4C03817B1F2B7010E94FB09EE
:1010E000C0C03A3239F473FC359173FE31912F014F
:1010F00011E001C010E0620160E020ED230F2A3012
:1011000070F4126070E080E090E040E20E946807B6
:10111000F60173FC359173FE31916F01EECF962E7F
:10112000032F260111FF03C0611103C09AC0992447
:101130009A94383619F03C3651F010C0F60173FC21
:10114000059173FE01912F01083641F41860146077
:10115000F20173FC059173FE01912F01002309F444
:1011600080C0602F70E08FE790E00E947A09892BA1
:1011700009F477C010FD07C0F501C080D180C5011A
:1011800002965C0102C0C12CD12C0E3651F4F7013D
:101190004681578160E070E0212FC6010E945C0704
:1011A00072CF0336A9F411FD02C099249394C701AC
:1011B0000E94850997FD53C0C114D10429F0F6019E
:1011C0008083C60101966C019A949110F0CF43C0C0
:1011D000C7010E94880797FD42C00F3661F128F4CD
:1011E000043639F1093651F128C0033771F005375B
:1011F00001F123C0C114D10429F0F6016082C601B7
:1012000001966C019A94992071F0C7010E9485099A
:101210003C0197FD08C00E947109892B59F3B70161
:10122000C3010E94FB09C114D104A9F0F601108288
:1012300012C0106203C0106101C01064212FA6010A
:10124000692DC7010E94A107811105C0F7018381A3
:10125000807329F406C010FD16CF839414CF882024
:1012600019F0882D90E002C08FEF9FEF2196E0E10A
:101270000C9458092F923F924F925F926F927F92F7
:101280008F929F92AF92BF92CF92DF92EF92FF9296
:101290000F931F93CF93DF93CDB7DEB7CA1BDB0B42
:1012A0000FB6F894DEBF0FBECDBF09942A883988E7
:1012B00048885F846E847D848C849B84AA84B984EE
:1012C000C884DF80EE80FD800C811B81AA81B981FA
:1012D000CE0FD11D0FB6F894DEBF0FBECDBFED010E
:1012E000089591110C94720A803219F0895085503A
:1012F000C8F70895FC010590061621F00020D9F7E3
:10130000C00108953197CF010895CF93DF93EC0189
:101310002B8120FF33C026FF0AC02F7B2B838E81B9
:101320009F8101969F838E838A8190E029C022FF4E
:101330000FC0E881F9818081082E000C990B00977D
:1013400019F420622B831AC03196F983E8830EC00A
:10135000EA85FB85099597FF09C02B81019611F05D
:1013600080E201C080E1822B8B8308C02E813F8107
:101370002F5F3F4F3F832E83992702C08FEF9FEF50
:10138000DF91CF9108950F931F93CF93DF93FB01CC
:10139000238121FD03C08FEF9FEF28C022FF16C0DD
:1013A00046815781248135814217530744F4A08137
:1013B000B1819D012F5F3F4F318320838C93268124
:1013C00037812F5F3F4F3783268310C0EB01092FF2
:1013D000182F0084F185E02D0995892BE1F68E8187
:1013E0009F8101969F838E83812F902FDF91CF91D4
:1013F0001F910F910895FB01238120FF12C026FD4C
:1014000010C08F3F3FEF930761F082832F7D2064F0
:1014100023832681378121503109378326839927F9
:1014200008958FEF9FEF0895FA01AA27283051F110
:10143000203181F1E8946F936E7F6E5F7F4F8F4F05
:101440009F4FAF4FB1E03ED0B4E03CD0670F781F64
:10145000891F9A1FA11D680F791F8A1F911DA11D49
:101460006A0F711D811D911DA11D20D009F4689482
:101470003F912AE0269F11243019305D3193DEF62A
:10148000CF010895462F4770405D4193B3E00FD0E0
:10149000C9F7F6CF462F4F70405D4A3318F0495DCB
:1014A00031FD4052419302D0A9F7EACFB4E0A695AE
:1014B0009795879577956795BA95C9F700976105D0
:1014C000710508959B01AC010A2E06945795479526
:1014D00037952795BA95C9F7620F731F841F951F1B
:0E14E000A01D0895992788270895F894FFCF3E
:1014EE0014040C0424041C0421041904110409041A
:1014FE00190003FF20FF00FF0248656C6C6F205738
:10150E006F726C64210D0A00626C696E6B657200FD
:10151E0068656C6C6F0069646C650077022B03283C
:10152E00010F060000C3017702300118060000000B
:0A153E00000000360100000000006C
:00000001FF
