:100000000C9445000C9462000C9462000C94620005
:100010000C9462000C9462000C9462000C946200D8
:100020000C9462000C9462000C9462000C943E08E4
:100030000C9462000C9462000C9462000C946200B8
:100040000C9462000C9462000C948B070C94CB0708
:100050000C9462000C9462000C9462000C94620098
:100060000C9462000C946200454647656667002068
:100070002B2D2E3031323334353637383968006322
:1000800064696E6F70737578580011241FBECFEFCE
:10009000D8E0DEBFCDBF11E0A0E0B1E0EAEFF9E1CA
:1000A00002C005900D92AC34B107D9F722E0ACE460
:1000B000B1E001C01D92A23DB207E1F70E94930892
:1000C0000C94FB0C0C940000FFCF0F931F930E9425
:1000D00061020E94FF0060E485EE91E00E948103CE
:1000E000EEECF1E09487838721E0DC011D962C93F0
:1000F00078940384F485E02D85E091E094878387EC
:1001000000E010E024E630E041E067E870E082E0E3
:1001100092E00E94F80320E031E0FC01348723875D
:100120001F910F910895EF92FF920F931F93CF931A
:10013000DF93C091DB01D091DC018091840090912C
:1001400085002C813D814091E1015091E201BC018B
:10015000641B750B6217730788F10BED11E0240F18
:10016000351F3093E2012093E101A881B9811396F4
:100170001C930E931297B093DC01A093DB01EE80E9
:10018000FF801F821E82AB5DB14061F18885998539
:10019000F7010995C091DB01D091DC0180918400C9
:1001A000909185002C813D814091E1015091E201C7
:1001B000BC01641B750B6217730788F6CB5DD140D9
:1001C000B9F0240F351F281B390B2230310568F098
:1001D000820F931FDF91CF911F910F91FF90EF90AE
:1001E0000C9471070E946E07D1CF22E030E0F0CF6F
:1001F000DF91CF911F910F91FF90EF900895EEEC5A
:10020000F1E08BED91E096878587908B87878FEF64
:100210009FEF928B818B148A138A0895EF92FF923D
:100220000F931F93CF93DF937C01DC0119963C93CE
:100230002E93189717965C934E93169720918400EF
:10024000309185006230710508F459C00091DB01DE
:100250001091DC01B1E00B3D1B0709F45BC08091FC
:10026000E1019091E201281B390BEB01C20FD31F72
:10027000D801C217D307E0F114962D913C91159740
:10028000C217D30748F43EC0C21BD30BD8010D914F
:100290001C91F801248135812C173D07A8F3D70163
:1002A0000D931C93D8011296ED91FC911397D701F1
:1002B0001396FC93EE931297F182E082F801F38299
:1002C000E2821596DC93CE931497848195818C1BE2
:1002D0009D0B958384838FEF9FEF9093E001809334
:1002E000DF01DF91CF911F910F91FF90EF90089563
:1002F00014968D919C911597C81BD90BC8CF62E0BD
:1003000070E0A4CF8C0F9D1F0E947107F80124811B
:100310003581C2CF3093E2012093E101F092DC01FC
:10032000E092DB01F092DE01E092DD01F701118342
:1003300000831383028375836483CB01820F931F31
:10034000DF91CF911F910F91FF90EF900C94650773
:10035000CF93DF93FC01A091DB01B091DC01A817E2
:10036000B90709F1C281D381808191819983888302
:10037000A081B1811396DC93CE93129717821682D7
:1003800061E0AB3DB60761F014962D913C91159755
:1003900084819581820F931F15969C938E93149759
:1003A000DF91CF910895ED91FC911197F093DC01CD
:1003B000E093DB018BED91E09383828317961C928F
:1003C0001E921697E817F90731F114962D913C917A
:1003D000159784819581280F391F35832483809157
:1003E0008400909185004091E1015091E201BC01AF
:1003F000641B750B6217730798F6261B370B2230A8
:10040000310530F0820F931FDF91CF910C9471076B
:1004100022E030E0F7CFDF91CF910C946E07CF93BD
:10042000DF93DC011D968C911D97843099F170F556
:10043000882349F1833031F41F96ED91FC91509758
:10044000118210828FEF9FEF50969C938E931F978F
:100450001D961C921D9714962C911497EEECF1E0CA
:100460000190F081E02D94819217D0F71196FC93C2
:10047000EE93C281D3811396DC93CE931297B98306
:10048000A883B383A283DF91CF910895853089F04B
:100490008730C1F61296ED91FC9113978D919C9146
:1004A000119791838083CD91DC911197FB83EA832F
:1004B000C9CF1F96ED91FC91509784818F5F848303
:1004C000E9CFEEECF1E0F183E083F383E283148281
:1004D000F087E783F287E1870895CF93DF93DC010C
:1004E0001D961C921D9714962C911497EEECF1E03A
:1004F0000190F081E02D94819217D0F71196FC9332
:10050000EE93C281D3811396DC93CE931297B98375
:10051000A883B383A283CD01DF91CF910895CF93B8
:10052000DF93EEECF1E063857485DB011D968C931F
:1005300080819181EC01A881B981B183A083139658
:10054000FC93EE9312979487838721E02D87DF91A8
:10055000CF910C9482061F93CF93DF93CDB7DEB774
:100560002A970FB6F894DEBF0FBECDBF182F6F3F8E
:100570008FEF780729F12091D9013091DA014FE00E
:1005800052E0CE0101960E940E01812F0E948F023F
:100590008F819885892B21F0CE0101960E94A801B8
:1005A000E091D901F091DA01878590892A960FB6FA
:1005B000F894DEBF0FBECDBFDF91CF911F9108959C
:1005C000812F0E948F02ECCFCF93DF93DC015096F6
:1005D0007C936E931F9714963C9114976091D90168
:1005E0007091DA01EB012C812317D8F01D961C9233
:1005F0001D97EEECF1E00190F081E02D94819317CE
:10060000D0F71196FC93EE93C281D3811396DC93BD
:10061000CE931297B983A883B383A283DF91CF913E
:1006200008951D86EEECF1E00190F081E02D9481BB
:100630009217D0F7EB01F983E883828193819B8342
:100640008A83EC017983688373836283B093DA01D0
:10065000A093D90181E01D968C931D97CD01DF9168
:10066000CF910C948206A091CE01B091CF01E09180
:10067000D901F091DA0181E014962C9194819217BE
:1006800008F080E00895CF93DF93A091D901B09155
:10069000DA014091CE015091CF01EA01E881F98160
:1006A000F093CF01E093CE018EEC91E093838283AF
:1006B0005093DA014093D90181E08D871D961C92F9
:1006C0001D9714962C91149703C00190F081E02D92
:1006D00094812917D0F31196FC93EE938281938134
:1006E00013969C938E931297EC01B983A883B383DE
:1006F000A283BD01CA01DF91CF910C9482060C94B4
:100700004303CF93DF93FC01648382E085871686E1
:10071000648F138E128E118E14861386AEECB1E0A8
:10072000B087A7831996CD91DC911A97D287C1879C
:10073000F887EF831A96FC93EE931997CF014196B1
:10074000928B818B0296948B838B968B858BCF01BA
:10075000DF91CF9108950F931F93CF93DF93FC0107
:1007600065517109DC01A60FB71FB683A5835296A8
:100770002C93A581B68151963C93A581B681509664
:100780000C93A581B6811F961C93A581B68181EB40
:1007900096E053969C93A581B68154968C9344839E
:1007A00082E085871686448F138E128E118E1486F2
:1007B0001386AEECB1E0B087A7831996CD91DC919A
:1007C0001A97D287C187F887EF831A96FC93EE9326
:1007D0001997CF014196928B818B0296948B838BD4
:1007E000968B858BCF01DF91CF911F910F9108954B
:1007F0000F931F93CF93DF93F8940E94AB03EC0108
:1008000060E070E00E94E4027894CE01DF91CF9125
:100810001F910F910895F894BC0188E00E94AB02EB
:10082000789408950F931F93CF93DF93C091D901CC
:10083000D091DA01988B8F878E010F5E1F4F8989C7
:100840009A890817190761F0FC01208131813A8BE0
:10085000298B0E946D0289899A8980179107A1F7D7
:100860008E85837061F4E985FA858F8198859087FC
:100870008783AF81B8851A96FC93EE9319978FE022
:10088000DF91CF911F910F910C948F02F8940C94EB
:100890001204CF93DF9361157105A1F0E091D901A6
:1008A000F091DA0191838083EC01AA81BB81B3834B
:1008B000A283ED93FC93FB83EA8384E0DF91CF91E5
:1008C0000C94AB028FEF9FEFDF91CF910895CF9300
:1008D000DF93FC0180819181E817F90779F0EC0141
:1008E000A881B981B183A0831396FC93EE931297EC
:1008F000788B6F87DF91CF910C946D02DF91CF9150
:100900000895FC01918D692B618F85858A3061F096
:100910008B3009F00895878568238613FBCF108AF2
:100920001786CF010C946D0287856823C1F708955F
:10093000EF92FF921F93CF93DF937C01162FFC0160
:10094000C081D1818C179D0799F09D81912B9D834A
:10095000112319F02E81922329F06C818A819B81C9
:100960000E9481040990D881C02DEC16FD0669F71C
:10097000DF91CF911F91FF90EF9008950F931F93F8
:10098000FC01918380839383828315821482778311
:1009900066837587648773876287640F751F7187A5
:1009A000608737872687118B008B1F910F910895E1
:1009B000FC01A285B38584859585A817B907E9F060
:1009C00084819581019695838483CD0101969387D7
:1009D00082876C9322853385808591852817390716
:1009E00020F08681978193878287CF0160E070E055
:1009F0000E94670480E090E0089584819581892BAE
:100A0000F9F28CEF9FEF08950F931F93CF93DF932D
:100A1000EC018B01F894EE85FF85309741F0099544
:100A200006C0B801CE010E94490497FD22C08C8106
:100A30009D81892BB1F38C819D8101979D838C834E
:100A4000EC85FD859F012F5F3F4F3D872C8780817F
:100A5000488559852417350738F4789490E0DF915C
:100A6000CF911F910F9108952E813F813D872C8753
:100A7000F4CF7894DF91CF911F910F9108958F92C9
:100A80009F92AF92BF92CF92DF92EF92FF920F931D
:100A90001F93CF93DF93EC014A018901AE84BF8499
:100AA000F8946B01E12CF12CA114B10451F0CE01AA
:100AB000F501099506C0B801CE010E944904892BB1
:100AC00039F58C819D81892BB1F38C819D810197B2
:100AD0009D838C83EC85FD85CF0101969D878C8756
:100AE0008081F60181936F012C853D8588859985EC
:100AF0002817390720F08E819F819D878C877894F5
:100B0000FFEFEF1AFF0A8E149F0419F0F894CCCF70
:100B10007894C701DF91CF911F910F91FF90EF90D3
:100B2000DF90CF90BF90AF909F908F9008950F93DC
:100B30001F93FC0191838083938382835583448335
:100B4000778366837587648773876287460F571F2D
:100B50005187408737872687118B008B1F910F9114
:100B60000895FF920F931F93CF93DF93EC01F62E1E
:100B70008A01F89406C0B801CE010E94490497FD8D
:100B80002AC08C819D81892BB1F38C819D81019735
:100B90009D838C83EA85FB85CF0101969B878A879D
:100BA000F0822A853B85888599852817390720F0AA
:100BB0008E819F819B878A87EE85FF85309711F014
:100BC000CE010995789480E090E0DF91CF911F915C
:100BD0000F91FF9008957894DF91CF911F910F911D
:100BE000FF900895CF93FC01A485B58582859385F8
:100BF0008A179B07E9F08481958101969583848308
:100C0000CD01019695878487CC9120853185821707
:100C1000930748F4CF0160E070E00E9467048C2FD6
:100C200090E0CF9108958681978195878487F2CF50
:100C300084819581892BF9F28DEF9FEFF2CF6F922E
:100C40007F928F929F92AF92BF92CF92DF92EF925C
:100C5000FF920F931F93CF93DF93EC018B014A0117
:100C60005901CE84DF84F894E12CF12C8C819D8194
:100C7000892B89F1AC81BD811197BD83AC83EA8555
:100C8000FB85CF0101969B878A8738018FEF681A11
:100C9000780AD8018C9180832A853B85888599853F
:100CA0002817390720F08E819F819B878A87C1147E
:100CB000D10419F0CE01F60109957894FFEFEF1AEF
:100CC000FF0A81E0881A910869F0F89483018C8109
:100CD0009D81892B79F6B501CE010E944904892BAB
:100CE00029F27894C701DF91CF911F910F91FF9066
:100CF000EF90DF90CF90BF90AF909F908F907F90BC
:100D00006F9008952F923F924F925F926F927F92D1
:100D10008F929F92AF92BF92CF92DF92EF92FF920B
:100D20000F931F93CF93DF93FB010DB605820EB691
:100D30000682FC0105800DBE06800EBEDF91CF91BC
:100D40001F910F91FF90EF90DF90CF90BF90AF90E9
:100D50009F908F907F906F905F904F903F902F90DB
:100D600008957894C201F10109950E9446040895FE
:100D70000E9476078EE291E00E9477070E94E406C7
:100D80000E947E080C94630705960C943F052FEF94
:100D90003FEF05960C943F0547960C941F062FEFE6
:100DA0003FEF47960C941F0605960C9404056FEFD1
:100DB0007FEF05960C94040547960C94B1054FEF10
:100DC0005FEF47960C94B1050C940008EF92FF92E8
:100DD0000F931F93CF93DF93EC019B017A01FC01EA
:100DE0008BE191E081939193FB83EA8381E08C8393
:100DF000BE01675D7F4F8E0140E150E0CE01059658
:100E00000E94BE04BE01675C7F4F970140E150E045
:100E1000CE0147960E949705DF91CF911F910F91C8
:100E2000FF90EF900895CF93DF93EC01F8940E9428
:100E3000080882E08C837894DF91CF9108951F9306
:100E4000CF93DF93EC01162F89859A85892B59F072
:100E5000612FCE0105960E94D80497FD10C0DF9146
:100E6000CF911F91089564E0CE0102960E949804EC
:100E7000612FCE0105960E94D80497FFF0CF60E85D
:100E8000CE010296DF91CF911F910C9498040F939D
:100E90001F93CF93DF938C0147960E94F205EC01DC
:100EA00097FD06C0CE01DF91CF911F910F9108955C
:100EB00068E0C80102960E949804CE01DF91CF91AC
:100EC0001F910F9108950C94670890938900809367
:100ED000880082E086BB80936F00089510926F00B7
:100EE0000895909389008093880008950895FC01E7
:100EF000808185B9818184B9828188B9838187B9EC
:100F000084818BB985818AB90895E1ECF0E0808114
:100F10008062808308951F920F920FB60F92112462
:100F20002F933F934F935F936F937F938F939F93F1
:100F3000AF93BF93EF93FF938091C000982F9C7164
:100F4000E1F46091C60089E892E00E941F070E94C8
:100F5000330381110E947F03FF91EF91BF91AF9105
:100F60009F918F917F916F915F914F913F912F91C1
:100F70000F900FBE0F901F90189583FD0AC060E080
:100F800082FD606284FD60648BE892E00E949804B8
:100F9000D8CF60E8F5CF1F920F920FB60F921124B1
:100FA0002F933F934F935F936F937F938F939F9371
:100FB000AF93BF93EF93FF9389E892E00E944707B6
:100FC00097FD18C08093C6000E94330381110E94D0
:100FD0007F03FF91EF91BF91AF919F918F917F918F
:100FE0006F915F914F913F912F910F900FBE0F9096
:100FF0001F9018958091C1008F7D8093C100E4CF30
:1010000045E857E060E070E089E892E00C94E6067D
:101010006115710509F18958924009F00895FB01A5
:1010200080818093C40081818093C5001092C000AC
:1010300088E98093C10082818130E1F0C0F0823084
:1010400071F0843081F48091C10084608093C1008C
:1010500086E08093C20008956BE271E0DCCF84E00B
:101060008093C200089586E08093C2000895109294
:10107000C200089582E08093C20008951F920F92EB
:101080000FB60F9211242F933F934F935F936F935B
:101090007F938F939F93AF93BF93EF93FF930E94A0
:1010A00093000E94330381110E947F03FF91EF910F
:1010B000BF91AF919F918F917F916F915F914F9170
:1010C0003F912F910F900FBE0F901F901895109287
:1010D0008000E1E8F0E088E08083109282001092C6
:1010E000890010928800109285001092840082E09E
:1010F00086BB10926F0085E080830895109269008E
:101100001DBA0895E091D901F091DA0184E391E0EC
:1011100094878387C0E285B18C2785B988E09DE3F9
:101120000E940B04F8CF0E94B8060E9465002D981B
:1011300060E070E089E892E00E94130700E010E0B0
:1011400022E838E040E462E870E08CE491E00E943C
:10115000F803E0918902F0918A020190F081E02D7C
:101160004EE050E06CE371E089E892E0099588E098
:101170009DE30E940B04FBCFACE0B0E0E2ECF8E0B2
:101180000C94C40B6C015B017A01FC01178216827E
:10119000838181FF0EC1CE0101964C01F6010381CE
:1011A000F50103FD159103FF11915F01112309F46E
:1011B000FCC0153249F403FD159103FF11915F0145
:1011C000153211F020E01BC0B601812F90E00E9483
:1011D000490C37017301E2CF112309F4E6C0612FF6
:1011E00070E08FE690E02C870E94000C2C85892B04
:1011F00049F0F50103FD159103FF11915F0127FFF0
:10120000EBCF09C0133229F01C3609F0D5C0206895
:10121000F0CF20E1EECF022F112309F4C6C0612FD9
:1012200070E088E690E02C870E94000C2C85892BCA
:1012300041F03701F4E06F0E711CB6018FE390E0CE
:1012400011C0133639F0133781F0133519F5022F19
:1012500001600BC0370182E0680E711CB601F70116
:10126000808191810E94490CB5CF3701F2E06F0E69
:10127000711CF701E080F180F70100FD859100FF0E
:1012800081917F01882309F4A5CFB60190E00E94E7
:10129000490CF2CF143611F0193629F5370127FF22
:1012A00009C0F4E06F0E711CF701608171818281C9
:1012B00093810AC0F2E06F0E711CF70160817181A9
:1012C000072E000C880B990B022F0F7E97FF08C08A
:1012D00090958095709561957F4F8F4F9F4F0064DB
:1012E0002AE030E033C0103799F040F41835B1F0FF
:1012F0001F3609F05AC028E030E014C0153719F045
:10130000183741F052C0022F0F7E2AE030E00AC0A9
:10131000022F0061046220E130E004C0022F04606B
:1013200020E132E0370107FF09C0F4E06F0E711CC5
:10133000F701608171818281938108C0F2E06F0EB4
:10134000711CF7016081718180E090E0A4010E942E
:101350009A0C182F181906FF05C0B6018DE290E00F
:101360000E94490C04FF15C0FE01E10FF11D8081B0
:10137000803379F0B60180E390E00E94490C02FFCF
:1013800008C00072802F90E0B601885A9F4F0E94DB
:10139000490C1150F401E10FF11D8081B60190E07C
:1013A0000E94490C1111F5CF15CFF6018681978166
:1013B00005C08FEF9FEF02C0022F31CF2C96EEE0D9
:1013C0000C94E00B20FD09C0FC0123FD05C022FFA9
:1013D00002C07383628351834083089544FD10C02B
:1013E00046FD10C0DB01FC01AA0FBB1FEE1FFF1F53
:1013F0001094D1F76A0F7B1F8E1F9F1F31E003C02F
:1014000033E001C034E0660F771F881F991F315009
:10141000D1F7620F711D811D911D08950F931F93C8
:10142000CF93DF938C01C8010E940B0CEC0197FD58
:1014300008C00E94F70B892BB1F7B801CE010E94BA
:10144000810CCE01DF91CF911F910F910895A1E002
:10145000B0E0EDE2FAE00C94C60B8C01C62E7A01E6
:1014600029830E940B0CAC01552729814B32510571
:1014700021F04D32510569F42068CA94C11002C0B0
:1014800080E076C0C80129830E940B0C298197FD5A
:10149000F7CF322F3D7FD32E322F307349F5803373
:1014A00039F5BB24BA94BC0C09F44EC0C801298399
:1014B0000E940B0C298197FD47C0382F3F7D38359E
:1014C00069F48D2D8264D82ECA94CA94CC20E1F19F
:1014D000C8010E940B0C97FF0BC036C026FF04C04A
:1014E0002D2D2260D22E03C03D2D3261D32ECB2C68
:1014F000812C912C540120ED280F283080F0D4FE4F
:1015000004C0B8010E94810C1CC02A3040F0D6FEF5
:10151000F8CF2F7D3FEE320F363098F727504D2D04
:10152000C501B4010E94EE094B015C018D2D826062
:10153000D82ECA94CC2059F0C8010E940B0C97FFFA
:10154000DACFD1FC04C09CCF812C912C5401D7FE62
:1015500008C0B094A09490948094811C911CA11C0C
:10156000B11C2D2DB501A401C7010E94E20981E043
:101570002196ECE00C94E20BA1E0B0E0E2ECFAE0A2
:101580000C94C20B7C012B015A01FC0117821682BC
:10159000812CF7017380F20173FC859173FE8191B8
:1015A000382F2F01882309F4E2C090E039830E948C
:1015B000F70B3981892B21F0C7010E940E0AE9CF70
:1015C000353241F4F20173FC359173FE31912F01F4
:1015D000353269F4C70139830E940B0C398197FDBC
:1015E000C4C03817B1F2B7010E94810CC0C03A32B2
:1015F00039F473FC359173FE31912F0111E001C074
:1016000010E0620160E020ED230F2A3070F41260D8
:1016100070E080E090E040E20E94EE09F60173FC89
:10162000359173FE31916F01EECF962E032F260177
:1016300011FF03C0611103C09AC099249A943836EF
:1016400019F03C3651F010C0F60173FC059173FEA1
:1016500001912F01083641F418601460F20173FC07
:10166000059173FE01912F01002309F480C0602FC2
:1016700070E08FE790E00E94000C892B09F477C09E
:1016800010FD07C0F501C080D180C50102965C0144
:1016900002C0C12CD12C0E3651F4F701468157817E
:1016A00060E070E0212FC6010E94E20972CF03368C
:1016B000A9F411FD02C099249394C7010E940B0C58
:1016C00097FD53C0C114D10429F0F6018083C601EF
:1016D00001966C019A949110F0CF43C0C7010E940B
:1016E0000E0A97FD42C00F3661F128F4043639F135
:1016F000093651F128C0033771F0053701F123C0D5
:10170000C114D10429F0F6016082C60101966C0172
:101710009A94992071F0C7010E940B0C3C0197FD2F
:1017200008C00E94F70B892B59F3B701C3010E942F
:10173000810CC114D104A9F0F601108212C010620C
:1017400003C0106101C01064212FA601692DC701DB
:101750000E94270A811105C0F7018381807329F453
:1017600006C010FD16CF839414CF882019F0882D61
:1017700090E002C08FEF9FEF2196E0E10C94DE0B2A
:101780002F923F924F925F926F927F928F929F9291
:10179000AF92BF92CF92DF92EF92FF920F931F937F
:1017A000CF93DF93CDB7DEB7CA1BDB0B0FB6F89430
:1017B000DEBF0FBECDBF09942A88398848885F8470
:1017C0006E847D848C849B84AA84B984C884DF80E1
:1017D000EE80FD800C811B81AA81B981CE0FD11DC5
:1017E0000FB6F894DEBF0FBECDBFED010895911185
:1017F0000C94F80C803219F089508550C8F7089580
:10180000FC010590061621F00020D9F7C0010895CB
:101810003197CF010895CF93DF93EC012B8120FF07
:1018200033C026FF0AC02F7B2B838E819F810196B8
:101830009F838E838A8190E029C022FF0FC0E881B8
:10184000F9818081082E000C990B009719F4206211
:101850002B831AC03196F983E8830EC0EA85FB8595
:10186000099597FF09C02B81019611F080E201C014
:1018700080E1822B8B8308C02E813F812F5F3F4FF9
:101880003F832E83992702C08FEF9FEFDF91CF9187
:1018900008950F931F93CF93DF93FB01238121FDC5
:1018A00003C08FEF9FEF28C022FF16C046815781EB
:1018B000248135814217530744F4A081B1819D01F1
:1018C0002F5F3F4F318320838C93268137812F5F99
:1018D0003F4F3783268310C0EB01092F182F008458
:1018E000F185E02D0995892BE1F68E819F81019686
:1018F0009F838E83812F902FDF91CF911F910F9126
:101900000895FB01238120FF12C026FD10C08F3FE8
:101910003FEF930761F082832F7D2064238326812C
:1019200037812150310937832683992708958FEF16
:101930009FEF0895FA01AA27283051F1203181F153
:10194000E8946F936E7F6E5F7F4F8F4F9F4FAF4FC7
:10195000B1E03ED0B4E03CD0670F781F891F9A1FDA
:10196000A11D680F791F8A1F911DA11D6A0F711D8E
:10197000811D911DA11D20D009F468943F912AE09A
:10198000269F11243019305D3193DEF6CF01089582
:10199000462F4770405D4193B3E00FD0C9F7F6CFB3
:1019A000462F4F70405D4A3318F0495D31FD40527B
:1019B000419302D0A9F7EACFB4E0A6959795879511
:1019C00077956795BA95C9F70097610571050895F0
:1019D0009B01AC010A2E069457954795379527959C
:1019E000BA95C9F7620F731F841F951FA01D089534
:0A19F000992788270895F894FFCF87
:1019FA0069646C65006D61696E0016451802021D06
:101A0A00040507090B000D0E000000CF06C706DF0C
:101A1A0006D706DC06D406CC06C406190003FF2046
:101A2A00FF00FF02426C696E6B65720048656C6C60
:0C1A3A006F20576F726C64210D0A0000D1
:00000001FF
