:1000000072C08CC08BC08AC089C088C087C086C0BF
:1000100085C084C03BC282C081C080C07FC05258AE
:10002000563D1B48445E17074E2E232D252D395271
:10003000550B373C1F1F2D1D1C50395B301D1928D7
:100040000B23151C486033410B56434022645C2946
:100050000232046402FE0464020004640000000032
:100060000000000000000000000000000000000090
:100070000000000000000000000000000000000080
:100080000000010A02FE04FD02FD04FD0000000064
:100090000000000000000000000000000000000060
:1000A0000000000000000000000000000000000050
:1000B0000000000003FA04C8000000000000000077
:1000C0000000000000000000000000000000000030
:1000D0000000000000000000000000000000000020
:1000E00000000000000011241FBECFE5D2E0DEBFFB
:1000F000CDBF10E0A0E6B0E0ECE8F5E002C005906E
:100100000D92A036B107D9F720E0A0E6B0E001C01B
:100110001D92AE37B207E1F717D036C271CF682F04
:10012000909160009F5F913319F09093600002C03E
:1001300010926000E0916000F0E0E25EFF4F80818D
:1001400017D281E0890F0895CF93DF93CDB7DEB743
:100150002D970FB6F894DEBF0FBECDBF82E08ABDEB
:1001600083BF84EF89BD89B7806189BF8FE187BB79
:10017000E9E6F0E082E383838287818B209162004D
:100180002B87822F90E0FC01EE0FFF1FE80FF91F75
:10019000ED59FF4F10821182128249E650E05C83D4
:1001A0004B830F2EFBE64F2EF0E05F2EF02D0F2E2F
:1001B000FCE62F2EF0E03F2EF02D0F2EFFE66F2EE7
:1001C000F0E07F2EF02DADE6B0E0BA83A983EEE635
:1001D000F0E0F887EF83812C912C9C01220F331FD4
:1001E000A901480F591F5A87498754018B819C8167
:1001F0009E838D83DC018D919C91892B09F448C0ED
:1002000007C124912230C9F4FC01E00FF11FEF5A1D
:10021000FF4F84918D3F41F08E3F59F4F101808171
:100220007EDFD2018C9329C085E079DFF2018083E3
:1002300024C0E491D201EC9320C02491233091F4A6
:10024000FC01E00FF11FEF5AFF4F8491893F28F026
:10025000E491A981BA81EC9310C0E491AF81B88593
:10026000EC930BC0E491E13041F4FC01E00FF11F8D
:10027000EF5AFF4FE491D101EC93EC85FD8580812D
:100280008E5F80838233C0F06F01D7011C9212C051
:100290006301C401880F991F880F991F880D991D4C
:1002A0008C01000F111F000F111F080F191F000FE5
:1002B000111F7301DD86CC866701F301808190E018
:1002C000F801E80FF91FE05BFF4F2491243009F09B
:1002D00098CFE981FA818081882309F440C08A3F60
:1002E00041F118F4893FD9F031C08B3F19F08C3FB0
:1002F00051F02CC0D2018C91882319F081508C933D
:1003000026C0108224C0D2018C91D1019C91891702
:1003100020F48F5FF20180831AC0108218C0D201CE
:100320008C91882319F081508C9311C0BAEFB0835F
:100330000EC0D2018C91D1019C91891720F48F5F5E
:10034000F201808304C029EF208301C01082AF81B5
:10035000B8858C9190E0ED81FE8191838083F501D9
:10036000EE0FFF1FEE0FFF1FEA0DFB1DCF01880FE1
:10037000991F880F991FE80FF91FEE0FFF1FD60175
:100380008C91E80FF11DEF5AFF4F84918E3F51F48D
:1003900082E3C5DE90E0880F991FED81FE81918395
:1003A000808315C084918D3F51F485E0B8DE90E0E4
:1003B000880F991FAD81BE818D939C9308C0E491F5
:1003C000F0E0EE0FFF1FAD81BE81ED93FC93F601CF
:1003D00080818E5F8233D0F4F501EE0FFF1FEE0FA8
:1003E000FF1FEA0DFB1D9F01220F331F220F331F3A
:1003F000E20FF31FEE0FFF1FE80FF11DE05BFF4F51
:10040000E491EE2319F0D6018C9302C0F60110821C
:10041000D1016C9182E3ACD0F2016081A0D0E9857A
:10042000FA85EA0DFB1DED59FF4F8083AD81BE813A
:100430008D919C91119701978D939C93BFEF8B1A8F
:100440009B0AEB81FC813796FC83EB83F7E04F0E30
:10045000511C27E0220E311C37E0630E711C4981CC
:100460005A81495F5F4F5A8349838F8198850796E8
:1004700098878F8393E08916910409F0B6CE78941B
:100480009B85809162009817E1F378CE1F920F92BE
:100490000FB60F9211242F938F939F93EF93FF9397
:1004A00018BA2091620081E090E0222311F080E0F0
:1004B00090E0FC01EE0FFF1F8E0F9F1FFC01ED5916
:1004C000FF4F908180916100891708F0C09A2091B8
:1004D000620081E090E0222311F080E090E0FC01D6
:1004E000EE0FFF1F8E0F9F1FFC01ED59FF4F9181F3
:1004F00080916100891708F0C19A2091620081E023
:1005000090E0222311F080E090E0FC01EE0FFF1F4D
:100510008E0F9F1FFC01ED59FF4F9281809161006A
:10052000891708F0C29A809161008F5F8093610003
:1005300080916100823348F01092610090916200D6
:1005400081E0911180E080936200FF91EF919F9193
:100550008F912F910F900FBE0F901F901895002430
:1005600080FD060E660F11F08695D1F7802D089557
:10057000991B79E004C0991F961708F0961B881FF5
:0C0580007A95C9F780950895F894FFCF94
:00000001FF
