:1000000027C041C040C03FC03EC03DC03CC03BC017
:100010003AC039C04EC137C036C035C034C052585E
:10002000563D1B48445E17074E2E232D252D395271
:10003000550B373C1F1F2D1D1C50395B301D1928D7
:100040000B23151C486033410B56434022645C2946
:1000500011241FBECFE5D2E0DEBFCDBF12E0A0E687
:10006000B0E0E0EAF3E002C005900D92A232B107E1
:10007000D9F722E0A2E2B2E001C01D92A733B20795
:10008000E1F717D08BC1BCCF809122028F5F813303
:1000900019F08093220202C010922202E091220203
:1000A000F0E0E25EFF4F80816AE06CD181E0890F71
:1000B0000895CF93DF93CDB7DEB729970FB6F894A5
:1000C000DEBF0FBECDBF82E08ABD83BF84EF89BD96
:1000D00089B7806189BF8FE187BB209124022F837C
:1000E000822F90E0FC01EE0FFF1FE80FF91FEB5D80
:1000F000FD4F1082118212824BE252E05A834983F3
:100100000F2EFDE22F2EF2E03F2EF02D0F2EFEE2FD
:100110004F2EF2E05F2EF02D612C712C9C01220FEE
:10012000331FD901A80FB91FBE83AD835301E981E5
:10013000FA81FC83EB8380819181892BE9F08EC069
:10014000213089F4F601E80FF91F81818F3F21F4F6
:100150009BDFD1018C9302C0F1018083A885B98512
:100160008C918E5F8C93E885F98580818639F0F0DB
:100170007F01D4011C9218C07201C301880F991F1E
:10018000880F991F860D971D8C0102951295107F7F
:100190001027007F1027081B190B000F111FF801F3
:1001A000E05AFF4F6F014201F986E8867401D201DF
:1001B0008C9190E0F801E80FF91FE05AFF4F208181
:1001C000223009F0BDCFA501440F551F440F551F24
:1001D0004A0D5B1D9A0122953295307F3227207F90
:1001E0003227241B350B220F331F205A3F4FF901B2
:1001F000E80FF91F81818F3F49F446DF90E0880FB7
:10020000991FEB81FC819183808307C090E0880F68
:10021000991FAB81BC818D939C93F70180818E5F88
:1002200080838639C8F49501220F331F220F331FB4
:100230002A0D3B1DF901E295F295F07FFE27E07F44
:10024000FE27E21BF30BEE0FFF1FE80FF11DE05A34
:10025000FF4F8081811102C0D7011C92F101808182
:10026000ED81FE81EA0DFB1DEB5DFD4F8083AB81CF
:10027000BC818D919C91119701978D939C93BFEFB9
:100280006B1A7B0AE981FA813496FA83E983F4E0F8
:100290002F0E311C24E0420E511C33E06316710412
:1002A00009F044CF78949F81809124029817E1F35C
:1002B00014CF1F920F920FB60F9211242F938F938A
:1002C0009F93EF93FF9318BA2091240281E090E06E
:1002D000222311F080E090E0FC01EE0FFF1F8E0F53
:1002E0009F1FFC01EB5DFD4F9081809123028917D8
:1002F00008F0C09A2091240281E090E0222311F0BE
:1003000080E090E0FC01EE0FFF1F8E0F9F1FFC01AD
:10031000EB5DFD4F918180912302891708F0C19A0E
:100320002091240281E090E0222311F080E090E00F
:10033000FC01EE0FFF1F8E0F9F1FFC01EB5DFD4FB9
:10034000928180912302891708F0C29A809123023A
:100350008F5F8093230280912302823348F01092B2
:1003600023029091240281E0911180E08093240285
:10037000FF91EF919F918F912F910F900FBE0F9052
:100380001F901895991B79E004C0991F961708F0E3
:10039000961B881F7A95C9F780950895F894FFCF2A
:1003A000010A026401FF0264000000000000000076
:1003B000000000000000000000000000000000003D
:1003C000000000000000000000000000000000002D
:1003D000000000000000000000000000000000001D
:1003E000000000000000000000000000000000000D
:1003F00000000000000000000000000000000000FD
:1004000000000000000000000000000000000000EC
:1004100000000000000000000000000000000000DC
:1004200000000000000000000000000000000000CC
:1004300000000000000001FF02FF000000000000BB
:1004400000000000000000000000000000000000AC
:10045000000000000000000000000000000000009C
:10046000000000000000000000000000000000008C
:10047000000000000000000000000000000000007C
:10048000000000000000000000000000000000006C
:10049000000000000000000000000000000000005C
:1004A000000000000000000000000000000000004C
:1004B000000000000000000000000000000000003C
:1004C0000000000000000000000000000132020AED
:1004D000012D020A0128020A0123020A011E020A52
:1004E0000119020A0114020A010F020A010A020A92
:1004F0000109020A0108020A0107020A0106020AAA
:100500000105020A0104020A0103020A0102020AA9
:100510000101020A0100020A0102020A0103020AA1
:100520000104020A0105020A0106020A0107020A81
:100530000108020A0109020A000000000000000090
:1005400000000000000000000000000000000000AB
:10055000000000000000000000000000000000009B
:02056000000099
:00000001FF
