:1000000027C041C040C03FC03EC03DC03CC03BC017
:100010003AC039C0CBC137C036C035C034C05258E1
:10002000563D1B48445E17074E2E232D252D395271
:10003000550B373C1F1F2D1D1C50395B301D1928D7
:100040000B23151C486033410B56434022645C2946
:1000500011241FBECFE5D2E0DEBFCDBF10E0A0E689
:10006000B0E0ECEAF4E002C005900D92A63FB107C3
:10007000D9F721E0A6EFB0E001C01D92A131B2078F
:10008000E1F717D011C2BCCF682F9091F6009F5FA7
:10009000913319F09093F60002C01092F600E091AF
:1000A000F600F0E0E25EFF4F8081F2D181E0890F3F
:1000B0000895CF93DF93CDB7DEB72D970FB6F894A1
:1000C000DEBF0FBECDBF82E08ABD83BF84EF89BD96
:1000D00089B7806189BF8FE187BBEFEFF0E082E3F2
:1000E0008383818787872091F8002987822F90E07A
:1000F000FC01EE0FFF1FE80FF91FE750FF4F1082C2
:10010000118212824FEF50E05C834B830F2EF1E09F
:100110006F2EF1E07F2EF02D0F2EF2E0CF2EF1E0CA
:10012000DF2EF02D0F2EF3E02F2EF1E03F2EF02DDD
:100130000F2EF4E04F2EF1E05F2EF02D19821A827F
:100140009C01220F331FD901A80FB91FB887AF83B5
:100150004601C980DA80EB81FC81FE83ED838081DA
:100160009181892BA1F1B3C02230B1F4F501E80FE0
:10017000F91F81818E3F41F08F3F59F4D4018C915A
:1001800083DFF301808319C085E07EDFD3018C9388
:1001900014C0F301808311C0233039F4F501E80F56
:1001A000F91F8181D1018C9308C0213031F4F50110
:1001B000E80FF91F8181F4018083AC85BD858C91A6
:1001C0008E5F8C938233E8F0F60110821AC05D8650
:1001D0004C86C601880F991F880F991F8C0D9D1D95
:1001E0008C01000F111F000F111F080F191F000FA6
:1001F000111F9801205A3F4F59015B864A867601AC
:100200006201A601D2018C9190E0F801E80FF91F7C
:10021000E05AFF4F2081243009F0A6CF67017A0110
:100220009601220F331F220F331F2C0D3D1DA901F4
:10023000440F551F440F551F240F351F220F331F26
:10024000205A3F4FF901E80FF91F81818F3F51F488
:1002500082E31ADF90E0880F991FED81FE81918380
:10026000808316C08E3F69F485E00EDF282F30E0D2
:10027000280F311D280F311DAD81BE812D933C9378
:1002800007C090E0880F991FED81FE8191838083E4
:10029000D7018C918E5F8C938233B8F4F601EE0F08
:1002A000FF1FEE0FFF1FEC0DFD1D9F01220F331FDF
:1002B000220F331FE20FF31FEE0FFF1FE80FF11D98
:1002C000E05AFF4F8081811102C0F7011082F101D5
:1002D00080818B3F41F118F48A3FD9F030C08C3FC8
:1002E00019F08D3F51F02BC0D3018C91882319F068
:1002F00081508C9324C0108222C0D3018C91D401F0
:100300009C91891720F48F5FF301808318C01082BD
:1003100016C0D3018C91882319F081508C930FC0A3
:10032000BBEFB0830CC0D3018C91D4019C91891791
:1003300020F48F5FF301808302C02AEF2083D40171
:100340006C9182E3A5D0F301608199D0EF81F885AB
:10035000EC0DFD1DE750FF4F8083AD81BE818D9177
:100360009C91119701978D939C93E981FA81319625
:10037000FA83E9832B813C812A5F3F4F3C832B83A7
:1003800036E0630E711C46E0840E911C56E0250E8B
:10039000311C86E0480E511C339709F0DACE789470
:1003A00099858091F8009817E1F39DCE1F920F92E6
:1003B0000FB60F9211242F938F939F93EF93FF9378
:1003C00018BA2091F80081E090E0222311F080E03B
:1003D00090E0FC01EE0FFF1F8E0F9F1FFC01E75006
:1003E000FF4F90818091F700891708F0C09A209103
:1003F000F80081E090E0222311F080E090E0FC0121
:10040000EE0FFF1F8E0F9F1FFC01E750FF4F9181E2
:100410008091F700891708F0C19A2091F80081E0D7
:1004200090E0222311F080E090E0FC01EE0FFF1F2E
:100430008E0F9F1FFC01E750FF4F92818091F700C4
:10044000891708F0C29A8091F7008F5F8093F700B8
:100450008091F700823348F01092F7009091F800F5
:1004600081E0911180E08093F800FF91EF919F91DE
:100470008F912F910F900FBE0F901F901895002411
:1004800080FD060E660F11F08695D1F7802D089538
:10049000991B79E004C0991F961708F0961B881FD6
:0C04A0007A95C9F780950895F894FFCF75
:1004AC000232046402FF04640200046400000000D1
:1004BC000000000000000000000000000000000030
:1004CC000000000000000000000000000000000020
:1004DC000000010A02FF04FE02FE04FE0000000000
:1004EC000000000000000000000000000000000000
:1004FC0000000000000000000000000000000000F0
:10050C000000000003FB04C8000000000000000015
:10051C0000000000000000000000000000000000CF
:10052C0000000000000000000000000000000000BF
:06053C00000000000000B9
:00000001FF
