:100000000EC026C070C124C023C067C021C020C05C
:100010001FC01EC04CC01CC079C11AC019C0112419
:100020001FBECFEDCDBF10E0A0E6B0E0E8E5F3E005
:1000300002C005900D92A43AB107D9F720E0A4EAD6
:10004000B0E001C01D92AA3AB207E1F702D082C126
:10005000D7CF04B603FE09C014BE0FB6F894A89516
:1000600081B5886181BD11BC0FBEF89480E285BF67
:100070008BE080BD90E898B98FE087BB80E188BBBA
:100080009CBD92E093BF99BF1CBC85BB80E489BD39
:1000900089B7806189BF789485B7846885BF85B743
:1000A000806885BF85B78B7F85BF8895F5CF1F9208
:1000B0000F920FB60F9211248F9388E0C198C29AC5
:1000C000C2988150D9F7C198C39AC398C0988F91AC
:1000D0000F900FBE0F901F9018951F920F920FB6A2
:1000E0000F9211242F933F934F935F938F939F937E
:1000F000AF93BF93EF93FF938091A4008F5F8093A2
:10010000A400883009F076C01092A400B4990AC007
:100110009091A800913340F49091A8009F5F909334
:10012000A80002C01092A8009091A8009033E1F4BA
:1001300099B5905C71F499B79F7E99BF19BCC1982D
:10014000C29AC2988150D9F7C198C39AC398C098EF
:100150004DC09F3F21F489B78F7E89BF47C099BDAD
:1001600089B7806189BF42C08091A9008630B0F014
:100170008091A900803390F48091A80081110EC075
:100180008091A5008F5F8093A500843011F41092B8
:10019000A5001092A6001092A70028C08091A70089
:1001A0008F5F8093A700E091A500F0E0EE0FFF1FA6
:1001B000E05AFF4F0190F081E02D90818917B0F057
:1001C0001092A7008091A6008F5F8093A600E09117
:1001D000A500F0E0EE0FFF1FE05AFF4F0190F08105
:1001E000E02D9181891710F01092A6008091A8004F
:1001F0008093A90089B5882309F457C0E091A50030
:10020000F0E0EE0FFF1FE05AFF4F0190F081E02D6C
:100210008091A600E80FF11D82819091A40041E039
:1002200050E002C0440F551F9A95E2F7482380E042
:1002300090E050E09A01082E02C0359527950A9467
:10024000E2F720FF02C0C19A01C0C198C29AC298C9
:1002500001968830910571F7C198C39AC398E091CF
:10026000A500F0E0EE0FFF1FE05AFF4F2081318123
:100270009091A600A091A500B0E0AA0FBB1FA05AC4
:10028000BF4FED91FC918181E82FF0E0E90FF11D66
:10029000E20FF31F8281882331F08091A400811145
:1002A00002C0C09A11C0C0980FC01092A600109250
:1002B000A7001092A40080B5846080BD80E28BBF4F
:1002C00085B7877E806185BFFF91EF91BF91AF9128
:1002D0009F918F915F914F913F912F910F900FBE02
:1002E0000F901F9018951F920F920FB60F92112426
:1002F0008F93B49905C088E181BD85E481BD1BBEA3
:100300008F910F900FBE0F901F9018951F920F9214
:100310000FB60F9211248F93B4990CC080B58B7FC8
:1003200080BD80E489BD89B7806189BF85B7877E3C
:1003300085BF02C080E28BBF0FB6F894A89581B547
:10034000886181BD11BC0FBE8F910F900FBE0F90C1
:080350001F901895F894FFCFEF
:100358009E0094006C006800FF01FF011813000064
:1003680080C0E0F0F8FCFEFFFF0000FFFF0000FF88
:10037800FF00000000000000000000010000010173
:100388000000010118040000F0FF0001010118023B
:04039800AA55000161
:00000001FF
