:100000000EC026C025C024C023C05FC021C020C0B0
:100010001FC01EC044C01CC01BC01AC019C0112480
:100020001FBECFEDCDBF10E0A0E6B0E0E6EDF2E000
:1000300002C005900D92A43AB107D9F720E0A4EAD6
:10004000B0E001C01D92AB3AB207E1F702D041C166
:10005000D7CFF89484B7846A84BF80B58B6080BDA5
:10006000479A85B7806285BF85B7877E85BF87B38E
:100070008F6087BBC49A8CB580688CBD83B7826063
:1000800083BF89B7826089BF8CB58F778CBD80E4D0
:1000900089BD89B7806189BF78948895FECF1F920A
:1000A0000F920FB60F9211248F9388E0C198C29AD5
:1000B000C2988150D9F7C198C39AC398C0988F91BC
:1000C0000F900FBE0F901F9018951F920F920FB6B2
:1000D0000F9211242F933F934F935F938F939F938E
:1000E000AF93BF93EF93FF938091A4008F5F8093B2
:1000F000A400883008F47BC01092A400B4990AC010
:100100008091A9008F3F31F08091A9008F5F80938B
:10011000A90002C01092A9008091A9008033F1F4D7
:1001200089B5805C71F489B78F7E89BF19BC88E07E
:10013000C198C29AC2988150D9F7C198C39AC398FE
:1001400027C08F3F31F489B78F7E89BF8FEF89BD7C
:100150001FC089BD89B7806189BF1AC08091AA007C
:100160008630B0F08091AA00803390F48091A9008D
:1001700081110EC08091A6008F5F8093A60084300D
:1001800010F01092A6001092A7008EEF8093A800A6
:100190008091A9008093AA0089B5882341F18091BC
:1001A000A8008F5F8093A800E091A600F0E0EE0F1A
:1001B000FF1FE05AFF4F0190F081E02D90818917D9
:1001C000B0F01092A8008091A7008F5F8093A700E5
:1001D000E091A600F0E0EE0FFF1FE05AFF4F019004
:1001E000F081E02D9181891710F01092A70089B558
:1001F000882309F45FC0E091A600F0E0EE0FFF1F36
:10020000E05AFF4F0190F081E02D8091A700E80FA8
:10021000F11D82819091A50041E050E002C0440FA1
:10022000551F9A95E2F7482380E090E050E09A014C
:10023000082E02C0359527950A94E2F720FF02C0E8
:10024000C19A01C0C198C29AC2980196883091059E
:1002500071F7C198C39AC3988091A5008F5F80936E
:10026000A500883010F01092A500E091A600F0E003
:10027000EE0FFF1FE05AFF4F208131819091A700C0
:10028000A091A600B0E0AA0FBB1FA05ABF4FED91EE
:10029000FC918181E82FF0E0E90FF11DE20FF31FDF
:1002A0008281882331F08091A500811102C0C09A1B
:1002B00001C0C098FF91EF91BF91AF919F918F9135
:1002C0005F914F913F912F910F900FBE0F901F9014
:0602D0001895F894FFCF21
:1002D6009E0094006C006800FF01FF0118130000E7
:1002E60080C0E0F0F8FCFEFFFF0000FFFF0000FF0B
:1002F600FF000000000000000000000100000101F6
:100306000000010118040000F0FF000101011802BD
:04031600AA550001E3
:00000001FF
