:100000000EC026C025C024C023C05FC021C020C0B0
:100010001FC01EC044C01CC01BC01AC019C0112480
:100020001FBECFEDCDBF10E0A0E6B0E0EEECF2E0F9
:1000300002C005900D92AE39B107D9F720E0AEE9C4
:10004000B0E001C01D92A53AB207E1F702D03DC170
:10005000D7CFF89484B7846A84BF80B58B6080BDA5
:10006000479A85B7806285BF85B7877E85BF87B38E
:100070008F6087BBC49A8CB580688CBD83B7826063
:1000800083BF89B7826089BF8CB58F778CBD80E4D0
:1000900089BD89B7806189BF78948895FECF1F920A
:1000A0000F920FB60F9211248F9388E0C198C29AD5
:1000B000C2988150D9F7C198C39AC398C0988F91BC
:1000C0000F900FBE0F901F9018951F920F920FB6B2
:1000D0000F9211242F933F934F935F938F939F938E
:1000E000AF93BF93EF93FF9380919E008F5F8093B8
:1000F0009E00883008F47BC010929E00B4990AC01C
:100100008091A3008F3F31F08091A3008F5F809397
:10011000A30002C01092A3008091A3008033F1F4E9
:1001200089B5805C71F489B78F7E89BF19BC88E07E
:10013000C198C29AC2988150D9F7C198C39AC398FE
:1001400027C08F3F31F489B78F7E89BF8FEF89BD7C
:100150001FC089BD89B7806189BF1AC08091A40082
:100160008630B0F08091A400803390F48091A30099
:1001700081110EC08091A0008F5F8093A00083301A
:1001800010F01092A0001092A1008EEF8093A200B8
:100190008091A3008093A40089B5882341F18091C8
:1001A000A2008F5F8093A200E091A000F0E0EE0F2C
:1001B000FF1FE05AFF4F0190F081E02D90818917D9
:1001C000B0F01092A2008091A1008F5F8093A100F7
:1001D000E091A000F0E0EE0FFF1FE05AFF4F01900A
:1001E000F081E02D9181891710F01092A10089B55E
:1001F000882309F45BC0E091A000F0E0EE0FFF1F40
:10020000E05AFF4F0190F081E02D8091A100E80FAE
:10021000F11D828190919F0041E050E002C0440FA7
:10022000551F9A95E2F7482380E090E050E09A014C
:10023000082E02C0359527950A94E2F720FF02C0E8
:10024000C19A01C0C198C29AC2980196883091059E
:1002500071F7C198C39AC39880919F008F5F809374
:100260009F00883010F010929F00E091A000F0E015
:10027000EE0FFF1FE05AFF4F208131819091A100C6
:10028000A091A000B0E0AA0FBB1FA05ABF4FED91F4
:10029000FC918181E82FF0E0E90FF11DE20FF31FDF
:1002A0008281882311F0C09A01C0C098FF91EF911C
:1002B000BF91AF919F918F915F914F913F912F91FE
:0E02C0000F900FBE0F901F901895F894FFCF6F
:1002CE0098008E0066001813000080C0E0F0F8FC65
:1002DE00FEFFFF0000FFFF0000FFFF000000000018
:1002EE0000000000000100000101000001011804DF
:0E02FE000000F0FF000101011802AA550001E6
:00000001FF
