:100000000EC026C025C024C023C05EC021C020C0B1
:100010001FC01EC044C01CC01BC01AC019C0112480
:100020001FBECFEDCDBF10E0A0E6B0E0E2E9F2E008
:1000300002C005900D92A437B107D9F720E0A4E7DC
:10004000B0E001C01D92A937B207E1F702D01FC18D
:10005000D7CFF89484B7846A84BF80B58B6080BDA5
:10006000479A85B7806285BF85B7877E85BF87B38E
:100070008F6087BBC49A8CB580688CBD83B7836062
:1000800083BF89B7826089BF8CB58F778CBD80E2D2
:1000900089BD89B7806189BF78948895FECF1F920A
:1000A0000F920FB60F9211248F9388E0C198C29AD5
:1000B000C2988150D9F7C198C39AC3988F910F9075
:1000C0000FBE0F901F9018951F920F920FB60F92B0
:1000D00011242F933F934F935F938F939F93AF93ED
:1000E000BF93EF93FF93B4990AC0809177008F3F3D
:1000F00031F0809177008F5F8093770002C010927B
:10010000770080917700803309F589B5805E0AF425
:1001100080E081110EC089B78F7E89BF19BC88E04D
:10012000C198C29AC2988150D9F7C198C39AC3980E
:1001300027C08F3F31F489B78F7E89BF8FEF89BD8C
:100140001FC089BD89B7806189BF1AC080917800BE
:100150008630B0F080917800803390F48091770001
:1001600081110EC0809174008F5F80937400823083
:1001700010F010927400109275008EEF809376004C
:10018000809177008093780089B5882309F470C046
:10019000809176008F5F80937600E0917400F0E0AC
:1001A000EE0FFF1FE05AFF4F0190F081E02D90818C
:1001B0008917B0F010927600809175008F5F809360
:1001C0007500E0917400F0E0EE0FFF1FE05AFF4F62
:1001D0000190F081E02D9181891710F01092750047
:1001E000E0917400F0E0EE0FFF1FE05AFF4F019026
:1001F000F081E02D80917500E80FF11D428180E0D3
:1002000090E050E09A01082E02C0359527950A9497
:10021000E2F720FF02C0C19A01C0C198C29AC298F9
:1002200001968830910571F7C198C39AC398E091FF
:100230007400F0E0EE0FFF1FE05AFF4F2081318184
:1002400090917500A0917400B0E0AA0FBB1FA05A56
:10025000BF4FED91FC918181E82FF0E0E90FF11D96
:10026000E20FF31F8281882311F0C09A01C0C09869
:10027000FF91EF91BF91AF919F918F915F914F91BE
:100280003F912F910F900FBE0F901F901895F894EB
:02029000FFCF9E
:100292006E00640018040000F0FF00010101180262
:0402A200AA55000158
:00000001FF
