:100000000EC028C029C026C025C024C023C022C0DD
:1000100021C020C07DC91EC01EC01CC01BC0112431
:100020001FBECFE5D2E0DEBFCDBF10E0A0E6B0E05E
:10003000E6E2F9E102C005900D92AE39B107D9F7B9
:1000400022E0AEE9B0E001C01D92A730B207E1F7AF
:100050007AD967CCD5CF18951F920F920FB60F9211
:1000600011242F933F934F935F936F937F938F93BD
:100070009F93AF93BF93EF93FF93B8D8B399FECFFD
:10008000B7D8682F70E084E0660F771F8A95E1F794
:10009000605A7F4F83EA90E03DDC81E08093B300BB
:1000A000AAD885B78F7D85BFFF91EF91BF91AF91A2
:1000B0009F918F917F916F915F914F913F912F9180
:1000C0000F900FBE0F901F901895FF920F931F93E4
:1000D000CF93DF93C82FD42F152F062FF72E87FF2E
:1000E00008C040E050E0BA0187E7EFDF8230F8F463
:1000F000CF7784D884D881D882D88C2F94D88F2D6C
:1001000092D8802F90D8812F8ED88D2F8CD8C03444
:1001100021F0C83421F487E803C085E901C081E0FB
:1001200082D8CAE06CD887FF02C0C150D9F7DF91EE
:10013000CF911F910F91FF900895DF92EF92FF9260
:100140000F931F93CF93DF9300D000D0CDB7DEB7CE
:100150004AD80AE010E053D801501109E1F74DD810
:1001600008E512E04CD801501109E1F740E050E0F9
:10017000BA0180E4AADF813009F06EC04AEA51E09A
:1001800060E070E088E4A1DF813031F58E010F5F1F
:100190001F4F780124E0D22ED00E31D8F701819381
:1001A0007F01DE12FACF8B81813009F055C08C813E
:1001B0008A3A09F051C098EAE92E91E6F92E40E01A
:1001C00050E060E070E489EE80DF882309F1F1E01F
:1001D000EF1AF108A1F740C040E050E0BA0189EE03
:1001E00074DF823018F011E001E402C012E009EE81
:1001F00088EAE82E81E6F82E40E050E0BA01802F30
:1002000064DF882309F1F1E0EF1AF108A9F724C0AF
:1002100040E050E0BA018AE758DF81111DC0EFD7F6
:10022000F80181938F01DE12FACF898186FD02C029
:1002300014E001C01CE01093A100E0D7E0D781E0FA
:10024000112361F080E00AC040E052E060E070E01D
:1002500080E53BDF882379F310E0EDCF0F900F901E
:100260000F900F90DF91CF911F910F91FF90EF9022
:10027000DF900895CF92DF92EF92FF920F931F933A
:10028000CF93DF937C0169018091A10083FD07C0BA
:1002900089E0440F551F661F771F8A95D1F781E5C6
:1002A00014DF882311F0C1E00FC0C0E3D5E7A7D762
:1002B0008F3F19F42197D9F7F6CF8E3FA1F7A80108
:1002C000B601C701BDD7C0E099D799D78C2FDF9170
:1002D000CF911F910F91FF90EF90DF90CF900895F5
:1002E0008F929F92AF92BF92CF92DF92EF92FF9246
:1002F000CF93DF93C0919E00D0919F00625071090F
:1003000081099109CE80DF80E884F98422E0C21A55
:10031000D108E108F1086C157D058E059F0590F464
:100320002A8130E040E050E075DA49015A018A89BB
:100330009B89AC89BD89BC01CD01680D791D8A1DE1
:100340009B1D03C060E070E0CB01DF91CF91FF9077
:10035000EF90DF90CF90BF90AF909F908F900895D7
:100360000F931F93CF93DF93DC01E0919E00F091F8
:100370009F0011961C921E9214966D917D918D9105
:100380009C911797613071058105910559F106819E
:10039000178120853185601771078207930710F553
:1003A000611571058105910539F42081233021F40F
:1003B0006685778580899189ED01688779878A8745
:1003C0009B87611571058105910511F089DF04C0D6
:1003D00066857785808991896C877D878E879F87E1
:1003E00080E001C081E0DF91CF911F910F910895CE
:1003F0004F925F926F927F92AF92BF92CF92DF92B5
:10040000EF92FF920F931F93CF93DF9300D000D012
:10041000CDB7DEB76B017C01A0909E00B0909F002D
:1004200082E0C816D104E104F10408F4A0C0F5018B
:1004300086819781A085B185C816D906EA06FB0694
:1004400008F095C08081823009F450C0833009F4EF
:1004500068C0813009F08BC02601569447944C0C3B
:100460005D1C92013170452C55244694612C712CF1
:100470004285538564857585440D551D661D771D20
:100480002F3FF1E03F0729F002E010E0CE01019696
:100490001AC001E010E02FEF31E0CE010196EADE54
:1004A000811165C0F50142855385648575854F5F6F
:1004B0005F4F6F4F7F4F440D551D661D771D20E028
:1004C00030E0CE010296D6DE811151C089819A8139
:1004D000C0FE07C0BC01E4E076956795EA95E1F7B8
:1004E00002C0BC017F7080E090E045C096013327D8
:1004F000220F331F77276F2D5E2D4D2DF50182853D
:100500009385A485B585480F591F6A1F7B1F02E09C
:1005100010E0CE010196AEDE811129C069817A8199
:10052000E2CF96012F773327220F331F220F331F7D
:1005300097E0F694E794D794C7949A95D1F7F5018C
:1005400042855385648575854C0D5D1D6E1D7F1D2F
:1005500004E010E0CE0101968DDE811108C0898192
:100560009A81AB81BC81BC01CD019F7004C061E068
:1005700070E080E090E00F900F900F900F90DF916F
:10058000CF911F910F91FF90EF90DF90CF90BF9090
:10059000AF907F906F905F904F900895CF92DF92D1
:1005A000EF92FF920F931F93CF93DF93EC01E090B4
:1005B0009E00F0909F00088119810F5F1F4F11F47A
:1005C00083E055C04C855D856E857F85411551055D
:1005D00061057105A9F3C8018F709927892B09F06E
:1005E00041C04F5F5F4F6F4F7F4F4C875D876E8776
:1005F0007F87688579858A859B85F70161157105F7
:100600008105910531F48481958108171907C0F699
:1006100029C0228130E0A901415051099801E4E04C
:1006200036952795EA95E1F724233523232BD1F43A
:10063000DFDE6230710581059105C0F0F701C680EB
:10064000D780E084F1846C157D058E059F0508F048
:10065000B7CF688779878A879B8742DE6C877D87DB
:100660008E879F871983088380E001C081E0DF9136
:10067000CF911F910F91FF90EF90DF90CF90089551
:10068000CF92DF92EF92FF920F931F93CF93DF935E
:10069000EC016A017B0102E010E02EEF31E0EADDBF
:1006A000811124C08881998185359A4A09F526E30C
:1006B00030E0B701A601CE01DDDD811107C08881E0
:1006C00099818634914411F480E015C002E010E075
:1006D00022E530E0B701A601CE01CCDD81110AC0D0
:1006E000888199818634914429F4EECF83E003C058
:1006F00082E001C081E0DF91CF911F910F91FF90C7
:10070000EF90DF90CF9008959F92AF92BF92CF92DB
:10071000DF92EF92FF920F931F93CF93DF93EC0141
:100720006B01242F952FDA018D91AD018032C9F331
:10073000E22EF92E8F3219F4BFEFEB1AFB0A1C825E
:100740001D821E821F82F7018081813238F050E2C3
:10075000952E5601FBE0AF0EB11C5CC0CE0100DE51
:10076000D6011C92BDC090E010E048E051E0510F6E
:100770009701210F311DD9018C91813208F055C0AC
:10078000E50EF11C91E0813208F090E09387CE01F4
:10079000E7DD811190C0288139812F70332745E032
:1007A000220F331F4A95E1F74C855D856E857F8565
:1007B00000E210E0C6015EDD811186C0F601808195
:1007C000882309F47AC0438543FD72C06A817B8126
:1007D0009B01EA15FB0509F062C0FB0183858111CD
:1007E00075C044FF75C0D60154968D919C91559764
:1007F000A0E0B0E0DC0199278827F601428D538DF7
:1008000060E070E0842B952BA62BB72B8C839D8307
:10081000AE83BF83EA81FB81DF01CF010B96A8176E
:10082000B90709F4A0CF9D92FACF8F3209F4A8CF6F
:100830008E3209F44FC0941708F0A2CF292F30E070
:1008400001E0090F6FE7680F6F3120F060E2680F79
:100850006D31D0F4642F70E06150710926173707AD
:100860009CF4B701650F711DDB015C912E0F3F1FDA
:10087000D9018C939E5F9F01200F311DD9015C939C
:1008800052E0510F152F72CF9FE9980F9A3108F45B
:1008900080522E0F3F1FD9018C93902FF3CF81915F
:1008A000D9015D919D0190E0851B910909F491CFDB
:1008B000CE0174DE6ECF833099F4EA81FB818385AB
:1008C000882331F083E00CC081E00AC080E008C0DA
:1008D00084E006C0483009F053CF98E04BE0D2CF17
:1008E000DF91CF911F910F91FF90EF90DF90CF900C
:1008F000BF90AF909F9008952F923F924F925F923A
:100900006F927F928F929F92AF92BF92CF92DF921F
:10091000EF92FF920F931F93CF93DF93CDB7DEB784
:10092000A4970FB6F894DEBF0FBECDBF10929F0004
:1009300010929E00009709F4CAC01C01FEDB80FDE6
:10094000C8C040E050E0BA01CE01019699DE813086
:10095000E9F400E110E02EEB31E040E050E0BA01B4
:10096000CE01019687DC882311F081E0B3C08D8130
:10097000811102C087E0AEC049845A846B847C84B4
:10098000B301A201CE0101967BDE03C0412C512CA4
:100990003201833051F38111EDCF04E210E02DE0FC
:1009A00030E0B301A201CE01019664DC8111DDCFFC
:1009B0006A857B8580E090E0611571058105910570
:1009C00021F4688D798D8A8D9B8D2C8130E040E0FB
:1009D00050E020D749015A010A811B8120E030E014
:1009E00073016201C00ED11EE21EF31EF101C28628
:1009F000D386E486F586498142834D805E805582A8
:100A000044828F819885A0E0B0E00097A105B105F0
:100A100021F48C899D89AE89BF8954E0569447940E
:100A20005A95E1F7612C712C801B910BA20BB30B33
:100A300088199909AA09BB09BC01CD016419750976
:100A400086099709242F30E040E050E0BFD6DA0154
:100A5000C9010296A11DB11DF10186839783A0876C
:100A6000B187873FFFE09F07A105B10538F0873FB9
:100A70009F4FA105B10520F083E003C081E001C0D4
:100A800082E0F1018083833029F488A199A1AAA191
:100A9000BBA107C0D501C4018C0D9D1DAE1DBF1D9E
:100AA000F10186879787A08BB18B4C0C5D1C6E1C67
:100AB0007F1C840C951CA61CB71CF101828A938AAA
:100AC000A48AB58A118230929F0020929E0080E015
:100AD00001C082E0A4960FB6F894DEBF0FBECDBF72
:100AE000DF91CF911F910F91FF90EF90DF90CF900A
:100AF000BF90AF909F908F907F906F905F904F903E
:100B00003F902F9008950F931F93CF93DF93CDB70E
:100B1000DEB7EC970FB6F894DEBF0FBECDBF0091E5
:100B20009E0010919F0001151105C1F1AC01F80163
:100B30001182CE01C1969CA38BA3BE016F5F7F4F34
:100B40004097E2DD81112DC08981882349F18C8590
:100B500084FD26C08D899E89A0E0B0E0DC01992744
:100B600088274B8D5C8D60E070E0842B952BA62B45
:100B7000B72BF801868F978FA0A3B1A38D8D9E8D83
:100B8000AF8DB8A1828F938FA48FB58F168A178AE5
:100B9000108E118E81E0818380E003C086E001C069
:100BA00083E0EC960FB6F894DEBF0FBECDBFDF91A9
:100BB000CF911F910F9108954F925F926F927F9204
:100BC0008F929F92AF92BF92CF92DF92EF92FF925D
:100BD0000F931F93CF93DF934C016B015A01C09188
:100BE0009E00D0919F00FA0111821082209709F493
:100BF0009DC0898180FF9CC08A8D9B8DAC8DBD8DF1
:100C00004E895F89688D798D841B950BA60BB70B78
:100C1000A60160E070E084179507A607B70708F4FF
:100C20006C013401412C32E0532EC114D10409F47B
:100C300078C08E899F89A88DB98DAC01BD01517096
:100C400066277727452B462B472BC9F5FA80FA9460
:100C5000AC01BD0129E076956795579547952A9592
:100C6000D1F7F422C1F4892B8A2B8B2B29F46E8DBA
:100C70007F8D88A199A105C06AA17BA18CA19DA1AE
:100C8000B7DB623071058105910508F44CC06AA399
:100C90007BA38CA39DA36AA17BA18CA19DA120DB3A
:100CA0006115710581059105F1F1DC01CB018F0D15
:100CB000911DA11DB11D8EA39FA3A8A7B9A72E8921
:100CC0003F893170C201821B930B76018C159D0503
:100CD00008F47C014EA15FA168A579A58114910457
:100CE00011F0C30102C080E090E08701C3DA8111F6
:100CF0001AC08E899F89A88DB98D8E0D9F1DA11D4B
:100D0000B11D8E8B9F8BA88FB98F6E0C7F1CCE1858
:100D1000DF08F50180819181E80EF91EF182E08201
:100D200084CF80E006C0198281E003C086E001C064
:100D300085E0DF91CF911F910F91FF90EF90DF90B1
:100D4000CF90BF90AF909F908F907F906F905F906B
:100D50004F9008954F925F926F927F928F929F92E1
:100D6000AF92BF92CF92DF92EF92FF920F931F93B9
:100D7000CF93DF9300D000D0CDB7DEB7362F272F2B
:100D800000919E0010919F000115110509F4E1C02A
:100D9000D80111964C91119740FFDDC05A964D91A4
:100DA0005D916D917C915D97C32ED22E7C014C1587
:100DB0005D056E057F0510F46A017B01F801468828
:100DC0005788608C718C168A178A108E118EC11408
:100DD000D104E104F10409F4C0C08280912CA12C5B
:100DE000B12C39E0880C991CAA1CBB1C3A95D1F790
:100DF0004114510461047104E9F1B1E04B1A510846
:100E000061087108C701B601615071098109910932
:100E1000A5019401DBD429833A834B835C83C3010E
:100E2000B201A5019401D2D489819A81AB81BC81A0
:100E300082179307A407B507E8F088279927DC01F4
:100E400088199909AA09BB09482259226A227B22DA
:100E5000D80156964D925D926D927C925997C41826
:100E6000D508E608F70892966D917D918D919C9139
:100E7000959730C0F801668D778D80A191A162A30E
:100E800073A384A395A326C0B3DA623071058105EC
:100E9000910508F459C0F801468057806084718438
:100EA000641575058605970508F04EC062A373A307
:100EB00084A395A346885788608C718C480C591C74
:100EC0006A1C7B1C468A578A608E718EC818D908A6
:100ED000EA08FB088C149D04AE04BF04A8F2D801F4
:100EE00056968D909D90AD90BC905997C80CD91C8A
:100EF000EA1CFB1CF801C68AD78AE08EF18EF0D975
:100F00006115710581059105F9F029E0F694E794E2
:100F1000D794C7942A95D1F7D80112962C9130E036
:100F2000215031094901330FAA08BB08C820D92034
:100F3000EA20FB20C60ED71EE81EF91EF801C6A245
:100F4000D7A2E0A6F1A609C0D80111961C9281E0B3
:100F500005C086E003C085E001C080E00F900F90DF
:100F60000F900F90DF91CF911F910F91FF90EF9015
:100F7000DF90CF90BF90AF909F908F907F906F90B9
:100F80005F904F9008950F931F93CF93DF93CDB74A
:100F9000DEB7AC970FB6F894DEBF0FBECDBF209181
:100FA0009E0030919F00232B79F1AB018C01CE0183
:100FB0008196F80193838283BE016F5F7F4FC801E2
:100FC000A3DB81111EC089818823C9F08C8584FD33
:100FD00002C084E01AC08D899E89A0E0B0E0DC01E7
:100FE000992788274B8D5C8D60E070E0842B952BD2
:100FF000A62BB72BF80184839583A683B783C801FA
:10100000AFD9833011F4E5CF86E0AC960FB6F894F3
:10101000DEBF0FBECDBFDF91CF911F910F9108951D
:10102000CF92DF92EF92FF920F931F93CF93DF93B4
:10103000CDB7DEB7AC970FB6F894DEBF0FBECDBF0D
:1010400020919E0030919F00232B09F4B0C06B01CA
:101050007C01CE018196D70113969C938E931297B3
:10106000672B19F4C7017CD9AFC093E0D7011C9658
:101070004D915D916D917C911F97411551056105D1
:10108000710511F1F701208131812F70332785E03F
:10109000220F331F8A95E1F700E210E0CE0101969E
:1010A000E9D8811186C08981882309F484C09C8590
:1010B000853E21F08E3211F093FF11C0C7016EDA28
:1010C000982F882399F278C0892F992341F0F7014E
:1010D0001486158616861786933009F06FC0860130
:1010E000075F1F4FD7011C964D915D916D917C91CB
:1010F0001F97452B462B472B09F44AC09E012F5FB3
:101100003F4FF6017196D9018D919D01803271F0AA
:10111000853009F485EE0F5F1F4FA801415051093A
:10112000DA018C930E171F0771F701C0F80189854A
:10113000803299F09EE290839F012E5F3F4F818322
:101140008A85803231F02F5F3F4F82838B858032DA
:1011500011F4F90102C0838334968C85D601189668
:101160008C9318974D8D5E8D6F8D78A14D935D9307
:101170006D937C931397898D9A8D15969C938E937E
:1011800014978F89988D17969C938E9316978F013D
:10119000F8011082C70102DA8330B1F4D7011C963E
:1011A0001D921D921D921C921F9780E00DC086E03B
:1011B0000BC091E001C093E0892F89CF911104C049
:1011C0008601075F1F4FE4CFAC960FB6F894DEBFE1
:1011D0000FBECDBFDF91CF911F910F91FF90EF9088
:1011E000DF90CF90089588E08DB90895BA9808955A
:1011F00000008FB10895BA9A08950895089584E083
:1012000086BB86BB86BB86BB86BB86BB86BB86BBD6
:1012100086BB86BB86BB86BB86BB86BB86BB86BBC6
:1012200000008FB1089594E068B378E087FB61F91E
:1012300068BB880F96BB96BB7A95C1F7C19A089593
:10124000DC01FB0122E032E02E1B3F0B241B350B9F
:1012500084E0319788F086BB86BB86BB86BB86BBA5
:1012600086BB86BB86BB86BB86BB86BB86BB86BB76
:1012700086BB86BB86BBEDCF109731F0C0DF8D9368
:1012800041505040D9F72FC08C9956958C9947956D
:1012900089995695899947956091A000ACECB0E08A
:1012A000A60FB11D8091DC018C3FE0F78C99A7DF80
:1012B000A6DF8C998058E82F899B07C08C999FDF07
:1012C0009EDF8C998058E80FE795ED93F894809114
:1012D000DC0183958093DC01789463954150504004
:1012E000E9F66093A00084E086BB86BB86BB86BB24
:1012F00086BB86BB86BB86BB86BB86BB86BB86BBE6
:1013000086BB86BB86BB86BB2150304069F70895FB
:101310008F938FB78F93EF93FF93E091A200FF27F6
:10132000E453FF4F8091DC01815038F08093DC0161
:1013300081918BBDEC5CE093A200FF91EF918F91C6
:101340008FBF8F911895C1B7F89414BE9FE088E1C4
:101350000FB6F894A89581BD0FBE91BD89E288BBF8
:1013600086E387BBAB9A9BB79F7D9BBF85B7877E84
:10137000806185BF38DF3ADF7894C19A2FEF64E34C
:101380008CE0215060408040E1F700C00000C1982F
:10139000B39B02C0A895FCCFC19AB39902C0A8958F
:1013A000FCCFC1989FEFE4E3FCE09150E040F040B7
:1013B000E1F700C00000C19AA8951ADF8A3A41F40B
:1013C0002FE769EA83E0215060408040E1F70AC0DE
:1013D0000FDF853549F49FEFE4E3FCE09150E040F6
:1013E000F040E1F700C00000A895C19804DF8DED42
:1013F00091E082DA811121C01092CC0080E990E066
:1014000082DB811107C04AEC50E061E070E08CECB7
:1014100090E0D2DB8091CC008C0F81BF67E970E057
:101420008CEC91E0B0DD382E24E0821306C066E932
:1014300070E08CEC91E0A7DD382E8BB780628BBF1B
:10144000C0E8D8E18FE0982E0DEB10E090E4492E33
:1014500092E4592E9FE0692E712CA12C22E0B22E2D
:1014600013BE1ABC80B7882371F080E881508EBD0E
:101470008BBDE7ECF0E03197F1F700C0000081117F
:10148000F5CF10BE1CBC0FB6F894A89581B5886145
:1014900081BD11BC0FBE85B7806285BF8091B3004E
:1014A000811102C08895FACF0FB6F894A895D1BDE6
:1014B0000FBE91BC3110D4CFA89564EB70E08CECDA
:1014C00091E0AEDD382E8111CBCF8091BD00882315
:1014D00009F4C6CF8091BC00827171F7F0E0033A45
:1014E0001F0751F71092B300A8958CEC90E00BDB2E
:1014F000382E811161C14AEC50E06CE070E08CEC58
:1015000090E05ADB81115FC18091CA009091CB00BD
:101510000C9709F058C18091D4009091D500A0910A
:10152000D600B091D70087359144A645B54409F05F
:101530004AC1812CA8954AEC50E068E070E08CEC40
:1015400090E03ADB8091CA009091CB00089709F0B7
:101550003AC1C090D000D090D100E090D200F0907D
:10156000D3008091CC009091CD00A091CE00B0919D
:10157000CF008C3469E4960763E5A60764E5B607F7
:1015800009F4C5C078F48636FDE69F07F4E7AF0797
:10159000F0E2BF07B9F084349944A345B04509F09F
:1015A00012C1B5C0843661E6960764E7A60761E616
:1015B000B60709F45EC086369146A346B44709F0E3
:1015C00002C1A5C0C0FE05C0FFEFCF1ADF0AEF0AB7
:1015D000FF0AD701C6014097A109B10985359105D8
:1015E000A105B10508F0EFC04AEC50E0B6018CEC63
:1015F00090E0E2DA8091CA009091CB00A0E0B0E0E8
:101600008C159D05AE05BF0509F0DDC08091CC00AD
:10161000813009F0D8C08090CE008FEF880D8230E5
:1016200008F0D1C081BA8091DA00883019F0803199
:1016300009F0C9C091B3982B91BB84FD880C20910F
:10164000D0003091D1004091D2005091D300DA0106
:10165000C90180549F41A109B10981349C49A10568
:10166000B10508F0B0C0C301B201B0D0215029BD0E
:1016700061CF882009F4A7C0C11484E0D806E10432
:10168000F10408F4A0C0882D90E00197092E000C09
:10169000AA0BBB0BAC01BD014C215D216E217F214A
:1016A000452B462B472B09F08EC04091F3015091FA
:1016B000F4016091F5017091F60184239523A6232E
:1016C000B723892B8A2B8B2B09F07DC01092DC016C
:1016D0001092A2001092A00080B7882379F1809127
:1016E000F3019091F4019170B501681B790B4AECFC
:1016F00050E080E090E060DA8091CA009091CB00E9
:10170000C81AD90AE108F1088824839447C0C0FEAA
:1017100005C09FEFC91AD90AE90AF90A8091F301B5
:101720009091F401A091F501B091F601BC01CD01B9
:101730006C0D7D1D8E1D9F1D0DDBFCCE86E087BDD3
:1017400080E68CBD81E080BF82E08ABD83BF80E1FE
:1017500089BF80E08F5F8EBD8BBDE7ECF0E03197F5
:10176000F1F700C000008038A9F7B9CF60E074E05D
:101770004AEC50E080E090E01FDA382E2091CA0059
:101780003091CB0021153440B9F484E0D81AE10837
:10179000F108880C8091B30081110AC0A895F1E08E
:1017A000CF16F4E0DF06E104F10400F7B601E0CF64
:1017B000839491E08912F2CF8091DC018111FCCFFA
:1017C000CEBDCBBD4DCE33243A944ACEA1E21A2EE3
:1017D000AA1BBB1BFD010DC0AA1FBB1FEE1FFF1FD5
:1017E000A217B307E407F50720F0A21BB30BE40B25
:1017F000F50B661F771F881F991F1A9469F760956C
:101800007095809590959B01AC01BD01CF01089525
:1018100068940013E894A0E0B0E0E0E1FCE01DC0B3
:10182000EFEFE7F959016A015E23550FEE08FE2C30
:1018300087019B01AC019E23990F660B762FCB018C
:101840003BD0CDB7DEB7EAE024C02F923F924F9253
:101850005F926F927F928F929F92AF92BF92CF9240
:10186000DF92EF92FF920F931F93CF93DF93CDB749
:10187000DEB7CA1BDB0B0FB6F894DEBF0FBECDBFC1
:1018800009942A88398848885F846E847D848C8492
:101890009B84AA84B984C884DF80EE80FD800C819B
:1018A0001B81AA81B981CE0FD11D0FB6F894DEBF7E
:1018B0000FBECDBFED010895DF93CF939F92A0E4BB
:1018C0009A2E0024D001E001F00116950795F794B7
:1018D000E794D794C794B794A79448F41068A20FDC
:1018E000B31FC41FD51FE61FF71F081E191E220FA6
:1018F000331F441F551F661F771F881F991F9A9417
:1019000021F79D01AE01BF01C00111249F90CF912D
:10191000DF910895FB01DC0101900D920020E1F7B9
:061920000895F894FFCFCA
:10192600626565702E776176000000000000000099
:101936007065772E776176000000000000000000D9
:10194600646561642E776176000000000000000087
:0E1956006F736363616C00736F756E64730072
:00000001FF
