:1000000011C02BC05CC589C528C027C026C025C02B
:1000100024C023C0C1C021C020C01FC01EC0257382
:100020002F25730011241FBECFE5D2E0DEBFCDBF68
:1000300010E0A0E6B0E0EEE1FFE102C005900D9215
:10004000AC36B107D9F721E0ACE6B0E001C01D92B3
:10005000A13DB207E1F795D160CFD2CFA895019726
:1000600028F0E0EAFFE03197F1F7F8CF089572E069
:100070007A95F1F70197D9F7A895089588E08DB999
:1000800008950895089584E086BB86BB86BB86BB31
:1000900086BB86BB86BB86BB86BB86BB86BB86BB58
:1000A00086BB86BB86BB86BB00008FB1089594E0FB
:1000B00068B378E087FB61F968BB880F96BB96BB95
:1000C0007A95C1F7C19A0895DC01FB0122E032E084
:1000D0002E1B3F0B241B350B84E0319788F086BB29
:1000E00086BB86BB86BB86BB86BB86BB86BB86BB08
:1000F00086BB86BB86BB86BB86BB86BB86BBEDCF7D
:10010000109731F0C0DF8D9341505040D9F72FC088
:100110008C9956958C9947958999569589994795C3
:1001200060917900A3E9B0E0A60FB11D8091A30111
:100130008C3FE0F78C99A7DFA6DF8C998058E82FD9
:10014000899B07C08C999FDF9EDF8C998058E80FB0
:10015000E795ED93F8948091A30183958093A30193
:100160007894639541505040E9F66093790084E0BB
:1001700086BB86BB86BB86BB86BB86BB86BB86BB77
:1001800086BB86BB86BB86BB86BB86BB86BB86BB67
:100190002150304069F708958F938FB78F93EF9375
:1001A000FF93E0917A00FF27ED56FF4F8091A30166
:1001B000815038F08093A30181918BBDE359E09386
:1001C0007A00FF91EF918F918FBF8F9118958A30B0
:1001D00019F48DE001D08AE0FF93EF93E0916C0079
:1001E000F0916D00309709F00995EF91FF91089516
:1001F000FC018591803011F0EADFFBCF0895FF27E5
:10020000E0E230E247FF0CC0419597FF09C0EDE204
:100210006095709580959095611D711D811D911D52
:1002200027FF02C0219530E350E2AA27660F771F0F
:10023000881F991FAA1FA41710F0A41B63955A9535
:10024000A9F7AA3008F0A95FA05DAF93F3956115F7
:1002500071058105910541F7ED3211F4EF93F395A6
:10026000F21718F43F93F395FBCF8F91B0DFFA9517
:10027000E1F70895E991F9918591803021F0853277
:1002800019F0A5DFF9CF089520E0E8945591553293
:10029000C1F3503311F4689455915A3348F45053D4
:1002A00090F3220F022E220F220F200D250FF4CFE4
:1002B0000EF4219589919991533619F3533729F109
:1002C000533559F1BC0188279927E8945C3621F40D
:1002D0008991999168945591543639F446EF7EF09E
:1002E00077FF0DC08FEF9FEF0AC055374AE039F016
:1002F000583540E121F0523642E009F00895FF936D
:10030000EF937DDFEF91FF91B7CFFF93EF93FC0168
:1003100081918030B9F35BDFFBCFFF93EF9368DF10
:10032000F1CFDF93CF93CDB7DEB72596A3DFCF9183
:10033000DF910895F70181937F010895DF93CF93B3
:10034000CDB7DEB72596E0916C00F0916D00EF938C
:10035000FF93EAE9F1E0E0936C00F0936D00FF9207
:10036000EF92E990F99086DFF7011082EF90FF900D
:10037000FF91EF91E0936C00F0936D00CF91DF91CE
:100380000895CF93DF9300D000D000D0CDB7DEB773
:1003900021B72D8319821A821B821C82F8948EE366
:1003A00087BB89E288BB88E08DB93DB53E8314BE2A
:1003B00078940F2EFEE12F2EF0E03F2EF02D10E866
:1003C0000E8181E041D3CE01019658D3811103C043
:1003D00089818111F8CF80916E00882339F080E502
:1003E00095E4A7E589839A83AB831C8210926F0002
:1003F0001EBD1BBD0DBD84EA91E0E6D78111E1CFA2
:100400001092930084E690E006D9811107C041E97B
:1004100050E061E070E083E990E058D9809193006A
:100420009D81890F81BF60E670E083E991E059DB2F
:10043000843061F46AE670E083E991E052DB0F2ECC
:10044000FAE6CF2EF0E0DF2EF02D06C00F2EF0E6FC
:10045000CF2EF0E0DF2EF02D8111B1CF89818823DE
:1004600009F4ADCF0F2EF3E9EF2EF0E0FF2EF02DC3
:100470000F2EF4EAAF2EF1E0BF2EF02D0FEF812CFE
:100480006894992491F860E070E083E991E07ADB68
:10049000811195CF8981882309F491CF6BE770E0B2
:1004A00083E991E06FDB811104C0809184008111A8
:1004B00002C0198284CF80918300827109F064C1E7
:1004C000BE016F5F7F4F84E890E00DDD892B09F45A
:1004D0005BC184E890E09F938F93DF92CF923F922D
:1004E0002F92FF92EF922ADFC70195D80FB6F894AA
:1004F000DEBF0FBECDBF811154C141E950E06CE0B9
:1005000070E0C701E3D881114CC1809191009091B6
:1005100092000C9709F045C1F70180859185A2856D
:10052000B38587359144A645B54409F03AC110E03A
:1005300041E950E068E070E0C701C8D880919100BF
:1005400090919200089709F02CC1F70144805580E2
:100550006680778080819181A281B3818C34F9E4B7
:100560009F07F3E5AF07F4E5BF0709F4ADC078F4E2
:1005700086363DE6930734E7A30730E2B307B9F0C8
:1005800084349944A345B04509F0F6C09DC0843633
:10059000E1E69E07E4E7AE07E1E6BE0709F457C0CF
:1005A00086369146A346B44709F0E6C08DC040FEAA
:1005B00005C02FEF421A520A620A720AD301C20121
:1005C0004097A109B10985359105A105B10508F04C
:1005D000E8C041E950E0B201C70178D880919100AC
:1005E00090919200A0E0B0E0481659066A067B069A
:1005F00009F0D7C0F7018081813009F0D2C01281A3
:100600008FEF810F823008F0CCC011BB8685883017
:1006100009F4BEC0803109F4BDC0C3C0F701248114
:10062000358146815781DA01C90180549F41A10972
:10063000B10981349C49A105B10508F0B2C060E858
:1006400074E88EE190E09CDB215029BD71CF11232D
:1006500009F4A7C0411424E052066104710408F4AF
:10066000A0C0812F90E00197092E000CAA0BBB0BB4
:10067000AC01BD014421552166217721452B462B34
:10068000472B09F08EC0F50146895789608D718D21
:1006900084239523A623B723892B8A2B8B2B09F040
:1006A00080C01092A30110927A001092790086E027
:1006B00087BD80E68CBD81E080BF82E08ABD83BFBC
:1006C00080E189BF10E014C040FE05C0FFEF4F1A63
:1006D0005F0A6F0A7F0AF50186899789A08DB18D1F
:1006E000BC01CD01640D751D861D971DD9D820CF85
:1006F0001F5F1EBD1BBD84E690E0B9DC1038C1F75A
:10070000F501868997899170B401681B790B41E9DD
:1007100050E080E090E0DAD78091910090919200D3
:10072000481A590A6108710811E0F1E04F16F4E027
:100730005F066104710418F4642D752D02C060E039
:1007400074E041E950E080E090E0C0D72091910052
:10075000309192002115344081F494E0591A6108D7
:100760007108110FB09903C01F5F113031F09091E3
:100770006F009923D1F201C0802F91E090936E0019
:100780001982882351F01BCE8981811187CE17CE23
:100790008B9A44CF8C9A110F41CF8981811173CEEE
:1007A0000ECE81E080936E00198209CEFF920F93E6
:1007B0001F93CF93DF93C82FD42F152F062FF72E1B
:1007C000882344F440E050E0BA0187E7EFDF82304D
:1007D000F8F4CF7757DC57DC54DC55DC8C2F67DC22
:1007E0008F2D65DC802F63DC812F61DC8D2F5FDC3A
:1007F000C03421F0C83421F487E803C085E901C082
:1008000081E055DCCAE03FDC882314F4C150D9F7FD
:10081000DF91CF911F910F91FF900895CF92DF92BA
:10082000EF92FF920F931F93CF93DF9300D000D0EE
:10083000CDB7DEB723DC0AE010E025DC015011095A
:10084000E1F71FDC08E512E01EDC01501109E1F7B9
:1008500040E050E0BA0180E4A9DF813009F075C0C2
:100860004AEA51E060E070E088E4A0DF813009F0FE
:100870003EC0CE0101967C016E0195E0C90ED11CEF
:10088000870101DCF80181938F01EC15FD05C9F7A3
:100890008B81813009F05BC08C818A3A31F0F12C78
:1008A00066C00150110919F454C008EA11E640E08D
:1008B00050E060E070E489EE79DF8111F2CF012B26
:1008C00009F449C040E050E0BA018AE76FDF8111C6
:1008D00044C0D9DBF70181937F01EC15FD05C9F711
:1008E000898186FD3CC06894FF24F2F840C040E056
:1008F00050E0BA0189EE5ADF823038F0FF24F394D9
:100900000F2EF1E4EF2EF02D07C06894FF24F1F8CC
:100910000F2EF9EEEF2EF02D08EA11E603C001507C
:10092000110911F140E050E0BA018E2D3FDF811135
:10093000F6CF012BD9F040E052E060E070E080E5B6
:1009400035DF8823A1F0F12C12C0F12C10C0F12C5E
:100950000EC0F12C0CC0F12C0AC0F12C08C00F2ED7
:10096000FCE0FF2EF02D03C0F12C01C0F12CF09221
:10097000CE0188DB88DB81E0F11080E00F900F90E2
:100980000F900F90DF91CF911F910F91FF90EF90FB
:10099000DF90CF900895CF92DF92EF92FF920F9366
:1009A0001F93CF93DF937C0169018091CE0183FD7A
:1009B00009C0032E39E0440F551F661F771F3A9573
:1009C000D1F7302D81E5F2DE811111C0C0E3D5E70A
:1009D0005ADB8F3F21F42197D9F7C1E00BC08E3F3E
:1009E00041F4A801B601C7016FDBC0E003C0C1E05C
:1009F00001C0C1E047DB47DB8C2FDF91CF911F9116
:100A00000F91FF90EF90DF90CF900895882389F0A9
:100A100080E88CBD1ABC13BE17BC1BBC86E880BF27
:100A200083E08DBD8EBD80E489BF8CB58F778CBD92
:100A3000089519BE10BE1EBC1DBC0895882311F078
:100A4000AB9A0895AB980895882341F0BB98C39A58
:100A50008BB780628BBF81E0F1DF0895BB9A089568
:100A60008E3030F4863030F4823030F480E00895F7
:100A700080E1089588E0089584E00895CF93FC0113
:100A80002081211116C0C091D001CC23A9F0209162
:100A90007100222381F044E050E061E770E014DA55
:100AA0001092710010927500109276001092D00191
:100AB00003C0C1E001C0C0E08C2FCF9108951F9208
:100AC0000F920FB60F9211242F933F934F935F9382
:100AD0006F937F938F939F93AF93BF93EF93FF9306
:100AE000B39B0AC08091D001811106C0A7DF81E0CD
:100AF0008DDF81E080936F00FF91EF91BF91AF9107
:100B00009F918F917F916F915F914F913F912F9125
:100B10000F900FBE0F901F9018951F920F920FB657
:100B20000F9211242F933F934F935F936F937F9373
:100B30008F939F93AF93BF93EF93FF938091CF01D8
:100B4000811108C0B39B06C081E08093CF01109251
:100B500070008DC08091CF01882341F0B39B06C007
:100B6000809170008F5F8093700081C08091CF0171
:100B7000882309F467C086B38091700071DF8430E8
:100B8000B1F0883051F5309175002091760081E008
:100B900090E002C0880F991F3A95E2F7822B80936C
:100BA0007600809175008F5F8093750069C03091E9
:100BB00075002091760081E090E002C0880F991FB7
:100BC0003A95E2F780959095822380937600809104
:100BD00075008F5F8093750053C0809175008830D9
:100BE00060F180917100882309F450C080917200F7
:100BF000882359F080917300882349F08091760012
:100C0000E1E7F0E08383148211C021E001C022E01B
:100C1000822F90E030917600FC01EF58FF4F308337
:100C2000FC01EE58FF4F1082233019F481E08093CD
:100C3000D00110927600109275001092CF011092A0
:100C4000700015C080917100882389F08091D001D7
:100C500081110DC080917000813120F081E080937E
:100C6000D00105C0809170008F5F809370008091EB
:100C7000D001882391F080E0C9DE81E0DFDE0DC085
:100C800080917500883008F0ACCFD7CF8091760086
:100C9000E1E7F0E080831182CCCFFF91EF91BF912B
:100CA000AF919F918F917F916F915F914F913F9104
:100CB0002F910F900FBE0F901F9018958F929F92BB
:100CC000AF92BF92CF92DF92EF92FF92CF93DF93DA
:100CD000C0917700D0917800625071098109910923
:100CE000CE80DF80E884F98422E0C21AD108E108CE
:100CF000F1086C157D058E059F05A0F42A8130E072
:100D000040E050E061D8822E932EA42EB52E8A8921
:100D10009B89AC89BD89BC01CD01680D791D8A1DF7
:100D20009B1D03C060E070E0CB01DF91CF91FF908D
:100D3000EF90DF90CF90BF90AF909F908F900895ED
:100D40000F931F93CF93DF93FC01A0917700B09195
:100D5000780011821082648175818681978161306B
:100D600071058105910589F116960D911D912D91C1
:100D70003C911997601771078207930740F5EF01BF
:100D8000611571058105910521F58C91833031F54F
:100D90001E966D917D918D919C9151976087718781
:100DA00082879387611571058105910511F086DFB2
:100DB00006C01E966D917D918D919C9151976C8787
:100DC0007D878E879F8780E00EC081E00CC081E028
:100DD0000AC06087718782879387E9CF1086118662
:100DE00012861386E6CFDF91CF911F910F91089560
:100DF000CF92DF92EF92FF920F931F93CF93DF93E7
:100E0000EC016A017B0102E010E02EEF31E0C3DD6E
:100E1000811124C08881998185359A4A09F526E394
:100E200030E0B701A601CE01B6DD811105C0888191
:100E3000998186349144B1F002E010E022E530E07F
:100E4000B701A601CE01A7DD81110EC081E0288186
:100E500039812634314449F480E007C083E005C07D
:100E600082E003C080E001C081E0DF91CF911F915B
:100E70000F91FF90EF90DF90CF9008954F925F9287
:100E80006F927F92AF92BF92CF92DF92EF92FF92DA
:100E90000F931F93CF93DF9300D000D0CDB7DEB771
:100EA0006B017C01A0907700B090780082E0C816BA
:100EB000D104E104F10408F4B1C0F5018681978101
:100EC000A085B185C816D906EA06FB0608F0ABC0B6
:100ED0008081823009F45EC0833009F478C08130AB
:100EE00009F0A6C02601569447944C0C5D1C920153
:100EF0003170452C552446942F3FF1E03F0789F08F
:100F0000F5014285538564857585440D551D611D28
:100F1000711D02E010E0CE0101963DDD882349F10C
:100F20008CC0612C712CF5014285538564857585D3
:100F3000440D551D661D771D01E010E02FEF31E0D7
:100F4000CE01019628DD81117DC0F50142855385D2
:100F5000648575854F5F5F4F6F4F7F4F440D551D03
:100F6000661D771D20E030E0CE01029614DD811170
:100F70006EC069817A81C0FE09C0729562956F70FA
:100F800067277F70672780E090E06FC07F7080E008
:100F900090E06BC096013327220F331F77276F2D08
:100FA0005E2D4D2DF50182859385A485B585480F6D
:100FB000591F6A1F7B1F02E010E0CE010196EBDC97
:100FC00081114AC069817A8180E090E04EC096012B
:100FD0002F773327220F331F220F331F689416F801
:100FE000F694E794D794C7941694D1F7F501428507
:100FF0005385648575854C0D5D1D6E1D7F1D04E058
:1010000010E0CE010196C7DC81112BC089819A8145
:10101000AB81BC81BC01CD019F7027C061E070E055
:1010200080E090E022C061E070E080E090E01DC0D0
:1010300061E070E080E090E018C061E070E080E086
:1010400090E013C061E070E080E090E00EC061E0ED
:1010500070E080E090E009C061E070E080E090E046
:1010600004C061E070E080E090E00F900F900F907E
:101070000F90DF91CF911F910F91FF90EF90DF9034
:10108000CF90BF90AF907F906F905F904F900895FA
:10109000CF92DF92EF92FF920F931F93CF93DF9344
:1010A000E0907700F0907800FC01C081D18121961A
:1010B00009F45AC0448555856685778541155105E3
:1010C0006105710509F452C08C01CE018F7099271A
:1010D000892B09F044C04F5F5F4F6F4F7F4F4487AC
:1010E0005587668777874085518562857385411569
:1010F00051056105710539F4F70184819581C8179F
:10110000D907B0F52CC0F701828190E001979E01CC
:10111000329522952F7023273F7023278223932314
:10112000892BE9F4CB01BA01A9DE62307105810592
:10113000910500F1F701C680D780E084F1846C1539
:101140007D058E059F05C0F4F80160877187828751
:101150009387B4DDF8016487758786879787F801E0
:10116000D183C08380E009C083E007C083E005C06D
:1011700083E003C081E001C083E0DF91CF911F9144
:101180000F91FF90EF90DF90CF9008952F923F92B4
:101190004F925F926F927F928F929F92AF92BF9287
:1011A000CF92DF92EF92FF920F931F93CF93DF9333
:1011B0007C016B014A01DA018C91803231F4FA0131
:1011C00031964F0181918032E1F38F3219F4BFEFF4
:1011D0008B1A9B0AF7011482158216821782D4019A
:1011E0008C91813230F4C701ABDD582FF6011082AB
:1011F000D7C06894BB24B5F8612C6894442443F8A4
:10120000242C0F2EFBE03F2EF02D55245394E601A5
:101210002B96A52C762CD7011296ED91FC91139765
:10122000DF01CF010B96BD92A817B907E1F7662D34
:10123000962D742D01C0912F11E0190FD401A90F23
:10124000B11D8C918132A8F18F3299F18E3209F45F
:101250009FC0671770F52FE7280F2F3120F020E28D
:10126000280F2D31D8F4462F50E0272F30E02150A1
:1012700031094217530794F4D401A10FB11D2C91E9
:10128000DF01A60FB11D8C9381E0860FDF01A80F4F
:10129000B11D6E5F2C9312E0190FCDCF9FE9980F0F
:1012A0009A3108F48052DF01A60FB11D8C936F5F55
:1012B000C2CF810E911C952D813208F0962D938717
:1012C000C7013EDD582F811169C0F70120813181AE
:1012D0002F703327220F331F22953295307F32270C
:1012E000207F3227448555856685778500E210E0AA
:1012F000C60151DB5A2D811101C0572D51114EC02D
:10130000D6018C918823B9F01B968C9183FD0DC07A
:10131000F70122813381F601D90103C0EC17FD07E3
:10132000A1F041919D914917C9F3C701B1DE582F32
:10133000882359F233C0D7011296ED91FC9113978F
:101340008385882309F153E02BC0F901938591111E
:1013500027C084FF1BC0D60154968D919C91559750
:10136000A0E0B0E0DC0199278827F601428D538D7B
:1013700060E070E0842B952BA62BB72BF7018483BC
:101380009583A683B78347CF54E00AC054E008C0D2
:10139000783009F08ECF622D732D4DCF533059F236
:1013A000852FDF91CF911F910F91FF90EF90DF90EC
:1013B000CF90BF90AF909F908F907F906F905F90F5
:1013C0004F903F902F9008954F925F926F927F922F
:1013D0008F929F92AF92BF92EF92FF920F931F93C3
:1013E000CF93DF93CDB7DEB7A8970FB6F894DEBFE3
:1013F0000FBECDBF1092780010927700009709F4CD
:10140000C5C07C010BDA80FDC3C040E050E0BA01EA
:10141000CE010196EDDC8130D1F400E110E02EEB3D
:1014200031E040E050E0BA01CE010196B4DA81111A
:10143000B1C08D81882309F4AFC089849A84AB84BC
:10144000BC84B501A401CE010196D2DC03C0812C7D
:10145000912C5401833009F4A1C08111A1C004E290
:1014600010E02DE030E0B501A401CE01019693DA41
:10147000811198C06A857B8580E090E061157105D7
:101480008105910521F4688D798D8A8D9B8D2C8144
:1014900030E040E050E098D42DA33EA34FA358A7DE
:1014A0000A811B8120E030E0800E911EA21EB31E37
:1014B000D7011A968D929D92AD92BC921D9749814B
:1014C00012964C9312974D805E8015965C924E92C8
:1014D00014978F819885A0E0B0E00097A105B10531
:1014E00021F48C899D89AE89BF895694479456947E
:1014F00047945694479456944794612C712C801BC2
:10150000910BA20BB30B0DA11EA12FA138A5801B1F
:10151000910BA20BB30BBC01CD01641975098609AF
:101520009709242F30E040E050E02AD4BA01A90105
:101530004E5F5F4F6F4F7F4FD70116964D935D9370
:101540006D937C931997473FBFE05B076105710579
:10155000D0F581E039C0840C951CA61CB71C0DA1E8
:101560001EA12FA138A5800E911EA21EB31ED70169
:1015700052968D929D92AD92BC92559711961C9267
:10158000F0927800E092770080E030C080E02EC0DA
:1015900082E02CC081E02AC087E028C081E026C01C
:1015A00087E024C081E022C0F70180838DA19EA145
:1015B000AFA1B8A5880D991DAA1DBB1D8687978769
:1015C000A08BB18BC8CF82E0473F5F4F61057105AB
:1015D00058F383E0D7018C9388A199A1AAA1BBA15C
:1015E000F70186879787A08BB18BB5CFA8960FB6EA
:1015F000F894DEBF0FBECDBFDF91CF911F910F9149
:10160000FF90EF90BF90AF909F908F907F906F90E2
:101610005F904F9008950F931F93CF93DF93CDB7B3
:10162000DEB7EC970FB6F894DEBF0FBECDBF0091CA
:1016300077001091780001151105C1F1AC01F80196
:101640001182CE0141969C838B83BE01635E7F4FE6
:1016500040979CDD81112FC08D8D882349F188A58D
:1016600084FD28C089A99AA9A0E0B0E0DC019927EF
:1016700088274FA958AD60E070E0842B952BA62BEE
:10168000B72BF801868F978FA0A3B1A389AD9AAD30
:10169000ABADBCAD828F938FA48FB58F168A178A9E
:1016A000108E118E81E0818380E005C086E003C04A
:1016B00083E001C083E0EC960FB6F894DEBF0FBE66
:1016C000CDBFDF91CF911F910F9108952F923F923F
:1016D0004F925F926F927F928F929F92AF92BF9242
:1016E000CF92DF92EF92FF920F931F93CF93DF93EE
:1016F0002C016B013A01E0907700F0907800FA013C
:1017000011821082E114F10409F4B2C0F701818161
:1017100080FFB0C0828D938DA48DB58D4689578989
:10172000608D718D841B950BA60BB70BA60160E035
:1017300070E084179507A607B70708F46C01C11479
:10174000D10409F499C05201812C6894992491F82C
:10175000312C212CF70186899789A08DB18DAC01A0
:10176000BD01517066277727452B462B472B09F083
:1017700040C0C281C150AC01BD01032E39E0769555
:101780006795579547953A95D1F7302DC423D1F4F5
:10179000892B8A2B8B2B29F4668D778D80A191A1C3
:1017A00006C0F70162A173A184A195A167DB623035
:1017B00071058105910508F457C0F70162A373A371
:1017C00084A395A3F70162A173A184A195A176DA00
:1017D000611571058105910509F446C0DC01CB0155
:1017E0008C0F911DA11DB11DF70186A397A3A0A782
:1017F000B1A7F701268937893170C401821B930B89
:10180000E6018C159D0508F4EC01F70146A157A1EE
:1018100060A571A54114510419F08A2D9B2D02C0B9
:10182000832D922D8E01B7D881111EC0F7018689B4
:101830009789A08DB18D8C0F9D1FA11DB11D868B29
:10184000978BA08FB18FAC0EBD1ECC1ADD0AF301B1
:1018500080819181C80FD91FD183C083C114D10465
:1018600009F078CF80E009C0F701118281E005C05E
:1018700086E003C085E001C080E0DF91CF911F9139
:101880000F91FF90EF90DF90CF90BF90AF909F901F
:101890008F907F906F905F904F903F902F90089522
:1018A0004F925F926F927F928F929F92AF92BF9270
:1018B000CF92DF92EF92FF920F931F93CF93DF931C
:1018C00000D000D0CDB7DEB700917700109178003E
:1018D0000115110509F4EBC0D80111962C9111974F
:1018E00020FFE7C05A968D909D90AD90BC905D977B
:1018F000C62ED72EE82EF92E8C149D04AE04BF04FC
:1019000010F475016401F80146885788608C718C69
:10191000168A178A108E118EC114D104E104F104C5
:1019200009F4C9C08280912CA12CB12C072E79E03A
:10193000880C991CAA1CBB1C7A95D1F7702D4114F8
:10194000510461047104E9F1B1E04B1A51086108D6
:101950007108C701B6016150710981099109A5019A
:1019600094010ED229833A834B835C83C301B20175
:10197000A501940105D289819A81AB81BC8182172E
:101980009307A407B507E8F088279927DC01881991
:101990009909AA09BB09482259226A227B22D80147
:1019A00056964D925D926D927C925997C418D508C7
:1019B000E608F70892966D917D918D919C9195978F
:1019C00009C0F801668D778D80A191A162A373A3F0
:1019D00084A395A38C149D04AE04BF0458F54EDA7D
:1019E000623071058105910508F45CC0F8014680FC
:1019F000578060847184641575058605970508F025
:101A000051C062A373A384A395A346885788608CB2
:101A1000718C480C591C6A1C7B1C468A578A608E44
:101A2000718EC818D908EA08FB088C149D04AE040E
:101A3000BF04A8F2D80156968D909D90AD90BC90B1
:101A40005997C80CD91CEA1CFB1CF801C68AD78A16
:101A5000E08EF18E33D9611571058105910511F183
:101A60000B2EB9E0F694E794D794C794BA95D1F7C2
:101A7000B02DD80112962C9130E021503109490146
:101A8000330FAA08BB08C820D920EA20FB20C60EC5
:101A9000D71EE81EF91EF801C6A2D7A2E0A6F1A63D
:101AA00080E00AC0D80111961C9281E005C086E052
:101AB00003C085E001C080E00F900F900F900F9061
:101AC000DF91CF911F910F91FF90EF90DF90CF901A
:101AD000BF90AF909F908F907F906F905F904F904E
:101AE00008950F931F93CF93DF93CDB7DEB7AC97D5
:101AF0000FB6F894DEBF0FBECDBF209177003091B6
:101B00007800232B69F1AB018C01CE010196F8011D
:101B100093838283BE01635F7F4FC80137DB8111EE
:101B20001BC08D85882301F1888D84FF1BC089A18E
:101B30009AA1A0E0B0E0DC01992788274FA158A521
:101B400060E070E0842B952BA62BB72BF8018483E3
:101B50009583A683B78308C0833049F484E007C027
:101B600086E005C084E003C0C801EAD8F5CFAC9692
:101B70000FB6F894DEBF0FBECDBFDF91CF911F919E
:101B80000F910895AF92BF92CF92DF92EF92FF92A2
:101B90000F931F93CF93DF93CDB7DEB7AC970FB6FC
:101BA000F894DEBF0FBECDBF209177003091780052
:101BB000232B09F4B2C06B017C01CE010196D70141
:101BC00013969C938E931297672B69F5C701B8D82B
:101BD000982FC4C0F701208131812F703327220F45
:101BE000331F22953295307F3227207F322700E243
:101BF00010E0CE010D96CFD69B2D811101C09A2DFC
:101C0000911124C08D85882309F489C0988D853E63
:101C100021F08E3211F093FF92C0C70139DA982F6C
:101C2000882329F013C093E0BB24B394A12CD701DF
:101C30001C964D915D916D917C911F9741155105B9
:101C40006105710539F6992309F479C0933031F0B3
:101C5000F701148615861686178680C0D7011C9654
:101C60001D921D921D921C921F97F601399648C035
:101C70008D858032C1F0AE01425F5F4FF6017196F3
:101C800095EE05C0DA018D91AD01803271F085309D
:101C900009F4892F2F5F3F4FD90111978C932E178D
:101CA0003F0781F703C0F90101C0F9018D89803236
:101CB00069F08EE280838D89803299F5319606C075
:101CC000F90104C0F90102C083833496888DD601DE
:101CD00018968C93189749A55AA56BA57CA54D938A
:101CE0005D936D937C9313978DA19EA115969C9304
:101CF0008E9314978BA19CA117969C938E93169705
:101D00001082C701C5D9982F833041F5F701148699
:101D100015861686178690E021C096E01FC093E0D6
:101D200095CF9F012E5F3F4F81838E89803241F294
:101D30002F5F3F4F82838F89803231F6C3CF960168
:101D4000275F3F4FF70184859585A685B785892B49
:101D50008A2B8B2B09F08CCFF901D2CF892FAC962F
:101D60000FB6F894DEBF0FBECDBFDF91CF911F91AC
:101D70000F91FF90EF90DF90CF90BF90AF900895BC
:101D8000A1E21A2EAA1BBB1BFD010DC0AA1FBB1F7F
:101D9000EE1FFF1FA217B307E407F50720F0A21BF1
:101DA000B30BE40BF50B661F771F881F991F1A945E
:101DB00069F760957095809590959B01AC01BD0188
:101DC000CF01089568940013E894A0E0B0E0EAEE33
:101DD000FEE01DC0EFEFE7F959016A015E23550FE0
:101DE000EE08FE2C87019B01AC019E23990F660B28
:101DF000762FCB013BD0CDB7DEB7EAE024C02F92DF
:101E00003F924F925F926F927F928F929F92AF928A
:101E1000BF92CF92DF92EF92FF920F931F93CF93D7
:101E2000DF93CDB7DEB7CA1BDB0B0FB6F894DEBF6E
:101E30000FBECDBF09942A88398848885F846E8494
:101E40007D848C849B84AA84B984C884DF80EE80DE
:101E5000FD800C811B81AA81B981CE0FD11D0FB6E7
:101E6000F894DEBF0FBECDBFED010895DF93CF9391
:101E70009F92A0E49A2E0024D001E001F001169573
:101E80000795F794E794D794C794B794A79448F428
:101E90001068A20FB31FC41FD51FE61FF71F081E2F
:101EA000191E220F331F441F551F661F771F881FDF
:101EB000991F9A9421F79D01AE01BF01C001112421
:101EC0009F90CF91DF910895FB01DC01415050407C
:101ED00048F001900D920020C9F701C01D924150B9
:101EE0005040E0F70895FB0151915523A9F0BF013F
:101EF000DC014D9145174111E1F759F4CD010190F5
:101F0000002049F04D9140154111C9F3FB014111E9
:0E1F1000EFCF81E090E001970895F894FFCFA5
:0C1F1E00776176006F736363616C0000F4
:00000001FF
