:100000000EC028C055C026C025C024C023C022C0B1
:1000100021C020C01FC01EC01DC01CC01BC0112499
:100020001FBECFE5D2E0DEBFCDBF10E0A0E6B0E05E
:10003000E0EEF1E002C005900D92A638B107D9F7C5
:1000400020E0A6E8B0E001C01D92AB38B207E1F7AE
:1000500002D0C4C0D5CFF89486E387BB89E288BBC1
:1000600088E08DB9BA9A6C9880E48EB91FB8AB9AC3
:100070008BB780628BBF85B7877E806185BF85B770
:10008000806285BFC49A2FEF81EE94E021508040BA
:100090009040E1F700C00000C4982FEF80E792E0A5
:1000A000215080409040E1F700C000007894FFCFDD
:1000B0001F920F920FB60F921124DF92EF92FF92D0
:1000C0000F931F932F933F934F935F936F937F9360
:1000D0008F939F93AF93BF93CF93DF93EF93FF9350
:1000E000B39B4AC0BA986C9A80E48EB91FB881E07D
:1000F00080938600E7E8F0E0D12CB0E0A1E070E06A
:1001000062E050E043E030E080E425C0769B23C00D
:100110002FB19081992391F09181992349F0928197
:10012000992349F09381911113C0042F132F08C014
:100130000A2F172F05C0062F152F02C00D2D1B2FBC
:10014000E801C957DF4F288308571F4FE80118827D
:1001500090819FB98EB9B399D9CF67E870E080E6F6
:1001600090E022D0892B09F0C49A10928600BA9AA6
:100170006C9880E48EB91FB8FF91EF91DF91CF9119
:10018000BF91AF919F918F917F916F915F914F91AF
:100190003F912F911F910F91FF90EF90DF900F9063
:1001A0000FBE0F901F901895FB0151915523A9F098
:1001B000BF01DC014D9145174111E1F759F4CD0123
:1001C0000190002049F04D9140154111C9F3FB0108
:1001D0004111EFCF81E090E001970895F894FFCFAF
:1001E00042454520424545204D4342454546414311
:1001F000452028746861742073686F756C6420648E
:060200006F206974290063
:00000001FF
